:1000000043C100000C944D150C9422150C94F71468
:100010000C94CC140C94A1140C9476140C944B14E2
:100020000C94201462C1000060C100005EC1000099
:100030005CC100000C94AF1A58C1000056C100000A
:1000400054C1000052C1000050C100004EC1000068
:100050004CC100004AC1000048C100000C94D613F6
:1000600044C100000C9425200C94FB1F3EC10000ED
:100070003CC100003AC1000038C1000036C1000098
:1000800034C1000032C1000030C100002EC10000A8
:100090002CC100002AC1000028C1000026C10000B8
:1000A00024C1000022C1000020C100001EC10000C8
:1000B0001CC100001AC1000018C1000016C10000D8
:1000C00014C1000012C1000010C100000EC10000E8
:1000D0000CC100000AC1000008C1000006C10000F8
:1000E00004C100009C01B6019A107D039503D5035D
:1000F000ED03F7041D0535053E0E530E0F0F9A1044
:100100009A109A109A109A109A109A10C40F7205A9
:100110009105FF0516061707320737084E084F09E5
:100120006609B909CE09200A370A850A9C0AEC0A31
:10013000010BFB0B120C0C0D230D1E0E330E3A128D
:100140003D122C12301236127412411245124B120B
:100150004F12531259125D126112741267126B1210
:100160006F1200002100240027002A002D0030001B
:10017000330001010000040107010A010000200012
:100180002300260029002C002F003200000100006F
:1001900003010601090100000A0B02090C0D0E08FB
:1001A0000703040100000000000000000000000040
:1001B000000000000000000000000000000000003F
:1001C00000001211100000000000000000000000FC
:1001D00000000000000000000000000001021020EC
:1001E000200808102040102040800201020108046D
:1001F0000201010204081020408080402010080401
:100200000201800402018040201008040201080459
:10021000020101020408102040800102040810209D
:10022000408000002200250028002B002E00310015
:10023000340002010000050108010B010505050558
:10024000070508080808020202020A0A080804044E
:10025000040401010101010101010303030303037C
:100260000303040707070C0C0C0C0C0C0C0C02020B
:10027000020206060606060606060B0B0B0B0B0B08
:100280000B0B0200F322E42511241FBECFEFD1E2B5
:10029000DEBFCDBF00E00CBF18E0A0E0B2E0E4E6B6
:1002A000F5E500E00BBF02C007900D92A83DB10735
:1002B000D9F72AE0A8EDB8E001C01D92AC31B20731
:1002C000E1F711E0C3E4D1E000E006C021970109A5
:1002D000802FFE010E942626C234D10780E0080745
:1002E000A9F70E9444230C94A12A8ACE2F923F9210
:1002F0004F925F926F927F928F929F92AF92BF9236
:10030000CF92DF92EF92FF920F931F93CF93DF93E1
:1003100000D000D0CDB7DEB70091140910911509B7
:100320000531110510F00C949A10F8018827EE5849
:10033000FF4F8F4F0C94262660E080E00E947911D9
:100340006DE472E08BEB99E00E94FA1F61E080E0BF
:100350000E9479116EE572E08BEB99E00E94FA1F22
:100360001092DB081092DA080C949A100E945C1824
:1003700081E090E0909317098093160961E08DE089
:100380000E94E4126FE672E088E199E00E94FA1F91
:1003900080911609909117090E949A118BEB99E0B0
:1003A0000E94F715E0901609F09017096DE772E0CA
:1003B000CE0101960E94581AA701BE016F5F7F4FC0
:1003C00080E090E00E94B911CE0101960E94531A7C
:1003D00068EE73E080E090E00E9462138BE892E0A8
:1003E0000E94B310609108097091090980910A096F
:1003F00090910B090E94FB264B015C016B016CE99B
:1004000072E088E199E00E94FA1FC4010E949A11EB
:10041000E12CF12C52E0A52EB12CEC14FD040CF0D3
:10042000D5C06BEA72E088E199E00E94FA1F8FEF75
:10043000E81AF80AC7010E949A1168EB72E0CE012F
:1004400001960E94581AA701BE016F5F7F4F81E09D
:1004500090E00E94B911CE0101960E94531AB09209
:10046000D409A092D3094091FC085091FD086091F5
:10047000FE087091FF0881E090E00E94371785E048
:100480000E94BC124C0164E670E080E090E00E94A3
:1004900062138A94892809F066C0609110097091EE
:1004A000110980911209909113090E94FB264B01BA
:1004B000612C712C8614970454F068EE73E080E090
:1004C00090E00E9462138FEF681A780AF3CF809150
:1004D000040990910509A0910609B091070980933C
:1004E000D5099093D609A093D709B093D809609104
:1004F0000C0970910D0980910E0990910F090E94CD
:10050000FB26AB01BC0180E090E00E94BF1768EEC3
:1005100073E080E090E00E94621380910009909166
:100520000109A0910209B09103098093D509909324
:10053000D609A093D709B093D80960910C0970919E
:100540000D0980910E0990910F090E94FB26AB01C5
:10055000BC0181E090E00E94BF1768EE73E080E08C
:1005600090E00E94621382E10E94BC12019749F45C
:1005700082E090E0909317098093160902E010E062
:1005800027C086E00E94BC12892B49F482E090E0EB
:10059000909317098093160903E010E019C0809129
:1005A000160990911709892B39F487E090E0909310
:1005B0001509809314090CC02AEF30E040E050E0A8
:1005C00060ED77E08CE00E940E1B27CF00E010E08A
:1005D0001093E3080093E2080130110569F50091DA
:1005E0001609109117096DE772E0CE0101960E947D
:1005F000581AA801BE016F5F7F4F80E090E00E9413
:10060000B911CE0101960E94531A67EC72E0CE0137
:1006100001960E94581ABE016F5F7F4F81E090E003
:100620000E948D11CE0101960E94531A8EEC92E029
:100630000E94B3100C949A100230110549F484ED15
:1006400092E00E94521110931709009316090DC0F1
:100650000330110591F485EE92E00E94521182E080
:1006600090E0909317098093160984E190E09093AD
:100670001509809314090C949A100E945C1810922A
:100680001709109216096DE772E0CE0101960E94DB
:10069000581A40E050E0BE016F5F7F4F80E090E06D
:1006A0000E94B911CE0101960E94531A66EF72E0C2
:1006B000CE0101960E94581ABE016F5F7F4F81E004
:1006C00090E00E948D11CE0101960E94531A87E09E
:1006D00093E00E94B31060E08DE00E94E4128CE091
:1006E00090E0909315098093140960ED77E080E025
:1006F00090E00E9462130C949A1060E080E00E94E7
:10070000791169E173E08BEB99E00E94FA1F61E0D7
:1007100080E00E9479116AE273E08BEB99E00E941D
:10072000FA1F83E090E00C9496100E945C188BE313
:1007300093E00E94B31067E573E0CE0101960E943A
:10074000581ABE016F5F7F4F81E090E00E948D11CB
:10075000CE0101960E94531A81E090E09093D40953
:100760008093D30920E030E040E05FE36091080926
:100770007091090980910A0990910B090E94BE2984
:10078000AB01BC0181E090E00E94371768E673E09E
:1007900088E199E00E94FA1F68EE73E080E090E043
:1007A0000E94621383E090E01CC160E080E00E9440
:1007B000791169E173E08BEB99E00E94FA1F61E027
:1007C00080E00E9479116DE773E08BEB99E00E9465
:1007D000FA1F85E090E00C949610809108099091A2
:1007E0000909A0910A09B0910B098093DE08909342
:1007F000DF08A093E008B093E10883E090E09093D5
:10080000DD088093DC088EE893E00E94B31068EA6C
:1008100073E0CE0101960E94581ABE016F5F7F4FB0
:1008200081E090E00E948D11CE0101960E94531A42
:100830000E945C1820E030E040E85EE36091080927
:100840007091090980910A0990910B090E94BE29B3
:100850009B01AC016091DE087091DF088091E00897
:100860009091E1080E942E266093DE087093DF08C5
:100870008093E0089093E10821E030E03093D409C0
:100880002093D3092091DC083091DD0821503109F3
:100890003093DD082093DC0820E030E040E05FE3A7
:1008A0000E94BE29AB01BC0181E090E00E94371795
:1008B0008BEB99E00E94F71560E080E00E947911CF
:1008C00069EB73E08BEB99E00E94FA1F61E080E036
:1008D0000E9479116AEC73E08BEB99E00E94FA1F99
:1008E0004091DC085091DD08052E000C660B770B5B
:1008F00020E030E08BEB99E00E94B31F0091DC0810
:100900001091DD080115110509F45BC082E00E9419
:10091000BC12892BD9F666E970E080E090E00E9475
:100920006213015011091093DD080093DC0826E9D9
:1009300030E040E050E060ED77E08CE00E940E1B7C
:1009400020E030E040E85EE3609108097091090919
:1009500080910A0990910B090E94BE2920E030E0A5
:1009600040E05FE30E94BE29AB01BC0180E090E063
:100970000E9437178BEB99E00E94F71560E080E04A
:100980000E94791169EB73E08BEB99E00E94FA1FEA
:1009900061E080E00E9479116AEC73E08BEB99E0F2
:1009A0000E94FA1F4091DC085091DD08052E000CD2
:1009B000660B770B20E030E08BEB99E00E94B31FD1
:1009C00085CF0E945C186AED73E088E199E00E948F
:1009D000FA1F68EE73E080E090E00E94621385E009
:1009E00090E09093DB088093DA080C94390E60E075
:1009F0008DE00E94E4126FE672E088E199E00E94C7
:100A0000FA1F8DEE93E00E94B31060E080E00E9438
:100A1000791162EF73E08BEB99E00E94FA1F61E0BD
:100A200080E00E94791163E074E08BEB99E00E9412
:100A3000FA1F87E090E00C94961060E080E00E943E
:100A4000791169E173E08BEB99E00E94FA1F61E094
:100A500080E00E94791164E174E08BEB99E00E94E0
:100A6000FA1F88E090E00C94961089E090E0909353
:100A7000DB088093DA08109215091092140984E1BA
:100A8000282E312C92E1C92ED12C0EE010E02CE062
:100A9000E22EF12C812C912C3AE9A32E32E4B32ED4
:100AA000412C512C46E1642E43E4742E8091DA08E7
:100AB0009091DB08099711F00C94390E0E945B208D
:100AC0008091140990911509AC01092E000C660B58
:100AD000770B489758F7FA018827E957FF4F8F4F50
:100AE0000C9426266CE370E080E090E00E94621394
:100AF00060E080E00E94791169E173E08BEB99E09E
:100B00000E94FA1F61E080E00E94791165E274E0C2
:100B10008BEB99E00E94FA1F1092D9081092D80826
:100B2000C5CF0E945C1886E394E00E94B31066E390
:100B300074E0CE0101960E94581ABE016F5F7F4F8C
:100B400081E090E00E948D11CE0101960E94531A1F
:100B500081E090E09093D4098093D3094091FC0800
:100B60005091FD086091FE087091FF080E943717B0
:100B700068EE73E080E090E00E94621380910409C7
:100B800090910509A0910609B09107098093D509B4
:100B90009093D609A093D709B093D80946E950E0BD
:100BA00060E070E080E090E00E94BF1764EF71E0C9
:100BB00080E090E00E946213809100099091010909
:100BC000A0910209B09103098093D5099093D609A9
:100BD000A093D709B093D80946E950E060E070E0EF
:100BE00081E090E00E94BF1764EF71E080E090E048
:100BF0000E946213109215091092140957CF60E0F9
:100C000080E00E94791169E173E08BEB99E00E942A
:100C1000FA1F61E080E00E94791167E474E08BEBD9
:100C200099E00E94FA1F82E090E017C183E090E013
:100C30009093D9088093D8088BEB99E00E94F71520
:100C400060E080E00E94791168E574E08BEB99E048
:100C50000E94FA1F61E080E00E94791169E674E069
:100C60008BEB99E00E94FA1F6091F8087091F908E7
:100C70008091FA089091FB0840E050E00E94B21188
:100C80008091F8089091F908A091FA08B091FB08BA
:100C90008093100990931109A0931209B09313093E
:100CA00060ED77E080E090E00E946213809114098B
:100CB00090911509039709F080C00E945B2084E0A1
:100CC0000E94BC12892B09F061C066E970E080E0E7
:100CD00090E00E94621320E030E040E85FE3609122
:100CE00010097091110980911209909113090E94C5
:100CF0002F26609310097093110980931209909325
:100D0000130926E930E040E050E060ED77E08CE048
:100D10000E940E1B20E030E046EC52E46091100986
:100D20007091110980911209909113090E942C274A
:100D3000181664F5109210091092110910921209F8
:100D4000109213098BEB99E00E94F71560E080E0A8
:100D50000E94791168E574E08BEB99E00E94FA1F1C
:100D600061E080E00E94791169E674E08BEB99E024
:100D70000E94FA1F60911009709111098091120967
:100D80009091130940E050E00E94B21161E080E0D0
:100D90000E94791169E674E08BEB99E00E94FA1FDA
:100DA00060911009709111098091120990911309B5
:100DB00040E050E00E94B21179CF60E179E080E03C
:100DC00090E00E94A6168BEB99E00E94F71568E769
:100DD00074E0CE0101960E94581ABE016F5F7F4FEA
:100DE00080E090E00E948D11CE0101960E94531A7E
:100DF00060ED77E080E090E00E94621368EF78E0B9
:100E000080E090E00E9480168091F8089091F908A7
:100E1000A091FA08B091FB088093100990931109F2
:100E2000A0931209B093130982E090E01BC160E027
:100E300080E00E94791169E173E08BEB99E00E94F8
:100E4000FA1F61E080E00E94791169E874E08BEBA1
:100E500099E00E94FA1F84E090E09093D908809373
:100E6000D80824CE85E090E09093D9088093D808E4
:100E70008BEB99E00E94F71560E080E00E94791109
:100E800068E574E08BEB99E00E94FA1F61E080E076
:100E90000E9479116AE974E08BEB99E00E94FA1FD5
:100EA0006091F4087091F5088091F6089091F70828
:100EB00040E050E00E94B2118091F4089091F50852
:100EC000A091F608B091F70880930C0990930D0952
:100ED000A0930E09B0930F0960ED77E080E090E0F9
:100EE0000E9462138091140990911509059709F0E9
:100EF00080C00E945B2084E00E94BC12892B09F014
:100F000061C066E970E080E090E00E94621320E03A
:100F100030E040E85FE360910C0970910D09809129
:100F20000E0990910F090E942F2660930C0970936F
:100F30000D0980930E0990930F0926E930E040E0F7
:100F400050E060ED77E08CE00E940E1B20E030E086
:100F500040E253E460910C0970910D0980910E09F3
:100F600090910F090E942C27181664F540920C09E5
:100F700050920D0960920E0970920F098BEB99E067
:100F80000E94F71560E080E00E94791168E574E046
:100F90008BEB99E00E94FA1F61E080E00E947911DA
:100FA0006AE974E08BEB99E00E94FA1F60910C09EA
:100FB00070910D0980910E0990910F0940E050E069
:100FC0000E94B21161E080E00E9479116AE974E048
:100FD0008BEB99E00E94FA1F60910C0970910D094A
:100FE00080910E0990910F0940E050E00E94B211EB
:100FF00079CF6CE079E084E090E00E94A6168BEB5C
:1010000099E00E94F71568E774E0CE0101960E940E
:10101000581ABE016F5F7F4F80E090E00E948D11F3
:10102000CE0101960E94531A60ED77E080E090E0D7
:101030000E94621364EF78E084E090E00E948016E2
:101040008091F4089091F508A091F608B091F70806
:1010500080930C0990930D09A0930E09B0930F098A
:1010600084E090E090931509809314091FCD60E00F
:1010700080E00E94791169E173E08BEB99E00E94B6
:10108000FA1F61E080E00E94791168EA74E08BEB5E
:1010900099E00E94FA1F86E090E0DFCE87E090E0C2
:1010A0009093D9088093D8088BEB99E00E94F715AC
:1010B00060E080E00E94791168E574E08BEB99E0D4
:1010C0000E94FA1F61E080E00E94791169EB74E0F0
:1010D0008BEB99E00E94FA1F6091F0087091F10883
:1010E0008091F2089091F30840E050E00E94B21124
:1010F0008091F0089091F108A091F208B091F30866
:101100008093080990930909A0930A09B0930B09E9
:1011100060ED77E080E090E00E9462138091140916
:1011200090911509079709F080C00E945B2084E028
:101130000E94BC12892B09F061C066E970E080E072
:1011400090E00E94621320E030E040E85FE36091AD
:1011500008097091090980910A0990910B090E9470
:101160002F26609308097093090980930A099093C8
:101170000B0926E930E040E050E060ED77E08CE0DC
:101180000E940E1B20E030E044EA52E4609108091E
:101190007091090980910A0990910B090E942C27EE
:1011A000181664F58092080990920909A0920A091C
:1011B000B0920B098BEB99E00E94F71560E080E09C
:1011C0000E94791168E574E08BEB99E00E94FA1FA8
:1011D00061E080E00E94791169EB74E08BEB99E0AB
:1011E0000E94FA1F609108097091090980910A090B
:1011F00090910B0940E050E00E94B21161E080E064
:101200000E94791169EB74E08BEB99E00E94FA1F60
:10121000609108097091090980910A0990910B0960
:1012200040E050E00E94B21179CF68E079E088E0B8
:1012300090E00E94A6168BEB99E00E94F71568E7F4
:1012400074E0CE0101960E94581ABE016F5F7F4F75
:1012500080E090E00E948D11CE0101960E94531A09
:1012600060ED77E080E090E00E94621360EF78E04C
:1012700088E090E00E9480168091F0089091F1083B
:10128000A091F208B091F30880930809909309099E
:10129000A0930A09B0930B0986E090E0E3CE60E0EA
:1012A00080E00E94791169E173E08BEB99E00E9484
:1012B000FA1F61E080E00E94791168EC74E08BEB2A
:1012C00099E00E94FA1F88E090E0C7CD84E10E9477
:1012D000BC12892BF1F469ED74E0CE0101960E94F5
:1012E000581ABE016F5F7F4F81E090E00E948D1120
:1012F000CE0101960E94531A60ED77E080E090E005
:101300000E94621388E090E09093D9088093D808F7
:101310002DC08AEE94E027D76AEE74E0CE010196E4
:101320000E94581ABE016F5F7F4F81E090E0F5D7B1
:10133000CE0101960E94531A80E090E0A0E8BEE33F
:101340008093D5099093D609A093D709B093D80973
:1013500041E050E060E070E080E090E00E94BF1764
:1013600064E670E080E090E00E94621388E090E024
:1013700079CE60E080E0BDD769E173E08BEB99E066
:101380000E94FA1F61E080E0B4D76BEF74E08BEB52
:1013900099E00E94FA1F8AE090E05FCD82E10E940E
:1013A000BC12892BE9F46CE075E0CE0101960E9435
:1013B000581ABE016F5F7F4F81E090E0AED7CE013B
:1013C00001960E94531A60ED77E080E090E00E9461
:1013D00062138AE090E09093D9088093D8082DC0DA
:1013E0008DE195E0C0D66DE175E0CE0101960E94D9
:1013F000581ABE016F5F7F4F81E090E08ED7CE011B
:1014000001960E94531A80E090E0A0E8BEE380932A
:10141000D5099093D609A093D709B093D80941E094
:1014200050E060E070E081E090E00E94BF1764E669
:1014300070E080E090E00E9462138AE090E012CEBB
:1014400060E080E056D769E173E08BEB99E00E94A1
:10145000FA1F61E080E04DD76EE275E08BEB99E01A
:101460000E94FA1FF092D908E092D8081FCB85E1BC
:101470000E94BC12892BD9F46FE375E0CE0101966E
:101480000E94581ABE016F5F7F4F81E090E045D700
:10149000CE0101960E94531A60ED77E080E090E063
:1014A0000E946213F092D908E092D80829C080E522
:1014B00095E059D66FE575E0CE0101960E94581A65
:1014C000BE016F5F7F4F81E090E027D7CE0101968C
:1014D0000E94531A81E090E09093D4098093D3093D
:1014E0004091FC085091FD086091FE087091FF0842
:1014F0000E9437176AEF70E080E090E00E9462136C
:10150000F0921509E0921409D1CA60E080E0F1D6AA
:1015100069E173E08BEB99E00E94FA1F61E080E0E3
:10152000E8D660E775E08BEB99E00E94FA1F109314
:10153000D9080093D808BACA83E10E94BC12892B4B
:10154000D9F461E875E0CE0101960E94581ABE01F7
:101550006F5F7F4F81E090E0E0D6CE0101960E9460
:10156000531A60ED77E080E090E00E9462131093E0
:10157000D9080093D8082BC080E595E0F4D56FE535
:1015800075E0CE0101960E94581ABE016F5F7F4F31
:1015900081E090E0C2D6CE0101960E94531A81E00C
:1015A00090E09093D4098093D3094091FC08509126
:1015B000FD086091FE087091FF0880E090E00E94B5
:1015C00037176AEF70E080E090E00E94621310939A
:1015D0001509009314096ACA60E080E08AD669E1BF
:1015E00073E08BEB99E00E94FA1F61E080E081D606
:1015F00062E975E08BEB99E00E94FA1F80E190E0D0
:101600002CCC81E190E09093D9088093D8088BEBA3
:1016100099E00E94F71560E080E06BD668E574E021
:101620008BEB99E00E94FA1F61E080E062D663EAEA
:1016300075E08BEB99E00E94FA1F6091EC087091C5
:10164000ED088091EE089091EF0842E050E08AD6D4
:101650008091EC089091ED08A091EE08B091EF0810
:101660008093040990930509A0930609B093070994
:1016700060ED77E080E090E00E94621380911409B1
:1016800090911509419709F07EC00E945B2084E08B
:1016900073D7892B09F062C066E970E080E090E0C2
:1016A0000E94621320E030E040E85EE360910409AC
:1016B0007091050980910609909107090E942F26D3
:1016C00060930409709305098093060990930709B4
:1016D00026E930E040E050E060ED77E08CE00E94E9
:1016E0000E1B20E030E040E450E46091040970916A
:1016F000050980910609909107090E942C27181668
:101700006CF580E090E0A0E8BEE38093040990933C
:101710000509A0930609B09307098BEB99E00E9495
:10172000F71560E080E0E5D568E574E08BEB99E0C3
:101730000E94FA1F61E080E0DCD563EA75E08BEB84
:1017400099E00E94FA1F6091040970910509809147
:1017500006099091070942E050E004D661E080E07C
:10176000C8D563EA75E08BEB99E00E94FA1F60919F
:10177000040970910509809106099091070942E0DA
:1017800050E0F0D57BCF64E079E080E190E00E940A
:10179000A6168BEB99E00E94F71568E774E0CE017E
:1017A00001960E94581ABE016F5F7F4F80E090E063
:1017B000B4D5CE0101960E94531A60ED77E080E027
:1017C00090E080D76CEE78E080E190E00E94801697
:1017D0008091EC089091ED08A091EE08B091EF088F
:1017E0008093040990930509A0930609B093070913
:1017F00080E190E037CC60E080E07BD569E173E088
:101800008BEB99E00E94FA1F61E080E072D560EBFB
:1018100075E08BEB99E00E94FA1FD092D908C09234
:10182000D80844C983E190E09093D9088093D80800
:101830008BEB99E00E94F71560E080E05AD568E5EF
:1018400074E08BEB99E00E94FA1F61E080E051D5D3
:1018500061EC75E08BEB99E00E94FA1F6091E8085B
:101860007091E9088091EA089091EB0842E050E01D
:1018700079D58091E8089091E908A091EA08B091A3
:10188000EB088093000990930109A0930209B0939B
:10189000030960ED77E080E090E014D780911409AF
:1018A00090911509439709F07DC00E945B2084E068
:1018B00063D6892B09F061C066E970E080E090E0B2
:1018C00001D720E030E040E85EE3609100097091CC
:1018D000010980910209909103090E942F266093CB
:1018E000000970930109809302099093030926E986
:1018F00030E040E050E060ED77E08CE00E940E1BAD
:1019000020E030E040E450E460910009709101096A
:1019100080910209909103090E942C2718166CF5FA
:1019200080E090E0A0E8BEE3809300099093010975
:10193000A0930209B09303098BEB99E00E94F7157D
:1019400060E080E0D6D468E574E08BEB99E00E941B
:10195000FA1F61E080E0CDD461EC75E08BEB99E09B
:101960000E94FA1F6091000970910109809102099B
:101970009091030942E050E0F5D461E080E0B9D4F1
:1019800061EC75E08BEB99E00E94FA1F6091000911
:1019900070910109809102099091030942E050E0A1
:1019A000E1D47CCF60E079E080E290E00E94A6166E
:1019B0008BEB99E00E94F71568E774E0CE01019681
:1019C0000E94581ABE016F5F7F4F80E090E0A5D45F
:1019D000CE0101960E94531A60ED77E080E090E01E
:1019E00071D668EE78E080E290E00E9480168091E7
:1019F000E8089091E908A091EA08B091EB0880937B
:101A0000000990930109A0930209B0930309D092B1
:101A10001509C09214094AC860E080E06AD469E1FF
:101A200073E08BEB99E00E94FA1F61E080E061D4E3
:101A30006EEC75E08BEB99E00E94FA1F3092D908AA
:101A40002092D80833C885E190E09093D90880931C
:101A5000D8088BEB99E00E94F71560E080E049D44C
:101A600068E574E08BEB99E00E94FA1F61E080E08A
:101A700040D46FED75E08BEB99E00E94FA1F609106
:101A8000E4087091E5088091E6089091E70842E04B
:101A900050E068D48091E4089091E508A091E608B0
:101AA000B091E7088093FC089093FD08A093FE088E
:101AB000B093FF0860ED77E080E090E003D680917E
:101AC000140990911509459709F07DC00E945B208B
:101AD00084E052D5892B09F061C066E970E080E0AE
:101AE00090E0F0D52DEC3CEC4CE45DE36091FC081B
:101AF0007091FD088091FE089091FF080E942F26AA
:101B00006093FC087093FD088093FE089093FF0893
:101B100026E930E040E050E060ED77E08CE00E94A4
:101B20000E1B20E030E040E050E46091FC08709132
:101B3000FD088091FE089091FF080E942C2718163E
:101B40006CF58DEC9CECACE4BDE38093FC089093C9
:101B5000FD08A093FE08B093FF088BEB99E00E946C
:101B6000F71560E080E0C5D368E574E08BEB99E0A1
:101B70000E94FA1F61E080E0BCD36FED75E08BEB53
:101B800099E00E94FA1F6091FC087091FD08809115
:101B9000FE089091FF0842E050E0E4D361E080E06D
:101BA000A8D36FED75E08BEB99E00E94FA1F60916E
:101BB000FC087091FD088091FE089091FF0842E0BA
:101BC00050E0D0D37CCF6CEF78E080E490E00E94CE
:101BD000A6168BEB99E00E94F71568E774E0CE013A
:101BE00001960E94581ABE016F5F7F4F80E090E01F
:101BF00094D3CE0101960E94531A60ED77E080E005
:101C000090E060D564EE78E080E490E00E94801679
:101C10008091E4089091E508A091E608B091E7086A
:101C20008093FC089093FD08A093FE08B093FF08F2
:101C300030921509209214090C94560560E080E05A
:101C400058D369E173E08BEB99E00E94FA1F61E0E1
:101C500080E04FD36CEE75E08BEB99E00E94FA1FA9
:101C600086E190E0FAC81092DB081092DA080C9432
:101C7000560510921509109214095CC260E080E0CC
:101C800038D369E173E08BEB99E00E94FA1F61E0C1
:101C900080E02FD36DEF75E08BEB99E00E94FA1F87
:101CA0008AE090E043C260E08DE08ED461E08BE09A
:101CB0008BD48EE096E057D260E276E0CE010196BA
:101CC0000E94581A42E050E06DE070E0CE010196AB
:101CD0000E94DA16CE0101960E94531A61E376E063
:101CE000CE0101960E94581ABE016F5F7F4F80E0BF
:101CF00090E013D3CE0101960E94531A6FE376E071
:101D0000CE0101960E94581ABE016F5F7F4F81E09D
:101D100090E003D3CE0101960E94531A60E08BE05D
:101D200053D42AEF30E040E050E064E378E08CE008
:101D30000E940E1B68EC70E080E090E0C3D48CE061
:101D40000E946C1A68EC70E080E090E0BBD461E027
:101D50008BE03AD42AEF30E040E050E064E378E0F2
:101D60008CE00E940E1B68EC70E080E090E0AAD44A
:101D70008CE00E946C1A68EC70E080E090E0A2D4E5
:101D800060E08BE021D42AEF30E040E050E060EDED
:101D900077E08CE00E940E1B68EC70E080E090E041
:101DA00091D42AEF30E040E050E064E378E08CE04A
:101DB0000E940E1B61E08BE007D468EC70E080E0CD
:101DC00090E080D48CE00E946C1A68EC70E080E0B7
:101DD00090E078D42AEF30E040E050E064E378E02F
:101DE0008CE00E940E1B60E08BE0EED368EC70E0AC
:101DF00080E090E067D48CE00E946C1A68EC70E0A0
:101E000080E090E05FD42AEF30E040E050E060ED09
:101E100077E08CE00E940E1B8BE090E087C160E0D1
:101E20008DE0D2D360E576E0CE0101960E94581A8B
:101E300041E050E06DE070E0CE010196BBD7CE01ED
:101E400001960E94531A62E676E0CE0101960E9446
:101E5000581ABE016F5F7F4F80E090E05ED2CE01E6
:101E600001960E94531A63E776E0CE0101960E9424
:101E7000581ABE016F5F7F4F81E090E04ED2CE01D5
:101E800001960E94531A61E08DE09ED32AEF30E064
:101E900040E050E064E378E08CE00E940E1B68ECC8
:101EA00070E080E090E00ED48CE00E946C1A68EC48
:101EB00070E080E090E006D460E08DE085D32AEF0A
:101EC00030E040E050E064E378E08CE00E940E1BDC
:101ED00068EC70E080E090E0F5D38CE00E946C1A32
:101EE00068EC70E080E090E0EDD361E08DE06CD3D1
:101EF0002AEF30E040E050E060ED77E08CE00E94B7
:101F00000E1B68EC70E080E090E0DCD32AEF30E05C
:101F100040E050E064E378E08CE00E940E1B60E05B
:101F20008DE052D368EC70E080E090E0CBD38CE0A1
:101F30000E946C1A68EC70E080E090E0C3D32AEF56
:101F400030E040E050E064E378E08CE00E940E1B5B
:101F500061E08DE039D368EC70E080E090E0B2D3CE
:101F60008CE00E946C1A68EC70E080E090E0AAD3EC
:101F70002AEF30E040E050E060ED77E08CE00E9436
:101F80000E1B8CE090E0D2C060E08DE01DD361E0DC
:101F90008BE01AD365EB79E088E199E00E94721E2C
:101FA00064E876E088E199E00E94801E67E876E0C8
:101FB000CE0101960E94581A42E050E06DE070E0B8
:101FC000CE010196F7D6CE0101960E94531A1A82CD
:101FD00019821C821B821E821D826091B50970913C
:101FE000B6096115710541F04091B9095091BA09DE
:101FF000CE0101960E94131ABE016F5F7F4F80E0F1
:1020000090E08BD1CE0101960E94531A67E876E0EA
:10201000CE0101960E94581ABE016F5F7F4F81E08A
:1020200090E07BD1CE0101960E94531A60E08BE0D4
:10203000CBD22AEF30E040E050E064E378E08CE07F
:102040000E940E1B68EC70E080E090E03BD38CE0D7
:102050000E946C1A68EC70E080E090E033D361E09D
:102060008BE0B2D22AEF30E040E050E064E378E069
:102070008CE00E940E1B68EC70E080E090E022D3C0
:102080008CE00E946C1A68EC70E080E090E01AD35B
:1020900060E08BE099D22AEF30E040E050E060ED64
:1020A00077E08CE00E940E1B68EC70E080E090E02E
:1020B00009D32AEF30E040E050E064E378E08CE0C0
:1020C0000E940E1B61E08BE07FD268EC70E080E044
:1020D00090E0F8D28CE00E946C1A68EC70E080E02E
:1020E00090E0F0D22AEF30E040E050E064E378E0A6
:1020F0008CE00E940E1B60E08BE066D268EC70E022
:1021000080E090E0DFD28CE00E946C1A68EC70E016
:1021100080E090E0D7D22AEF30E040E050E060ED80
:1021200077E08CE00E940E1B8DE090E09093DB083E
:102130008093DA0826960FB6F894DEBF0FBECDBFA7
:10214000DF91CF911F910F91FF90EF90DF90CF9093
:10215000BF90AF909F908F907F906F905F904F90C7
:102160003F902F900895CF93DF93BC0188E199E0D1
:102170000E94801EEC0164E876E088E199E00E940C
:10218000801E8C0F9D1FDF91CF910895EF92FF92DB
:102190000F931F93CF93DF93EC01623018F08F857C
:1021A00088608F876B8B1C8A80E48D8B80E18E8B9F
:1021B00080E58F8B61E08C8149D28D818F3F11F05A
:1021C00061E044D261E08E8141D27E0187E0E80E79
:1021D000F11C00E010E08F8584FD03C084E090E0F6
:1021E00002C088E090E00817190744F461E0F701A5
:1021F00081917F012BD20F5F1F4FEDCF8BE39DE0CD
:102200000197F1F760E08C81DFD160E08E81DCD155
:102210008D818F3F11F060E0D7D16F8564FD19C0CB
:1022200063E0CE0165D40BE416E4C8010197F1F731
:1022300063E0CE015DD4C8010197F1F763E0CE0100
:1022400057D483E592E00197F1F762E0CE0150D4D4
:1022500013C06062CE01C9D48BE496E40197F1F714
:102260006F856062CE01C1D483E592E00197F1F7FA
:102270006F856062CE01B9D46F856062CE01B5D43E
:1022800084E0888B6CE0CE01B0D4CE01B0D482E083
:10229000898B66E0CE01DF91CF911F910F91FF9066
:1022A000EF90A3C4009771F0FC0101900020E9F7C2
:1022B0003197AF01481B590BBC0185EB99E00E9497
:1022C000131A14C08091B5099091B609009711F0C6
:1022D0000E94C9271092B6091092B5091092BA0946
:1022E0001092B9091092B8091092B70985EB99E0DC
:1022F0000895643008F063E09091CE09691710F0FA
:102300006FEF690FE62FF0E0E554F64F9489682FE0
:10231000690F60688BEB99E068C4CF93DF93EB01A2
:10232000682F80E0E6DFBE018BEB99E0DF91CF9173
:102330000C94721ECF93DF93AC01990F660B770B51
:102340002AE030E088E199E00E94B31FEC0164E8E4
:1023500076E088E199E00E94801E8C0F9D1FDF913E
:10236000CF910895242FAB01BC018BEB99E00C9425
:10237000DC1EEF92FF920F931F93CF93C82F8B0118
:102380007A01682F80E0B5DFB8018BEB99E00E94FD
:10239000721E6C2F8DE0ADDFA701FF0C660B770B73
:1023A0002AE030E08BEB99E0CF911F910F91FF90E5
:1023B000EF900C94B31FFC01918D228D892F90E03A
:1023C000805C9F4F821B91098F739927089580E04D
:1023D00090E0892B19F0B7D7811125C080E090E0FB
:1023E000892B41F080E090E0892B21F00E940000D1
:1023F00081111CC080E090E0892B41F080E090E0EA
:10240000892B21F00E940000811113C080E090E030
:10241000892BA1F080E090E0892B81F00E940000E0
:1024200081110AC008950E940000D8CF0E940000C8
:10243000E1CF0E940000EACF0C940000089590E0E4
:10244000FC013197E231F10508F04EC08827E156D2
:10245000FF4F8F4F0C942626809180008F7703C00A
:10246000809180008F7D809380000895809180000E
:10247000877FF9CF84B58F7702C084B58F7D84BD07
:1024800008958091B0008F7703C08091B0008F7D58
:102490008093B0000895809190008F7707C080915D
:1024A00090008F7D03C080919000877F8093900083
:1024B00008958091A0008F7707C08091A0008F7D44
:1024C00003C08091A000877F8093A0000895809131
:1024D00020018F7707C0809120018F7D03C08091FC
:1024E0002001877F8093200108953FB7F894809161
:1024F000E2099091E309A091E409B091E50926B5BC
:10250000A89B05C02F3F19F00196A11DB11D3FBF2B
:10251000BA2FA92F982F8827820F911DA11DB11DB9
:10252000BC01CD0142E0660F771F881F991F4A95B5
:10253000D1F708950895FC01848DDF01A80FB11D26
:10254000A35ABF4F2C91848D90E001968F739927E9
:10255000848FA689B7892C93A089B1898C918064D6
:102560008C93938D848D981306C00288F389E02D97
:1025700080818F7D80830895CF93DF93282F30E073
:10258000F901EA56FE4F8491F901E452FE4FD491CD
:10259000F901E45CFD4FC491CC2389F081114FDF38
:1025A000EC2FF0E0EE0FFF1FE458FE4FA591B49121
:1025B000EC91ED2381E090E021F480E002C080E026
:1025C00090E0DF91CF9108951F93CF93DF93282F51
:1025D00030E0F901EA56FE4F8491F901E452FE4FD2
:1025E000D491F901E45CFD4FC491CC23C1F0162FC6
:1025F000811125DFEC2FF0E0EE0FFF1FEE5DFD4FA8
:10260000A591B4918FB7F894111105C09C91ED2F4D
:10261000E095E92302C0EC91ED2BEC938FBFDF91A5
:10262000CF911F910895CF93DF93EC0160E08E81ED
:10263000CBDF61E08E81C8DF60E08E81C5DF8BE893
:1026400091E00197F1F7DF91CF910895CF93DF9358
:1026500090E0FC01E452FE4F2491FC01E45CFD4F4C
:102660008491882361F190E0880F991FFC01EE5955
:10267000FE4FC591D491FC01EE5DFD4FA591B49143
:10268000611109C09FB7F8948881209582238883BF
:10269000EC912E230BC0623061F49FB7F89438811F
:1026A000822F809583238883EC912E2B2C939FBFC0
:1026B00006C08FB7F894E8812E2B28838FBFDF9157
:1026C000CF9108958F929F92AF92BF92CF92DF9257
:1026D000EF92FF926B017C0108DF4B015C01C1149A
:1026E000D104E104F104E9F000DFDC01CB01881939
:1026F0009909AA09BB09883E9340A105B10578F361
:1027000021E0C21AD108E108F10888EE880E83E0C2
:10271000981EA11CB11CC114D104E104F10421F7DD
:10272000DECFFF90EF90DF90CF90BF90AF909F9063
:102730008F9008958EED96E016DD109211021092A2
:10274000100264E670E080E090E0BCCF89E097E0A2
:102750000ADD109213021092120264E670E080E02B
:1027600090E0B0CF84E397E0FEDC1092DC09109299
:10277000DB0964E670E080E090E0A4CF86E597E0B6
:10278000F2DC1092DA091092D90964E670E080E078
:1027900090E098CF2FB7F8946091DE097091DF092F
:1027A0008091E0099091E1092FBF08951F920F9247
:1027B0000FB60F9211242F933F938F939F93AF9354
:1027C000BF938091DE099091DF09A091E009B0915B
:1027D000E1093091DD0923E0230F2D3720F4019624
:1027E000A11DB11D05C026E8230F0296A11DB11D34
:1027F0002093DD098093DE099093DF09A093E0091F
:10280000B093E1098091E2099091E309A091E40974
:10281000B091E5090196A11DB11D8093E209909345
:10282000E309A093E409B093E509BF91AF919F91AB
:102830008F913F912F910F900FBE0F901F90189581
:102840001F920F920FB60F9211240BB60F922F9377
:102850003F934F935F936F937F938F939F93AF9328
:10286000BF93EF93FF93E0910E02F0910F02199541
:10287000FF91EF91BF91AF919F918F917F916F9158
:102880005F914F913F912F910F900BBE0F900FBE14
:102890000F901F9018951F920F920FB60F92112450
:1028A0000BB60F922F933F934F935F936F937F934A
:1028B0008F939F93AF93BF93EF93FF93E0910C029D
:1028C000F0910D021995FF91EF91BF91AF919F91FA
:1028D0008F917F916F915F914F913F912F910F90C9
:1028E0000BBE0F900FBE0F901F9018951F920F9266
:1028F0000FB60F9211240BB60F922F933F934F9365
:102900005F936F937F938F939F93AF93BF93EF9357
:10291000FF93E0910202F09103021995FF91EF916C
:10292000BF91AF919F918F917F916F915F914F91E7
:102930003F912F910F900BBE0F900FBE0F901F90E5
:1029400018951F920F920FB60F9211240BB60F928B
:102950002F933F934F935F936F937F938F939F93A7
:10296000AF93BF93EF93FF93E0910002F0910102C8
:102970001995FF91EF91BF91AF919F918F917F91A9
:102980006F915F914F913F912F910F900BBE0F90E0
:102990000FBE0F901F9018951F920F920FB60F92B7
:1029A00011240BB60F922F933F934F935F936F9326
:1029B0007F938F939F93AF93BF93EF93FF93E09198
:1029C0000A02F0910B021995FF91EF91BF91AF911F
:1029D0009F918F917F916F915F914F913F912F9137
:1029E0000F900BBE0F900FBE0F901F9018951F9267
:1029F0000F920FB60F9211240BB60F922F933F93A5
:102A00004F935F936F937F938F939F93AF93BF93F6
:102A1000EF93FF93E0910802F09109021995FF915D
:102A2000EF91BF91AF919F918F917F916F915F9146
:102A30004F913F912F910F900BBE0F900FBE0F90B3
:102A40001F9018951F920F920FB60F9211240BB67C
:102A50000F922F933F934F935F936F937F938F9337
:102A60009F93AF93BF93EF93FF93E0910602F09192
:102A700007021995FF91EF91BF91AF919F918F91AF
:102A80007F916F915F914F913F912F910F900BBE6E
:102A90000F900FBE0F901F9018951F920F920FB6B8
:102AA0000F9211240BB60F922F933F934F935F9386
:102AB0006F937F938F939F93AF93BF93EF93FF9306
:102AC000E0910402F09105021995FF91EF91BF91F9
:102AD000AF919F918F917F916F915F914F913F91B6
:102AE0002F910F900BBE0F900FBE0F901F90189557
:102AF000CF92DF92EF92FF920F931F93CF93DF93CA
:102B00007C016C0187E0C80ED11CC0E0D0E0062F2C
:102B100010E0B8010C2E02C0759567950A94E2F793
:102B20006170F60181916F014FDD2196C430D105AE
:102B300081F7C701DF91CF911F910F91FF90EF9027
:102B4000DF90CF9070CDCF92DF92EF92FF920F93F4
:102B50001F93CF93DF93EC01F62E642F8C8134DD2D
:102B60008D818F3F11F060E02FDD8F850F2D10E0FC
:102B700084FF23C06E0187E0C80ED11CE12CF12C2C
:102B8000B8010E2C02C0759567950A94E2F7617042
:102B9000F60181916F0118DDFFEFEF1AFF0A88E05F
:102BA000E816F10469F7CE01DF91CF911F910F91E3
:102BB000FF90EF90DF90CF9036CDB80184E075950F
:102BC00067958A95E1F7CE0193DF6F2DCE01DF91F6
:102BD000CF911F910F91FF90EF90DF90CF9088CF12
:102BE00041E0B1DF81E090E0089540E0ACCF61E0EA
:102BF000FCDF8BE39FE10197F1F708950F931F939B
:102C0000CF93DF9300D000D0CDB7DEB783E0B4DC44
:102C10008C012AEF30E040E050E06CEF78E08CE08F
:102C2000FDD466E970E080E090E04CDD012BD9F442
:102C300000911609109117090115110529F488E76B
:102C400097E091DAF801199580911609909117098A
:102C5000029749F488E797E086DA8BEB99E0C7DFC3
:102C6000E0E0F0E019952AEF30E040E050E060ED60
:102C700077E08CE0D3D410921709109216098BEBF1
:102C800099E0B5DF6EE777E0CE01019611D4BE0181
:102C90006F5F7F4F80E090E040DBCE01019603D470
:102CA0006FE877E0CE01019603D4BE016F5F7F4FDE
:102CB00081E090E032DBCE010196F5D360E08DE05B
:102CC00083DC6FE672E088E199E00E94FA1F8DEEE6
:102CD00093E049DA87E090E0909315098093140916
:102CE00062E370E080E090E0EDDC26960FB6F894A9
:102CF000DEBF0FBECDBFDF91CF911F910F91089521
:102D0000CF92DF92EF92FF920F931F93CF93DF93B7
:102D1000EB017B0124E0E20EF11C8B016C01C61A71
:102D2000D70AC601800F911F0E94722AF801819371
:102D30008F01EE15FF05A9F7CE01DF91CF911F910D
:102D40000F91FF90EF90DF90CF900895AF92BF92D8
:102D5000CF92DF92EF92FF920F931F93CF93DF9367
:102D60001F92CDB7DEB75C017B018B016C0184E063
:102D7000C80ED11CF80161918F01C50169830E94C1
:102D8000722A6981681719F0C5010E947A2AFFEF3B
:102D9000AF1ABF0AAC14BD0469F7C7010F90DF91E9
:102DA000CF911F910F91FF90EF90DF90CF90BF9048
:102DB000AF900895AF92BF92CF92DF92EF92FF92C1
:102DC0000F931F93CF93DF935C017B016A01C0E0F7
:102DD000D0E0CC15DD050CF03FC08BEB99E007DFB0
:102DE00062E08BEB99E0D2D9B5018BEB99E07AD711
:102DF00064E670E080E090E065DC00E010E00E1535
:102E00001F0574F468E18BEB99E0EFDE0E945B2014
:102E100064E670E080E090E055DC0F5F1F4FEFCF7D
:102E200000E010E00E151F0574F46CE18BEB99E0E7
:102E3000DCDE0E945B2064E670E080E090E042DC33
:102E40000F5F1F4FEFCF64E670E080E090E03ADC68
:102E50000E945B202196BDCFDF91CF911F910F91F2
:102E6000FF90EF90DF90CF90BF90AF9008954F927A
:102E70005F926F927F92AF92BF92CF92DF92EF926A
:102E8000FF920F931F93CF93DF93C82F6A017B01AB
:102E900060EA77E088E199E00E94FA1F22E0B7013A
:102EA000A60188E199E088D764E876E088E199E0B6
:102EB00027D76C2F8BE188DB20E030E048EC53E42F
:102EC000C701B6010E94BE292B013C01C0E0D0E041
:102ED0000BEC17E082E0C82ED12C94E1A92EB12C86
:102EE000BE010D2E000C880B990B0E945F29A301D7
:102EF00092010E94592918169CF161E08DE164DB72
:102F0000E090D309F090D40980E090E0E816F9064B
:102F10002CF0F8013197F1F70196F8CF60E08DE1E0
:102F200053DB80E090E0E816F9062CF0F8013197C9
:102F3000F1F70196F8CF8091100290911102892B40
:102F400069F48DEA97E0AED9D0921709C0921609BC
:102F5000B0921509A09214090E9476012196C0CF63
:102F6000DF91CF911F910F91FF90EF90DF90CF9065
:102F7000BF90AF907F906F905F904F9008954F9269
:102F80005F926F927F928F929F92AF92BF92CF92F9
:102F9000DF92EF92FF920F931F93CF93DF93C82F8F
:102FA0006A017B016EEB77E088E199E00E94FA1FED
:102FB0002AE030E0B701A60188E199E0D4D764E8BF
:102FC00076E088E199E09CD66C2F8FE1FDDAA0E9EC
:102FD000B1E0A70196010E94882A2B013C01C12C77
:102FE000D12C76010BE811E04C145D046E047F04D3
:102FF0000CF451C061E081E2E7DA8090D50990904D
:10300000D609A090D709B090D809C0E0D0E0BE01A1
:103010000D2E000C880B990B0E945F29A5019401CD
:103020000E94592918162CF0C8010197F1F7219632
:10303000EECF60E081E2C8DAC0E0D0E0BE010D2E44
:10304000000C880B990B0E945F29A50194010E9436
:10305000592918162CF0C8010197F1F72196EECFE7
:103060008FEFC81AD80AE80AF80A809112029091E4
:103070001302892B09F0B8CF8BEC97E013D982E0CB
:1030800090E0909317098093160984E190E0909363
:10309000150980931409DF91CF911F910F91FF9033
:1030A000EF90DF90CF90BF90AF909F908F907F90E8
:1030B0006F905F904F900895CF92DF92EF92FF92C2
:1030C0000F931F93CF93DF9300D000D0CDB7DEB71F
:1030D0006CED77E0CE010196EBD1BE016F5F7F4FC3
:1030E00080E090E01AD9CE010196DDD183E144DA87
:1030F0008C0164E670E080E090E0E4DA1093DC0993
:103100000093DB096DEE77E088E199E073D7809159
:10311000DB099091DC090ED90091DB091091DC09E3
:103120000130110509F03FC08FEF97E01CD860E235
:1031300078E0CE010196BCD1BE016F5F7F4F81E088
:1031400090E0EBD8CE010196AED11093D409009354
:10315000D3094091FC085091FD086091FE087091E0
:10316000FF0880E090E083DE61E378E088E199E0A9
:1031700041D78091DB099091DC09DCD88091100265
:1031800090911102892B41F68DEA97E08BD882E06D
:1031900090E0909317098093160984E190E0909352
:1031A00015098093140983E498E00E94B31082E12A
:1031B000E3D98C0164E670E080E090E083DA10935C
:1031C000DA090093D9096CE578E088E199E012D733
:1031D0008091D9099091DA09ADD8C12CD12C80E821
:1031E000E82E8FE3F82E8091D9099091DA090197A2
:1031F00009F040C08EE698E00E94B3106FE878E0D6
:10320000CE01019655D1BE016F5F7F4F81E090E006
:1032100084D8CE01019647D1C092D509D092D60963
:10322000E092D709F092D80941E050E060E070E008
:1032300081E090E0A4DE60EA78E088E199E0DAD607
:103240008091D9099091DA0975D8809112029091F4
:103250001302892B41F68BEC97E024D882E090E0B2
:10326000909317098093160984E190E090931509D3
:103270008093140982EB98E00E94B31026960FB653
:10328000F894DEBF0FBECDBFDF91CF911F910F919C
:10329000FF90EF90DF90CF900895DC01ED91FC91CD
:1032A0000190F081E02D1994CF92DF92EF92FF927E
:1032B0000F931F93CF93DF936C017A018B01C0E0D2
:1032C000D0E0CE15DF0589F0D8016D918D01D601D2
:1032D000ED91FC910190F081E02DC6011995892BAB
:1032E00011F47E0102C02196ECCFC701DF91CF918E
:1032F0001F910F91FF90EF90DF90CF900895FC0108
:10330000918D828D981761F0828DDF01A80FB11D1C
:103310005D968C91928D9F5F9F73928F90E0089540
:103320008FEF9FEF0895FC01918D828D981731F0FA
:10333000828DE80FF11D858D90E008958FEF9FEF4E
:1033400008950E94452988E199E035D821E0892B2C
:1033500009F420E0822F0895EF92FF920F931F93BC
:10336000CF93DF93EC0181E0888F9B8D8C8D981338
:1033700005C0E889F989808185FD23C0F62E0B8D73
:1033800010E00F5F1F4F0F731127E02E8C8DE81296
:103390000BC00FB607FCFACFE889F989808185FF59
:1033A000F5CFCE01C8D8F2CF8B8DFE01E80FF11D0D
:1033B000E35AFF4FF0820B8FEA89FB89808180629C
:1033C00007C0EE89FF896083E889F989808180647C
:1033D000808381E090E0DF91CF911F910F91FF906A
:1033E000EF900895CF93DF93EC01888D8823C1F08F
:1033F000EA89FB89808185FD05C0A889B9898C91FE
:1034000086FD0EC00FB607FCF5CF808185FFF2CF99
:10341000A889B9898C9185FFEDCFCE018CD8E8CFF2
:10342000DF91CF910895EF92FF920F931F93CF9367
:10343000DF93EC017B018A0188819981009729F053
:103440002A813B8124173507F8F4B8016F5F7F4F5D
:103450000E946128009759F0998388831B830A830F
:103460002C813D81232B81F4FC0110820DC08881C9
:103470009981009711F00E94C927198218821D8234
:103480001C821B821A8207C01D830C83B7018881AE
:1034900099810E945229CE01DF91CF911F910F9106
:1034A000FF90EF900895FC01808191810C94C927D1
:1034B000FC0111821082138212821582148261151E
:1034C000710549F0FB0101900020E9F73197AF0148
:1034D000461B570BA8CF08959091140298133DC036
:1034E000E2E8F2E0E4919FEF90931402E230C9F039
:1034F00050F4EE2399F0E13081F590916F009D7FBB
:1035000090936F002AC0E43019F1E0F0E53029F51E
:10351000909173009D7F909373001FC010926E0076
:103520001CC0909170009D7F9093700091E09093EB
:10353000B0009091B100987F94609093B100109288
:10354000B3000BC0909171009D7F9093710005C0F6
:10355000909172009D7F9093720060E035C81F9239
:103560000F920FB60F9211240BB60F922F933F9329
:103570004F935F936F937F938F939F93AF93BF937B
:10358000EF93FF9380910C0A90910D0AA0910E0A7F
:10359000B0910F0A892B8A2B8B2B51F180910B0A4A
:1035A000E091090AF0910A0A90818927808380912D
:1035B0000C0A90910D0AA0910E0AB0910F0A1816EC
:1035C00019061A061B06BCF480910C0A90910D0A8C
:1035D000A0910E0AB0910F0A0197A109B109809339
:1035E0000C0A90930D0AA0930E0AB0930F0A03C021
:1035F0008091140271DFFF91EF91BF91AF919F9184
:103600008F917F916F915F914F913F912F910F908B
:103610000BBE0F900FBE0F901F9018953F924F92C8
:103620005F926F927F928F929F92AF92BF92CF9252
:10363000DF92EF92FF920F931F93CF93DF9300D00F
:103640001F92CDB7DEB729013A0190911402981765
:1036500021F09F3F09F030C304C0E2E8F2E034906B
:1036600004C180931402E2E8F2E0E491EF3F09F430
:1036700023C3E23009F480C074F5EE2309F45BC083
:10368000E13009F0F1C01092800010928100909119
:103690008100986090938100909181009160909357
:1036A0008100282F30E0F901E45CFD4FE491F0E067
:1036B000EE0FFF1FEE5DFD4F459154915093F109C0
:1036C0004093F009F901E452FE4FE491E093EF09D1
:1036D00033243394CCC0E43009F49EC00CF474C09D
:1036E000E53009F0C1C010922001109221019091A3
:1036F0002101986090932101909121019160909314
:103700002101482F50E0FA01E45CFD4FE491F0E024
:10371000EE0FFF1FEE5DFD4F259134913093E809C8
:103720002093E709FA01E452FE4FE491E093E609A1
:10373000B5E03B2E9CC014BC15BC94B5926094BD02
:1037400095B5916095BD282F30E0F901E45CFD4FFF
:10375000E491F0E0EE0FFF1FEE5DFD4F45915491B7
:103760005093F4094093F309F901E452FE4FE491B8
:10377000E093F209312C7BC01092B0001092B1009E
:103780009091B00092609093B0009091B1009160E0
:103790009093B100282F30E0F901E45CFD4FE491F3
:1037A000F0E0EE0FFF1FEE5DFD4F459154915093F9
:1037B0000A0A4093090AF901E452FE4FE491E093AA
:1037C0000B0A52E0352E53C01092900010929100D7
:1037D00090919100986090939100909191009160E8
:1037E00090939100282F30E0F901E45CFD4FE491C3
:1037F000F0E0EE0FFF1FEE5DFD4F459154915093A9
:10380000EE094093ED09F901E452FE4FE491E09393
:10381000EC0923E0322E2BC01092A0001092A100E0
:103820009091A10098609093A1009091A100916067
:103830009093A100282F30E0F901E45CFD4FE49162
:10384000F0E0EE0FFF1FEE5DFD4F45915491509358
:10385000EB094093EA09F901E452FE4FE491E09349
:10386000E90904E0302E03C03E2E37FC25C28B014F
:1038700061E00E9426134801A12CB12C832D8D7F7D
:1038800009F0BBC060E072E18AE790E0A501940115
:103890000E940A2629833A834B835C8369017A015B
:1038A00021E0C21AD108E108F1088FEFC816D1044F
:1038B000E104F10409F008F44CC060E472E48FE024
:1038C00090E0A50194010E940A2669017A0191E025
:1038D000C91AD108E108F108E2E03E1220C0FFEF6A
:1038E000CF16D104E104F10409F008F4E3C160E962
:1038F00070ED83E090E0A50194010E940A26690121
:103900007A0181E0C81AD108E108F1089FEFC916D1
:10391000D104E104F10409F0D0F583E067C0EFEFD2
:10392000CE16D104E104F104B1F0A8F068E478EE19
:1039300081E090E0A50194010E940A2669017A01C4
:10394000F1E0CF1AD108E108F108332009F45AC197
:10395000A8C181E001C082E03320A1F047C0898185
:103960009A81AB81BC812AE0B595A79597958795FB
:103970002A95D1F76C017D01F1E0CF1AD108E10859
:10398000F10885E095B5987F892B85BDA6C068E4D0
:1039900078EE81E090E0A50194010E940A26690179
:1039A0007A0181E0C81AD108E108F1089FEFC91631
:1039B000D104E104F10409F008F422C164E274EFD7
:1039C00080E090E0A50194010E940A2669017A0135
:1039D00081E0C81AD108E108F1089FEFC916D104A7
:1039E000E104F10411F008F02EC185E09091B100DE
:1039F000987F892B8093B10070C060E072E18AE704
:103A000090E0A50194010E940A2669017A01F1E083
:103A1000CF1AD108E108F108C114D10421E0E2066F
:103A2000F10488F068E478EE81E090E0A50194016B
:103A30000E940A2669017A0181E0C81AD108E108CA
:103A4000F10883E001C081E091E0391210C090914B
:103A50008100987F892B8093810041145104610477
:103A6000710409F03FC02FEF3FEFA90171C0E3E0FF
:103A70003E120FC090919100987F892B8093910006
:103A8000411451046104710469F52FEF3FEFA9015E
:103A900081C0F4E03F120FC09091A100987F892B64
:103AA0008093A1004114510461047104D9F42FEFF3
:103AB0003FEFA90181C025E032120FC09091210192
:103AC000987F892B80932101411451046104710472
:103AD00049F42FEF3FEFA90181C041145104610463
:103AE000710471F0D801AA0FBB1FA30192010E94BB
:103AF000882A28EE33E040E050E00E94E82503C029
:103B00002FEF3FEFA90182E03816A1F1831534F0C1
:103B1000332079F091E03916D9F0CEC0E4E03E16BA
:103B200009F44AC03E16B4F1F5E03F1609F456C058
:103B3000C3C0C7BC2093050A3093060A4093070A06
:103B40005093080A80916E00826080936E00B4C02A
:103B5000D0928900C09288002093010A3093020A13
:103B60004093030A5093040A80916F00826080930F
:103B70006F00A2C0C092B30020930C0A30930D0ACC
:103B800040930E0A50930F0A8091700082608093D8
:103B9000700092C0D0929900C09298002093FD09C5
:103BA0003093FE094093FF095093000A8091710001
:103BB00082608093710080C0D092A900C092A8005A
:103BC0002093F9093093FA094093FB095093FC09BB
:103BD000809172008260809372006EC0D092290141
:103BE000C09228012093F5093093F6094093F70914
:103BF0005093F809809173008260809373005CC0D9
:103C000084E0F4CE2FEFC216D104E104F104C9F030
:103C1000C0F062E17AE780E090E0A5019401FAD774
:103C200069017A01E1E0CE1AD108E108F108FFEF5D
:103C3000CF16D104E104F10411F008F090CE84E035
:103C4000A1CE83E09FCE62E17AE780E090E0A5011B
:103C50009401E0D769017A0181E0C81AD108E1082E
:103C6000F1089FEFC916D104E104F104C1F0B8F0E6
:103C700089819A81AB81BC814AE0B595A7959795DA
:103C800087954A95D1F76C017D01E1E0CE1AD10804
:103C9000E108F108332009F474CE87E0A7CE86E06E
:103CA0005BCEEFEFCE16D104E104F10409F058F633
:103CB00084E052CE82E09ACE0F900F900F900F903A
:103CC000DF91CF911F910F91FF90EF90DF90CF90F8
:103CD000BF90AF909F908F907F906F905F904F902C
:103CE0003F900895DC01ED91FC91DB0114964D911C
:103CF0005C9115976D917C910280F381E02D199470
:103D00006115710579F0FB0101900020E9F7319709
:103D1000AF01461B570BDC01ED91FC910280F38152
:103D2000E02D199480E090E008954F925F926F9299
:103D30007F92EF92FF920F931F93CF93DF93CDB7B4
:103D4000DEB7A1970FB6F894DEBF0FBECDBF7C01E2
:103D5000FA01CB0119A2223008F42AE08E010F5D8E
:103D60001F4F422E512C612C712CBF01A3019201D7
:103D70002FD7F901CA01015011096A3014F4605DAE
:103D800001C0695CD8016C93232B242B252B69F788
:103D9000B801C701B5DFA1960FB6F894DEBF0FBE1C
:103DA000CDBFDF91CF911F910F91FF90EF907F904A
:103DB0006F905F904F9008954F925F926F927F92B5
:103DC0008F929F92AF92BF92CF92DF92EF92FF922B
:103DD000CF93DF93EC016A017B01B22E9A01AB0114
:103DE000C701B6010E943027882319F06BEC78E0F8
:103DF00027C026013701E89477F82FEF3FEF4FE710
:103E00005FE7C301B2010E94302781110DC02FEF7F
:103E10003FEF4FE75FE7C301B2010E94592918162F
:103E20001CF46FEC78E00CC02FEF3FEF4FE75FE43E
:103E3000C701B6010E942C27181694F463ED78E0B0
:103E4000CE01DF91CF91FF90EF90DF90CF90BF90A8
:103E5000AF909F908F907F906F905F904F9050CFDA
:103E60002FEF3FEF4FE75FECC701B6010E945929E2
:103E700087FDE4CF20E030E0A901C701B6010E9430
:103E8000592987FF09C06DE2CE0107DA4C01F7FA24
:103E9000F094F7F8F09402C0812C912CA12C60E0F2
:103EA00070E080E09FE3AB1439F020E030E040E2C6
:103EB00051E439D7A394F7CF9B01AC01C701B601F8
:103EC000CED62B013C019CD76B017C010E945D2961
:103ED0009B01AC01C301B201C1D62B013C012AE018
:103EE000B701A601CE0121DF7C01E80CF91CBB2043
:103EF00029F06EE2CE01D1D9E80EF91EDB2CDD20CF
:103F000011F120E030E040E251E4C301B2010E942F
:103F1000BE292B013C0174D74B01A12CB12C2AE006
:103F2000B501A401CE0101DFE80EF91EC501B401FF
:103F30000E945D299B01AC01C301B2018FD62B0108
:103F40003C01DA94DCCFC701DF91CF91FF90EF9075
:103F5000DF90CF90BF90AF909F908F907F906F90A9
:103F60005F904F900895CF92DF92EF92FF920F9360
:103F70001F93CF93DF93EC016A017B01211531057B
:103F800079F4E881F9810190F081E02D642FDF91CF
:103F9000CF911F910F91FF90EF90DF90CF901994E8
:103FA0002A303105D9F477FF18C06DE276D98C013B
:103FB00044275527BA014C195D096E097F092AE08B
:103FC000CE01B3DE800F911FDF91CF911F910F9132
:103FD000FF90EF90DF90CF9008952AE0B701A601FF
:103FE000CE01DF91CF911F910F91FF90EF90DF9065
:103FF000CF909BCE85CE1F920F920FB60F921124B9
:104000000BB60F922F933F934F935F936F937F93D2
:104010008F939F93AF93BF93EF93FF9388E199E0C2
:104020000E949B12FF91EF91BF91AF919F918F9151
:104030007F916F915F914F913F912F910F900BBEA8
:104040000F900FBE0F901F9018951F920F920FB6F2
:104050000F9211240BB60F922F938F939F93EF9390
:10406000FF93E0912809F09129098081E0912E09C0
:10407000F0912F0982FD12C09081809131098F5FEC
:104080008F7320913209821751F0E0913109F0E0ED
:10409000E85EF64F958F8093310901C08081FF91D2
:1040A000EF919F918F912F910F900BBE0F900FBEAC
:1040B0000F901F901895CF92DF92EF92FF920F937F
:1040C0001F93CF93DF9382E00E94BC128C018091FA
:1040D0001702909118020817190751F00E94CA138D
:1040E0006093140A7093150A8093160A9093170A26
:1040F0000E94CA13C090140AD090150AE090160AC4
:10410000F090170ADC01CB018C199D09AE09BF099B
:1041100085369105A105B10560F00E94CA13609330
:10412000140A7093150A8093160A9093170AE801EF
:1041300002C0C1E0D0E0109318020093170284E09F
:104140000E94BC128C0180911502909116020817F2
:10415000190751F00E94CA136093100A7093110A54
:104160008093120A9093130A0E94CA13C090100AF7
:10417000D090110AE090120AF090130ADC01CB01F2
:104180008C199D09AE09BF0985369105A105B105B8
:1041900060F00E94CA136093100A7093110A809312
:1041A000120A9093130AA80102C041E050E0109354
:1041B000160200931502209769F48091DA08909115
:1041C000DB08009701F52AEF30E040E050E060EDB9
:1041D00077E044C04115510509F0FCC18091DA082F
:1041E0009091DB08009791F42AEF30E040E050E036
:1041F00064E378E08CE012DA83E090E090931509B4
:1042000080931409E7C14115510581F4833091056C
:1042100071F18530910509F454C08830910509F495
:104220005FC08A30910509F066C06FC08330910588
:1042300009F478C08530910509F48AC08830910569
:1042400009F498C08A30910509F4A4C00C97D1F400
:104250002AEF30E040E050E064E378E08CE0DED923
:1042600081E090E0CBCF8430910509F062C02AEF65
:1042700030E040E050E064E378E08CE0CFD985E0C6
:1042800090E0BCCF41155105C9F18091D8089091BB
:10429000D9080097E9F24115510509F097C082301D
:1042A000910509F43FC0209709F494C08091D80883
:1042B0009091D9088430910509F44AC0863091055F
:1042C00059F42AEF30E040E050E064E378E08CE01D
:1042D000A5D988E090E092CF8830910509F0BDC063
:1042E0002AEF30E040E050E064E378E08CE096D9DB
:1042F0008AE090E083CF209709F4A8CF8091DA0874
:104300009091DB080B9709F050C02AEF30E040E0B5
:1043100050E064E378E08CE081D9109215091092A6
:10432000140958C12AEF30E040E050E064E378E03F
:104330000AC08530910509F05CC02AEF30E040E00A
:1043400050E068E978E08CE069D984E090E056CFED
:104350002AEF30E040E050E064E378E08CE05ED9A2
:1043600086E090E04BCF8091D8089091D9088830B2
:10437000910559F42AEF30E040E050E064E378E042
:104380008CE04CD989E090E039CF9C018A309105CE
:1043900009F047C02AEF30E040E050E064E378E005
:1043A0008CE03CD98BE090E029CF209709F46DCFC9
:1043B0008091D8089091D908009709F070CF2AEF22
:1043C00030E040E050E064E378E00EC082309105D8
:1043D00009F40ACF8330910509F045CF2AEF30E088
:1043E00040E050E068E978E08CE018D982E090E0A5
:1043F00005CF8630910559F42AEF30E040E050E0D7
:1044000064E378E08CE00AD987E090E0F7CE079784
:1044100009F0A9CF2AEF30E040E050E06CEF78E0FF
:104420009DCF8C30910559F42AEF30E040E050E008
:1044300064E378E08CE0F2D88DE090E0DFCE8E305F
:104440009105A9F52AEF30E040E050E064E378E020
:104450008CE0E4D88FE090E0D1CE8A30910559F419
:104460002AEF30E040E050E064E378E08CE0D6D81A
:104470008CE090E0C3CE8C30910559F42AEF30E007
:1044800040E050E064E378E08CE0C8D88EE090E053
:10449000B5CE8E30910571F42AEF30E040E050E067
:1044A00064E378E08CE0BAD880E190E0A7CE4115D3
:1044B000510571F480319105D1F42AEF30E040E0EC
:1044C00050E064E378E08CE0A9D882E190E096CEF9
:1044D0002031310509F06AC02AEF30E040E050E0B9
:1044E00064E378E08CE09AD881E190E087CE209771
:1044F00011F4419789F28091D8089091D9088231BE
:10450000910559F42AEF30E040E050E064E378E0B0
:104510008CE084D884E190E071CE209729F4439711
:1045200061F24115510591F48091D8089091D90814
:1045300084319105E9F42AEF30E040E050E064E393
:1045400078E08CE06BD886E190E058CE8091D80876
:104550009091D9088431910569F42AEF30E040E068
:1045600050E064E378E08CE059D885E190E046CEF5
:10457000CD2B21F4459731F2452B39F48091D808A1
:104580009091D908469731F5C0CE8091D808909186
:10459000D9084697F9F42AEF30E040E050E064E3B0
:1045A00078E08CE03BD887E190E028CE21313105DE
:1045B00009F472CFC9012231310509F0B0CF2AEFD9
:1045C00030E040E050E064E378E08CE027D883E11D
:1045D00090E014CEDF91CF911F910F91FF90EF905B
:1045E000DF90CF900895E8E1F9E01382128288EE1F
:1045F00093E0A0E0B0E084839583A683B78389E34A
:1046000092E09183808385EC90E09587848784ECA9
:1046100090E09787868780EC90E0918B808B81EC8F
:1046200090E0938B828B82EC90E0958B848B86EC70
:1046300090E0978B868B118E128E138E148EEBEB7F
:10464000F9E01382128289E492E0918380838AE206
:1046500084838FEF85838CE2868384E3878382E380
:10466000808780E381878EE2828713861486158691
:104670001686178661E0CF010E94C61066E876E0D4
:1046800085EB99E00C94581ACF93DF9300D000D0BB
:10469000CDB7DEB7789484B5826084BD84B581607F
:1046A00084BD85B5826085BD85B5816085BD8091FD
:1046B0006E00816080936E00109281008091810075
:1046C000826080938100809181008160809381006D
:1046D000809180008160809380008091B10084602F
:1046E0008093B1008091B00081608093B000809190
:1046F000910082608093910080919100816080930D
:104700009100809190008160809390008091A10041
:1047100082608093A1008091A10081608093A100BC
:104720008091A00081608093A0008091210182602F
:1047300080932101809121018160809321018091EA
:10474000200181608093200180917A0084608093B1
:104750007A0080917A00826080937A0080917A005A
:10476000816080937A0080917A00806880937A00DB
:104770001092C10061E08DE00E94261361E08BE0A1
:104780000E94261361E08CE00E94261362E082E022
:104790000E94261362E083E00E94261362E084E018
:1047A0000E94261362E082E10E94261362E083E108
:1047B0000E94261362E084E10E94261362E085E1F4
:1047C0000E94261362E086E00E94261360E085E0E6
:1047D0000E94261382E00E94BC12892B09F082C03D
:1047E00068EE73E080E090E00E946213109210097E
:1047F00010921109109212091092130980E090E0B2
:10480000A6E1B3E480930C0990930D09A0930E09DF
:10481000B0930F0980E090E0A0EAB2E48093080929
:1048200090930909A0930A09B0930B0980E090E0E6
:10483000A0E0B0E48093040990930509A0930609D1
:10484000B093070980E090E0A0E0BFE38093000907
:1048500090930109A0930209B09303098093FC0887
:104860009093FD08A093FE08B093FF0860E179E003
:1048700080E090E00E94A6166CE079E084E090E091
:104880000E94A61668E079E088E090E00E94A616F3
:1048900064E079E080E190E00E94A61660E079E0B3
:1048A00080E290E00E94A6166CEF78E080E490E051
:1048B0000E94A61662E08BEB99E00E94C61060E0B1
:1048C00080E00E9479118BEB99E00E94F71568E96E
:1048D00076E08BEB99E08EDB60ED77E080E090E0B6
:1048E0000E94621368EF78E080E090E00E948016FA
:1048F0008091F8089091F908A091FA08B091FB080E
:104900008093100990931109A0931209B093130991
:1049100064EF78E084E090E00E9480168091F408D3
:104920009091F508A091F608B091F70880930C09D2
:1049300090930D09A0930E09B0930F0960EF78E0F2
:1049400088E090E00E9480168091F0089091F10834
:10495000A091F208B091F308809308099093090997
:10496000A0930A09B0930B096CEE78E080E190E027
:104970000E9480168091EC089091ED08A091EE08BD
:10498000B091EF088093040990930509A09306095C
:10499000B093070968EE78E080E290E00E9480160C
:1049A0008091E8089091E908A091EA08B091EB089D
:1049B0008093000990930109A0930209B093030921
:1049C00064EE78E080E490E00E9480168091E40834
:1049D0009091E508A091E608B091E7088093FC0863
:1049E0009093FD08A093FE08B093FF088EEF95E129
:1049F000909303028093020280916A00837F886013
:104A000080936A00ED9A8EEB93E190930B02809372
:104A10000A02809169008F73806880936900EB9A25
:104A200082EB93E1909309028093080280916900E0
:104A30008F7C806280936900EA9A86EA93E1909382
:104A400007028093060280916900837F88608093CB
:104A50006900E99A8AE993E1909305028093040240
:104A6000809169008C7F826080936900E89A60E0A1
:104A70008DE00E94E41260E08BE00E94E41261E0AD
:104A800081E20E94261361E08FE10E94261360E01C
:104A900081E20E94E41260E08FE10E94E41261E092
:104AA0008DE10E94261361E08BE10E94261360E0F5
:104AB0008DE10E94E41260E08BE10E94E412E0913B
:104AC0002809F091290982E08083E0912409F0917E
:104AD00025091082E0912609F09127098FEC808347
:104AE00010923009E0912C09F0912D0986E0808325
:104AF000E0912A09F0912B09808180618083E09107
:104B00002A09F0912B09808188608083E0912A092D
:104B1000F0912B09808180688083E0912A09F091CF
:104B20002B0980818F7D808362E08BEB99E00E946E
:104B3000C61060E081E00E94791169EA76E0CE015A
:104B400001960E94581A41E050E06FE070E0CE01FB
:104B500001960E94DA16CE0101960E94531A2AEF9E
:104B600030E040E050E060E679E08CE00E940E1B0F
:104B70008CE00E946C1A68EC70E080E090E00E948B
:104B800062132AEF30E040E050E06CEF78E08CE018
:104B90000E940E1B88EB96E00E94B3108CEC96E00E
:104BA0000E94B31004E110E086DA0E947601809141
:104BB000160990911709029721F410931509009393
:104BC00014090E94E711F0CF85EB99E00C94531A79
:104BD000A1E21A2EAA1BBB1BFD010DC0AA1FBB1F01
:104BE000EE1FFF1FA217B307E407F50720F0A21B73
:104BF000B30BE40BF50B661F771F881F991F1A94E0
:104C000069F760957095809590959B01AC01BD0109
:104C1000CF010895052E97FB16F400940FD057FD91
:104C200005D0D6DF07FC02D046F408C05095409569
:104C3000309521953F4F4F4F5F4F08959095809548
:104C4000709561957F4F8F4F9F4F0895EE0FFF1F17
:104C5000881F8BBF0790F691E02D19945058BB2701
:104C6000AA270ED005C4F6D330F0FBD320F031F4E0
:104C70009F3F11F41EF4EBC30EF4E095E7FBE1C394
:104C8000E92F07D480F3BA176207730784079507E3
:104C900018F071F49EF51FC40EF4E0950B2EBA2F98
:104CA000A02D0B01B90190010C01CA01A001112432
:104CB000FF27591B99F0593F50F4503E68F11A16DE
:104CC000F040A22F232F342F4427585FF3CF46956F
:104CD00037952795A795F0405395C9F77EF41F1691
:104CE000BA0B620B730B840BBAF09150A1F0FF0F5B
:104CF000BB1F661F771F881FC2F70EC0BA0F621F47
:104D0000731F841F48F4879577956795B795F79536
:104D10009E3F08F0B3CF9395880F08F09927EE0FC8
:104D20009795879508950CD0A3C39BD340F092D359
:104D300030F021F45F3F19F084C35111CDC387C314
:104D4000A8D398F39923C9F35523B1F3951B550BB9
:104D5000BB27AA2762177307840738F09F5F5F4F4E
:104D6000220F331F441FAA1FA9F333D00E2E3AF08F
:104D7000E0E830D091505040E695001CCAF729D0A9
:104D8000FE2F27D0660F771F881FBB1F26173707F8
:104D90004807AB07B0E809F0BB0B802DBF01FF2728
:104DA00093585F4F2AF09E3F510568F04AC394C361
:104DB0005F3FECF3983EDCF3869577956795B79562
:104DC000F7959F5FC9F7880F911D9695879597F97D
:104DD0000895E1E0660F771F881FBB1F62177307F6
:104DE0008407BA0720F0621B730B840BBA0BEE1F0B
:104DF00088F7E095089504D06894B1116DC30895C3
:104E000050D388F09F5790F0B92F9927B751A0F051
:104E1000D1F0660F771F881F991F1AF0BA95C9F74E
:104E200012C0B13081F057D3B1E0089554C3672F59
:104E3000782F8827B85F39F0B93FCCF386957795FE
:104E40006795B395D9F73EF49095809570956195E7
:104E50007F4F8F4F9F4F08956DD208F48FEF0895C5
:104E600069D2880B990B0895CF93DF938230910517
:104E700010F482E090E0E0911A0AF0911B0A20E021
:104E800030E0C0E0D0E0309711F140815181481707
:104E90005907C0F04817590761F482819381209720
:104EA00019F09B838A832BC090931B0A80931A0A64
:104EB00026C02115310519F04217530718F49A013D
:104EC000BE01DF01EF010280F381E02DDCCF21156F
:104ED000310509F1281B390B2430310590F4129665
:104EE0008D919C9113976115710521F0FB019383BE
:104EF000828304C090931B0A80931A0AFD013296A4
:104F000044C0FD01E20FF31F8193919322503109B8
:104F10002D933C933AC02091180A3091190A232B03
:104F200041F420911B0230911C023093190A209306
:104F3000180A2091190230911A022115310541F405
:104F40002DB73EB740911D0250911E02241B350B18
:104F5000E091180AF091190AE217F307A0F42E1B4A
:104F60003F0B2817390778F0AC014E5F5F4F2417CD
:104F7000350748F04E0F5F1F5093190A4093180AE7
:104F80008193919302C0E0E0F0E0CF01DF91CF91F7
:104F900008950F931F93CF93DF93009709F48CC06C
:104FA000FC0132971382128200911A0A10911B0A97
:104FB0000115110581F420813181820F931F209109
:104FC000180A3091190A2817390779F5F093190A48
:104FD000E093180A71C0D80140E050E0AE17BF0757
:104FE00050F412962D913C911397AD012115310586
:104FF00009F1D901F3CF9D01DA0133832283608166
:105000007181860F971F8217930769F4EC0128813D
:105010003981260F371F2E5F3F4F318320838A81CE
:105020009B8193838283452B29F4F0931B0AE093A1
:105030001A0A42C01396FC93EE931297ED01499120
:1050400059919E01240F351FE217F30771F48081F7
:105050009181840F951F029611969C938E93828165
:10506000938113969C938E931297E0E0F0E0D80121
:1050700012968D919C911397009719F0F8018C016D
:10508000F6CF8D919C9198012E5F3F4F820F931F19
:105090002091180A3091190A2817390769F43097B6
:1050A00029F410921B0A10921A0A02C0138212826B
:1050B0001093190A0093180ADF91CF911F910F9155
:1050C00008956F927F928F929F92AF92BF92CF92EC
:1050D000DF92EF92FF920F931F93CF93DF93EC0138
:1050E000009781F4CB01DF91CF911F910F91FF9039
:1050F000EF90DF90CF90BF90AF909F908F907F9078
:105100006F90B2CEFC01E60FF71F9C0122503109CF
:10511000E217F30708F4A8C0D9010D911C9111976B
:1051200006171707A8F00530110508F49BC0C80141
:1051300004978617970708F495C002501109061BBB
:10514000170B019311936D937C93CF0122DF8AC0DB
:105150005B01A01AB10A4C01800E911EA0911A0A9F
:10516000B0911B0A40E050E0E12CF12C109709F4BB
:105170004AC0A815B905D1F56D907C9011976301CF
:1051800082E0C80ED11CCA14DB0480F1A3014A19C5
:105190005B096A0182E0C80ED11C1296BC9012977E
:1051A0001396AC91B5E0CB16D10440F0B282A38344
:1051B00051834083D9016D937C930AC00E5F1F4FCA
:1051C000C301800F911FF90191838083EB2DFA2F8A
:1051D000E114F10431F0D7011396FC93EE9312978A
:1051E00041C0F0931B0AE0931A0A3CC08D919C9138
:1051F00011974817590708F4AC017D0112960D90DC
:10520000BC91A02DB3CF8091180A9091190A8815EE
:105210009905E1F446175707C8F480911902909157
:105220001A02009741F48DB79EB740911D0250912C
:105230001E02841B950BE817F907B0F4F093190AC6
:10524000E093180AF901718360830CC0CB010CDE76
:105250007C01009749F0A801BE011BD0CE0199DE68
:10526000C70104C0CE0102C080E090E0DF91CF9181
:105270001F910F91FF90EF90DF90CF90BF90AF9074
:105280009F908F907F906F90089581E090E0F894C8
:1052900058C1FB01DC0102C001900D924150504009
:1052A000D8F70895FB01DC0101900D920020E1F791
:1052B000089540D008F481E00895E89409C097FB70
:1052C0003EF490958095709561957F4F8F4F9F4FDD
:1052D0009923A9F0F92F96E9BB279395F695879521
:1052E00077956795B795F111F8CFFAF4BB0F11F4E4
:1052F00060FF1BC06F5F7F4F8F4F9F4F16C088238B
:1053000011F096E911C0772321F09EE8872F762FC0
:1053100005C0662371F096E8862F70E060E02AF001
:105320009A95660F771F881FDAF7880F96958795ED
:1053300097F90895990F0008550FAA0BE0E8FEEFC2
:1053400016161706E807F907C0F012161306E40749
:10535000F50798F0621B730B840B950B39F40A2642
:1053600061F0232B242B252B21F408950A2609F420
:10537000A140A6958FEF811D811D08950BD078C0A7
:1053800069D028F06ED018F0952309F05AC05FC09C
:105390001124A2C07ED0A0F3959FD1F3950F50E0C9
:1053A000551F629FF001729FBB27F00DB11D639FD7
:1053B000AA27F00DB11DAA1F649F6627B00DA11D7D
:1053C000661F829F2227B00DA11D621F739FB00D23
:1053D000A11D621F839FA00D611D221F749F332793
:1053E000A00D611D231F849F600D211D822F762F2C
:1053F0006A2F11249F5750408AF0E1F088234AF029
:10540000EE0FFF1FBB1F661F771F881F9150504074
:10541000A9F79E3F510570F014C05EC05F3FECF3EA
:10542000983EDCF3869577956795B795F795E79560
:105430009F5FC1F7FE2B880F911D9695879597F971
:10544000089597F99F6780E870E060E008959FEF06
:1054500080EC089500240A9416161706180609060B
:10546000089500240A9412161306140605060895DA
:10547000092E0394000C11F4882352F0BB0F40F462
:10548000BF2B11F460FF04C06F5F7F4F8F4F9F4FA2
:10549000089557FD9058440F551F59F05F3F71F024
:1054A0004795880F97FB991F61F09F3F79F087958B
:1054B0000895121613061406551FF2CF4695F1DF14
:1054C00008C0161617061806991FF1CF86957105A4
:1054D000610508940895E894BB2766277727CB01D8
:1054E00097F90895F999FECF92BD81BDF89A992751
:1054F00080B50895262FF999FECF1FBA92BD81BDC0
:1055000020BD0FB6F894FA9AF99A0FBE0196089545
:1055100009D0A59F900DB49F900DA49F800D911D63
:1055200011240895A29FB001B39FC001A39F700DE5
:10553000811D1124911DB29F700D811D1124911D9B
:10554000089511E0C3E4D1E000E005C0802FFE0122
:105550007DDB2196011DC434D10780E00807B1F737
:04556000F894FFCFED
:105564009A129A129A129A129A129A129A129A12D7
:1055740001000100FF0100010000001C0A80001B63
:10558400001D001F0021004000200010000800043E
:105594000000000C0000000000AC195419DB117F5E
:1055A400199319F21900000000F0155419456E748E
:1055B400657220746F205374617274203A00202045
:1055C4005374616E646279204D6F646520200072AB
:1055D400756E5F737461747573203D200052756E2F
:1055E40020537461747573203D2000536561717597
:1055F400656E63652073746172742100546F746105
:105604006C204379636C65203D20004379636C65AD
:10561400206E6F20203D20004379636C65204E6F1F
:105624002020203D20200048616C74202100486126
:105634006C7421004D31205265662F504F53204524
:1056440072726F72003C42727573686572204572A3
:10565400726F723E20003C456D707479204D616715
:10566400617A696E653E004D6167617A696E652095
:10567400697320456D7074790053656C656374209B
:105684006F7220456E7465723A00202020556E6C4E
:105694006F6164204D61677A202000556E6C6F61E4
:1056A40064696E6720746865204D6167617A696E0C
:1056B400652E2E2E2E2E00556E6C6F6164696E67FA
:1056C400206D61677A2E2E002E2E6D325F756E6C02
:1056D4006F61645F706F736974696F6E002020205E
:1056E400204C6F6164204D61677A202020004C6F4C
:1056F4006164696E6720746865204D6167617A69C9
:105704006E652E2E2E2E2E004C6F6164696E6720FE
:105714006D61677A2E2E2E2E004849542020454E66
:105724005420746F204C4F414400204C4F4144207E
:10573400204C4556454C203D20002E2E6D325F6C8A
:105744006F61645F706F736974696F6E0053746F17
:1057540070003C53544F5020746F205245534554AD
:105764003E200053746F707065642E2E2E2E2E2EE4
:105774002E2E2E003C2053657276696365204D659C
:105784006E75203E00203C4D616E75616C20204694
:105794006565643E20004D616E75616C20466565EB
:1057A40064696E672E2E003C5365742046656564FB
:1057B4002044656C61793E004849542020454E548C
:1057C40020746F20534156450046454544204465A6
:1057D4006C61792020203D0053657474696E677391
:1057E40020536176656421200053657420507573DD
:1057F4006865722053746570730050555348455260
:105804002053746570733D00536574204D61676166
:105814007A696E6520436170004D6167617A696ED3
:105824006520436170203D004D6F7665205075738F
:105834006865722046574420004D31204D61782020
:10584400506F736974696F6E200050757368657268
:1058540020466F72776172642E2E004D6F7665203C
:1058640050757368657220424B4420004D31204DC1
:10587400696E20506F736974696F6E200050757380
:10588400686572204261636B7761726420004D6FBA
:105894007665204D6167617A696E65465744004DAF
:1058A40032204D617820506F736974696F6E2000E7
:1058B4004D61677A204261636B7761726420004DA9
:1058C40061677A204261636B776172642E2E2E00C9
:1058D4004D6F7665204D6167617A696E65424B4410
:1058E400004D32204D696E20506F736974696F6E7C
:1058F40020005365742046572050757368205370F8
:1059040064200046572050757368205370643D002E
:1059140053657420424B442050757368205370645F
:1059240000424B4420507573685370643D005365C6
:1059340074204672616D652057696474682000465E
:1059440072616D652057696474683D004558495417
:1059540020536572766963654D656E75003C20530E
:10596400657276696365204D6F6465203E005365FA
:105974007276696365204D6F64652E2E2E2E2E007F
:10598400204F5554204F46205345525649434520F5
:105994000053544F50202F20524553455420005457
:1059A4006F2052657374617274202E2E2E2E2E0079
:1059B400203C3C3C2052454C4F4144203E3E3E203E
:1059C40020004D6167617A696E657320456D70745E
:1059D4007921003C3C3C202052454C4F414420203E
:1059E4003E3E3E000D0A00203C3C3C204552524FB6
:1059F40052203E3E3E20200044656661756C742052
:105A04004C6F616465642E2E004175746F5F46654A
:105A140065645F76312E310053797374656D20535C
:105A24007461727465642E2E2E2E2E005374616E72
:105A3400646279204D6F64652E2E2E2E2E00455201
:105A4400524F523A49535220666F72206D325F654D
:105A5400787472656D655F73656E736F72206163D0
:105A64007469766174656421004552524F523A4913
:105A7400535220666F72206D315F65787472656D64
:105A8400655F73656E736F722061637469766174A8
:105A94006564210049535220666F72206D325F683D
:105AA4006F6D655F73656E736F7220616374697681
:105AB40061746564210049535220666F72206D3110
:105AC4005F686F6D655F73656E736F722061637479
:105AD400697661746564210052657365740053547A
