:1000000014C1000085C6000058C600002BC60000C1
:10001000FEC50000D1C50000A4C5000077C50000E2
:100020004AC5000033C1000031C100002FC10000EB
:100030002DC100002BC1000029C1000027C1000014
:1000400025C1000023C1000021C100001FC1000024
:100050001DC100001BC1000019C10000E2C4000066
:1000600015C100000FC40000E4C300000FC1000070
:100070000DC100000BC1000009C1000007C1000054
:1000800005C1000003C1000001C10000FFC0000065
:10009000FDC00000FBC00000F9C00000F7C0000078
:1000A000F5C00000F3C00000F1C00000EFC0000088
:1000B000EDC00000EBC00000E9C00000E7C0000098
:1000C000E5C00000E3C00000E1C00000DFC00000A8
:1000D000DDC00000DBC00000D9C00000D7C00000B8
:1000E000D5C000008402870276027A028002BE0236
:1000F0008B028F02950299029D02A302A702AB0216
:10010000BE02B102B502B90200002100240027009E
:100110002A002D0030003300010100000401070116
:100120000A0100002200250028002B002E003100CB
:10013000340002010000050108010B01000020004D
:100140002300260029002C002F00320000010000AF
:10015000030106010901050505050705080808084A
:10016000020202020A0A080804040404010101014F
:10017000010101010303030303030303040707074A
:100180000C0C0C0C0C0C0C0C0202020206060606EF
:10019000060606060B0B0B0B0B0B0B0B01021020BC
:1001A00020080810204010204080020102010804AD
:1001B0000201010204081020408080402010080441
:1001C000020180040201804020100804020108049A
:1001D00002010102040810204080010204081020DE
:1001E000408000000A0B02090C0D0E0807030401F1
:1001F00000000000000000000000000000000000FF
:1002000000000000000000000000000000001211CB
:1002100010000000000000000000000000000000CE
:1002200000000000000000000B0C11241FBECFEFE7
:10023000D1E2DEBFCDBF00E00CBF13E0A0E0B2E032
:10024000E2E1F1E200E00BBF02C007900D92A63E92
:10025000B107D9F724E0A6EEB3E001C01D92A03BA0
:10026000B207E1F711E0C5E1D1E000E006C0219757
:100270000109802FFE010E94550CC431D10780E096
:100280000807A9F70E9478090C948710B9CECF927D
:10029000DF92EF92FF920F931F93CF93DF936C0146
:1002A0007A018B01C0E0D0E0CE15DF0589F0D801DE
:1002B0006D918D01D601ED91FC910190F081E02DC1
:1002C000C6011995892B11F47E0102C02196ECCF4D
:1002D000C701DF91CF911F910F91FF90EF90DF90B9
:1002E000CF900895FC01918D828D981761F0828DD9
:1002F000DF01A80FB11D5D968C91928D9F5F9F735A
:10030000928F90E008958FEF9FEF0895FC01918DFB
:10031000828D981731F0828DE80FF11D858D90E068
:1003200008958FEF9FEF0895FC01918D228D892F05
:1003300090E0805C9F4F821B91098F7399270895ED
:1003400087EF93E0F1DF21E0892B09F420E0822F91
:100350000895FC01848DDF01A80FB11DA35ABF4F82
:100360002C91848D90E001968F739927848FA689B4
:10037000B7892C93A089B1898C9180648C93938DDB
:10038000848D981306C00288F389E02D80818F7DCB
:1003900080830895EF92FF920F931F93CF93DF9383
:1003A000EC0181E0888F9B8D8C8D981305C0E889C6
:1003B000F989808185FD23C0F62E0B8D10E00F5F3B
:1003C0001F4F0F731127E02E8C8DE8120BC00FB654
:1003D00007FCFACFE889F989808185FFF5CFCE0146
:1003E000B8DFF2CF8B8DFE01E80FF11DE35AFF4F0E
:1003F000F0820B8FEA89FB898081806207C0EE89D9
:10040000FF896083E889F98980818064808381E045
:1004100090E0DF91CF911F910F91FF90EF900895A1
:10042000CF93DF93EC01888D8823C1F0EA89FB89A3
:10043000808185FD05C0A889B9898C9186FD0EC093
:100440000FB607FCF5CF808185FFF2CFA889B98967
:100450008C9185FFEDCFCE017CDFE8CFDF91CF918E
:10046000089580E090E0892B19F06ADF811125C0A2
:1004700080E090E0892B41F080E090E0892B21F032
:100480000E94000081111CC080E090E0892B41F0A7
:1004900080E090E0892B21F00E940000811113C0C0
:1004A00080E090E0892BA1F080E090E0892B81F042
:1004B0000E94000081110AC008950E940000D8CF58
:1004C0000E940000E1CF0E940000EACF0C940000DF
:1004D000089590E0FC013197E231F10508F04EC03B
:1004E0008827EE58FF4F8F4F0C94550C8091800059
:1004F0008F7703C0809180008F7D80938000089566
:1005000080918000877FF9CF84B58F7702C084B552
:100510008F7D84BD08958091B0008F7703C0809156
:10052000B0008F7D8093B0000895809190008F7708
:1005300007C0809190008F7D03C080919000877FDD
:100540008093900008958091A0008F7707C08091DC
:10055000A0008F7D03C08091A000877F8093A000C2
:100560000895809120018F7707C0809120018F7DB1
:1005700003C080912001877F809320010895CF934D
:10058000DF93282F30E0F901EE51FE4F8491F901FD
:10059000E456FE4FD491F901EA5AFE4FC491CC23A0
:1005A00089F0811196DFEC2FF0E0EE0FFF1FE45C85
:1005B000FE4FA591B491EC91ED2381E090E021F400
:1005C00080E002C080E090E0DF91CF9108953FB7D6
:1005D000F8948091EB039091EC03A091ED03B0911E
:1005E000EE0326B5A89B05C02F3F19F00196A11D6B
:1005F000B11D3FBFBA2FA92F982F8827820F911DB9
:10060000A11DB11DBC01CD0142E0660F771F881FFF
:10061000991F4A95D1F708958F929F92AF92BF92FA
:10062000CF92DF92EF92FF926B017C01D0DF4B0102
:100630005C01C114D104E104F104E9F0C8DFDC017C
:10064000CB0188199909AA09BB09883E9340A105E5
:10065000B10578F321E0C21AD108E108F10888EE6B
:10066000880E83E0981EA11CB11CC114D104E104C2
:10067000F10421F7DECFFF90EF90DF90CF90BF9095
:10068000AF909F908F90089508950E940D0FEF9264
:10069000FF920F931F93CF93DF93EC01198218827F
:1006A0001B821A821D821C8261157105A9F17B01D2
:1006B000FB0101900020E9F731978F01061B170B12
:1006C000B8016F5F7F4F80E090E00E94290E009795
:1006D00059F0998388831B830A832C813D81232BC6
:1006E00081F4FC0110820DC088819981009711F07E
:1006F0000E94910D198218821D821C821B821A820F
:100700000BC01D830C83B701DF91CF911F910F9117
:10071000FF90EF900C941A0FDF91CF911F910F91E2
:10072000FF90EF9008956115710579F0FB0101903C
:100730000020E9F73197AF01461B570BDC01ED9123
:10074000FC910280F381E02D199480E090E00895FF
:100750004F925F926F927F92EF92FF920F931F934F
:10076000CF93DF93CDB7DEB7A1970FB6F894DEBF76
:100770000FBECDBF7C01FA01CB0119A2223008F4D3
:100780002AE08E010F5D1F4F422E512C612C712CDF
:10079000BF01A30192010E945610F901CA01015044
:1007A00011096A3014F4605D01C0695CD8016C9372
:1007B000232B242B252B61F7B801C701B4DFA196A9
:1007C0000FB6F894DEBF0FBECDBFDF91CF911F9162
:1007D0000F91FF90EF907F906F905F904F900895F2
:1007E000CF92DF92EF92FF920F931F93CF93DF93FD
:1007F000EC016A017B01E881F9810190F081E02D33
:100800006DE219958C0144275527BA014C195D09F1
:100810006E097F092AE0CE019BDF800F911FDF91D7
:10082000CF911F910F91FF90EF90DF90CF9008959F
:100830007ACF1F920F920FB60F9211240BB60F9220
:100840002F933F934F935F936F937F938F939F93D8
:10085000AF93BF93EF93FF9387EF93E07ADDFF9120
:10086000EF91BF91AF919F918F917F916F915F9128
:100870004F913F912F910F900BBE0F900FBE0F9095
:100880001F9018951F920F920FB60F9211240BB65E
:100890000F922F938F939F93EF93FF93E091070411
:1008A000F09108048081E0910D04F0910E0482FD26
:1008B00012C09081809110048F5F8F73209111047A
:1008C000821751F0E0911004F0E0E950FC4F958F51
:1008D0008093100401C08081FF91EF919F918F91CF
:1008E0002F910F900BBE0F900FBE0F901F90189579
:1008F0001F93CF93DF93282F30E0F901EE51FE4F85
:100900008491F901E456FE4FD491F901EA5AFE4F61
:10091000C491CC23C1F0162F8111DBDDEC2FF0E068
:10092000EE0FFF1FEE5DFE4FA591B4918FB7F894C7
:10093000111105C09C91ED2FE095E92302C0EC91C7
:10094000ED2BEC938FBFDF91CF911F910895CF9343
:10095000DF93EC0160E08E81CBDF61E08E81C8DF48
:1009600060E08E81C5DF8BE891E00197F1F7DF91C0
:10097000CF910895CF93DF9383E001DEEC0162E332
:1009800070E080E090E048DE219761F488E392E037
:100990004CD31092F4031092F30361E087E0DF91EF
:1009A000CF91A6CFDF91CF910895CF93DF9390E0C1
:1009B000FC01E456FE4F2491FC01EA5AFE4F84915B
:1009C000882361F190E0880F991FFC01E85FFE4FDA
:1009D000C591D491FC01EE5DFE4FA591B4916111DA
:1009E00009C09FB7F8948881209582238883EC9171
:1009F0002E230BC0623061F49FB7F8943881822FA8
:100A0000809583238883EC912E2B2C939FBF06C067
:100A10008FB7F894E8812E2B28838FBFDF91CF9179
:100A200008951F920F920FB60F9211242F933F93A8
:100A30008F939F93AF93BF938091E7039091E803C7
:100A4000A091E903B091EA033091E60323E0230F7C
:100A50002D3720F40196A11DB11D05C026E8230FF6
:100A60000296A11DB11D2093E6038093E7039093A6
:100A7000E803A093E903B093EA038091EB0390911C
:100A8000EC03A091ED03B091EE030196A11DB11D01
:100A90008093EB039093EC03A093ED03B093EE03EC
:100AA000BF91AF919F918F913F912F910F900FBE6A
:100AB0000F901F9018951F920F920FB60F9211244E
:100AC0000BB60F922F933F934F935F936F937F9348
:100AD0008F939F93AF93BF93EF93FF93E0910E0299
:100AE000F0910F021995FF91EF91BF91AF919F91F6
:100AF0008F917F916F915F914F913F912F910F90C7
:100B00000BBE0F900FBE0F901F9018951F920F9263
:100B10000FB60F9211240BB60F922F933F934F9362
:100B20005F936F937F938F939F93AF93BF93EF9355
:100B3000FF93E0910C02F0910D021995FF91EF9156
:100B4000BF91AF919F918F917F916F915F914F91E5
:100B50003F912F910F900BBE0F900FBE0F901F90E3
:100B600018951F920F920FB60F9211240BB60F9289
:100B70002F933F934F935F936F937F938F939F93A5
:100B8000AF93BF93EF93FF93E0910202F0910302C2
:100B90001995FF91EF91BF91AF919F918F917F91A7
:100BA0006F915F914F913F912F910F900BBE0F90DE
:100BB0000FBE0F901F9018951F920F920FB60F92B5
:100BC00011240BB60F922F933F934F935F936F9324
:100BD0007F938F939F93AF93BF93EF93FF93E09196
:100BE0000002F09101021995FF91EF91BF91AF9131
:100BF0009F918F917F916F915F914F913F912F9135
:100C00000F900BBE0F900FBE0F901F9018951F9264
:100C10000F920FB60F9211240BB60F922F933F93A2
:100C20004F935F936F937F938F939F93AF93BF93F4
:100C3000EF93FF93E0910A02F0910B021995FF9157
:100C4000EF91BF91AF919F918F917F916F915F9144
:100C50004F913F912F910F900BBE0F900FBE0F90B1
:100C60001F9018951F920F920FB60F9211240BB67A
:100C70000F922F933F934F935F936F937F938F9335
:100C80009F93AF93BF93EF93FF93E0910802F0918E
:100C900009021995FF91EF91BF91AF919F918F91AB
:100CA0007F916F915F914F913F912F910F900BBE6C
:100CB0000F900FBE0F901F9018951F920F920FB6B6
:100CC0000F9211240BB60F922F933F934F935F9384
:100CD0006F937F938F939F93AF93BF93EF93FF9304
:100CE000E0910602F09107021995FF91EF91BF91F3
:100CF000AF919F918F917F916F915F914F913F91B4
:100D00002F910F900BBE0F900FBE0F901F90189554
:100D10001F920F920FB60F9211240BB60F922F93C2
:100D20003F934F935F936F937F938F939F93AF9373
:100D3000BF93EF93FF93E0910402F09105021995A0
:100D4000FF91EF91BF91AF919F918F917F916F91A3
:100D50005F914F913F912F910F900BBE0F900FBE5F
:100D60000F901F901895CF92DF92EF92FF920F9302
:100D70001F93CF93DF937C016C0187E0C80ED11CD9
:100D8000C0E0D0E0062F10E0B8010C2E02C075952F
:100D900067950A94E2F76170F60181916F01A8DD11
:100DA0002196C430D10581F7C701DF91CF911F9102
:100DB0000F91FF90EF90DF90CF90C9CDCF92DF924F
:100DC000EF92FF920F931F93CF93DF93EC01F62ED8
:100DD000642F8C818DDD8D818F3F11F060E088DD87
:100DE0008F850F2D10E084FF23C06E0187E0C80EB1
:100DF000D11CE12CF12CB8010E2C02C07595679521
:100E00000A94E2F76170F60181916F0171DDFFEFE5
:100E1000EF1AFF0A88E0E816F10469F7CE01DF91C6
:100E2000CF911F910F91FF90EF90DF90CF908FCDDA
:100E3000B80184E0759567958A95E1F7CE0193DF57
:100E40006F2DCE01DF91CF911F910F91FF90EF9009
:100E5000DF90CF9088CF41E0B1DF81E090E008954E
:100E600040E0ACCF20E030E04BEC57E08217930736
:100E700034F0FA013197F1F72F5F3F4FF7CF089524
:100E8000CF92DF92EF92FF92CF93DF93C82F6A0148
:100E90007B016EE372E087EF93E0CADCC701B60125
:100EA000E9D06C2F8BE124DD20E030E048E454E40D
:100EB000C701B6010E94860F6B017C01C0E0D0E043
:100EC000BE010D2E000C880B990BC1D7A70196010E
:100ED000B8D7181694F061E08DE10ADD8091F50332
:100EE0009091F603BFDF60E08DE102DD8091F503B4
:100EF0009091F603B7DF2196E3CFDF91CF91FF907A
:100F0000EF90DF90CF900895EF92FF920F931F9391
:100F1000CF93DF93EC01623018F08F8588608F8764
:100F20006B8B1C8A80E48D8B80E18E8B80E58F8BB0
:100F300061E08C813ADD8D818F3F11F061E035DD1C
:100F400061E08E8132DD7E0187E0E80EF11C00E079
:100F500010E08F8584FD03C084E090E002C088E04B
:100F600090E00817190744F461E0F70181917F01CF
:100F70001CDD0F5F1F4FEDCF8BE39DE00197F1F775
:100F800060E08C81B5DC60E08E81B2DC8D818F3FCA
:100F900011F060E0ADDC6F8564FD19C063E0CE0147
:100FA000E2DE0BE416E4C8010197F1F763E0CE013D
:100FB000DADEC8010197F1F763E0CE01D4DE83E504
:100FC00092E00197F1F762E0CE01CDDE13C06062DE
:100FD000CE0146DF8BE496E40197F1F76F856062FE
:100FE000CE013EDF83E592E00197F1F76F85606205
:100FF000CE0136DF6F856062CE0132DF84E0888B00
:101000006CE0CE012DDF61E0CE012ADF8BE39FE1B2
:101010000197F1F782E0898B66E0CE01DF91CF91F5
:101020001F910F91FF90EF901BCFCF93DF93BC01E7
:1010300087EF93E078DBEC0169EC73E087EF93E0F6
:1010400072DB8C0F9D1FDF91CF910895643008F003
:1010500063E09091A704691710F06FEF690FE62F16
:10106000F0E0EC56FB4F9489682F690F606884E9C3
:1010700094E0F6CE4F925F926F927F928F929F9202
:10108000AF92BF92CF92DF92EF92FF926B017C0101
:101090009B01AC01ADD4882319F06CEC73E018C04F
:1010A00046015701E894B7F82FEF3FEF4FE75FE7AE
:1010B000C501B4019DD4811110C02FEF3FEF4FE760
:1010C0005FE7C501B401BDD618163CF460ED73E0CE
:1010D00087EF93E028DB7C0180C02FEF3FEF4FE7E5
:1010E0005FE4C701B60180D418161CF464ED73E008
:1010F000EFCF2FEF3FEF4FE75FECC701B601A1D66F
:1011000087FDF4CF20E030E0A901C701B60199D6F0
:1011100087FF11C0E091F703F091F8030190F0818F
:10112000E02D6DE287EF93E019955C01F7FAF094FA
:10113000F7F8F09402C0A12CB12C2AE037ED43EA75
:101140005BE3C701B601C0D32B013C0121D46B0185
:101150007C017BD69B01AC01C301B201B4D32B014E
:101160003C012AE0B701A60187EF93E0F1DA7C01A8
:10117000EA0CFB1C67E773E087EF93E0D4DAE80E34
:10118000F91E20E030E040E251E4C301B201BED6D6
:101190002B013C01FDD34B01A12CB12C2AE0B50160
:1011A000A40187EF93E0D4DAE80EF91EC501B4017B
:1011B0004CD69B01AC01C301B20185D320E030E0E5
:1011C00040E251E4A3D6E4D3AB0160E070E02AE052
:1011D00087EF93E0BDDAE80EF91E69EC73E087EF64
:1011E00093E0A1DA8E0D9F1DFF90EF90DF90CF90DE
:1011F000BF90AF909F908F907F906F905F904F9037
:1012000008950F931F93CF93DF93C82F68ED73E07A
:1012100087EF93E00DDB60E070E080E89FE32ADF7A
:101220006C2F89E065DBC0E0D0E0C13283E0D807F5
:1012300081F061E088E05CDB0091F5031091F6033A
:10124000C80110DE60E088E053DBC8010BDE2196A8
:10125000ECCFDF91CF911F910F910895FC01448154
:1012600055816081718184E994E011C8CF93DF9347
:10127000AC01990F660B770B77FF04C087EF93E003
:10128000AFDA04C02AE087EF93E062DAEC0169ECA0
:1012900073E087EF93E047DA8C0F9D1FDF91CF91CA
:1012A0000895EF92FF920F931F93CF93C82F8B0156
:1012B0007A01682F80E0CADEC801D0DF6C2F8DE094
:1012C000C5DEA701FF0C660B770B77FF08C084E92A
:1012D00094E0CF911F910F91FF90EF9081CA2AE087
:1012E00084E994E0CF911F910F91FF90EF9030CA65
:1012F000CF93DF9300D000D0CDB7DEB7789484B51C
:10130000826084BD84B5816084BD85B5826085BD01
:1013100085B5816085BD80916E00816080936E008F
:101320001092810080918100826080938100809181
:101330008100816080938100809180008160809332
:1013400080008091B10084608093B1008091B000F2
:1013500081608093B00080919100826080939100C1
:1013600080919100816080939100809190008160D4
:10137000809390008091A10082608093A100809171
:10138000A10081608093A1008091A0008160809382
:10139000A000809121018260809321018091210130
:1013A00081608093210180912001816080932001E0
:1013B00080917A00846080937A0080917A008260C4
:1013C00080937A0080917A00816080937A00809186
:1013D0007A00806880937A001092C10060E087E014
:1013E00087DA61E08DE0E1DA61E087E0DEDA60E093
:1013F00082E0DBDA60E083E0D8DA60E082E1D5DA2F
:1014000060E083E1D2DA8AEB94E090930302809368
:10141000020280916A00837F846080936A00ED9A63
:1014200060E08DE065DA61E088E0BFDA61E089E0E4
:10143000BCDA60E088E05CDA60E089E059DA61E01B
:101440008DE1B3DA61E08BE1B0DA60E08DE150DA92
:1014500060E08BE14DDAE0910704F091080482E04E
:101460008083E0910304F09104041082E09105046C
:10147000F09106048FEC808310920F04E0910B042E
:10148000F0910C0486E08083E0910904F0910A0455
:10149000808180618083E0910904F0910A04808159
:1014A00088608083E0910904F0910A04808180685B
:1014B0008083E0910904F0910A0480818F7D80830C
:1014C00062E084E994E020DD60E081E0BFDD6CE46F
:1014D00072E084E994E0ACD98BE3C82E8FE1D82E7A
:1014E000EE24E394F12C20E4722E88248A9433E0D5
:1014F000932EA12CB12C61E080E0A8DD6CE572E0B8
:1015000084E994E095D982E03AD88C0165E070E0F6
:1015100080E090E081D80130110531F48BE692E053
:1015200084DD81E090E010C083E029D88C0161E087
:1015300070E080E090E070D80130110519F08BE088
:1015400090E002C080E090E09093F4038093F30376
:101550008091F3039091F4038130910509F04BC120
:1015600061E08DE0C5D962E872E087EF93E060D971
:101570008091F3039091F40379DE61E084E994E0D3
:101580006FDCC6010197F1F70091F3031091F403AA
:1015900060E972E0CE0101967AD8A801BE016F5FC2
:1015A0007F4F80E090E07DDE89819A81BAD283E12D
:1015B0000E94BF029093F2038093F103892B09F0FC
:1015C00046C06AE070E080E090E026D86EE972E004
:1015D00087EF93E02DD98091F1039091F20346DEDD
:1015E0008091F1039091F203892B71F580EB92E0E9
:1015F0001CDD61ED72E0CE01019649D861E080E02A
:1016000025DDCE0101962ADE89819A818AD2F09267
:10161000F603E092F50340E050E060E87FE380E00D
:1016200090E02EDC61EE72E087EF93E001D98091CB
:10163000F1039091F2031ADE83E10E94BF029093BE
:10164000F2038093F103CCCF83EF92E0EEDC82E1F2
:101650000E94BF029093F0038093EF03892B09F05F
:1016600044C06AE070E080E090E00E940C036CE00F
:1016700073E087EF93E0DCD88091EF039091F00363
:10168000F5DD8091EF039091F003892B59F58EE100
:1016900093E0CBDC6FE373E0CE0101960E94470339
:1016A00061E080E0D3DCCE010196D8DD89819A81AA
:1016B00038D2F092F603E092F50380E090E0A1DDED
:1016C0006EE473E087EF93E0B3D88091EF039091DD
:1016D000F003CCDD82E10E94BF029093F00380937F
:1016E000EF03CFCF80E693E0A0DC68EE73E080E00C
:1016F00090E00E940C0389E793E097DC6AE873E0CE
:1017000087EF93E095D885E090E0B0DD00E010E051
:1017100069E973E087EF93E08BD80F5F1F4FC80133
:10172000A5DD66EA73E0CE0101960E944703A80199
:10173000BE016F5F7F4F81E090E0B3DD89819A81C8
:10174000F0D1F092F603E092F50381E090E059DDEC
:1017500068EE73E080E090E00E940C0380E090E08F
:1017600050DD68EE73E080E090E00E940C0340E002
:1017700050E060E070E481E090E082DB80917B00EB
:10178000877F80937B0070927C0080917A008064D8
:1017900080937A0080917A0086FDFCCFA09178003A
:1017A00080917900B0E0B82B24E630E086D0A50126
:1017B000940160D4CA01B9010E940C0305301105DF
:1017C00009F0A6CF1092F4031092F30360E972E0DF
:1017D000CE0101960E94470340E050E0BE016F5FDA
:1017E0007F4F80E090E05DDD89819A819AD185EB21
:1017F00093E01BDCADCE892B59F460E08DE078D806
:1018000062E872E087EF93E013D884EC93E00DDC9C
:101810000E94310270CEE7EFF3E01382128288EE6D
:1018200093E0A0E0B0E084839583A683B78384E24D
:1018300092E09183808385EC90E09587848784ECA7
:1018400090E09787868780EC90E0918B808B81EC8D
:1018500090E0938B828B82EC90E0958B848B86EC6E
:1018600090E0978B868B118E128E138E148EE4E986
:10187000F4E01382128284E392E0918380838AE20F
:1018800084838FEF85838CE2868384E3878382E37E
:10189000808780E381878EE282871386148615868F
:1018A0001686178661E0CF012FCBEE0FFF1F881F32
:1018B0008BBF0790F691E02D19941AD4B7FF0895C5
:1018C000821B930B08955058BB27AA270ED098C3AC
:1018D00089D330F08ED320F031F49F3F11F41EF401
:1018E0007EC30EF4E095E7FB74C3E92F9AD380F32F
:1018F000BA17620773078407950718F071F49EF50D
:10190000B2C30EF4E0950B2EBA2FA02D0B01B90136
:1019100090010C01CA01A0011124FF27591B99F065
:10192000593F50F4503E68F11A16F040A22F232F71
:10193000342F4427585FF3CF469537952795A795C1
:10194000F0405395C9F77EF41F16BA0B620B730B68
:10195000840BBAF09150A1F0FF0FBB1F661F771FD9
:10196000881FC2F70EC0BA0F621F731F841F48F48E
:10197000879577956795B795F7959E3F08F0B3CF14
:101980009395880F08F09927EE0F979587950895FE
:1019900050D388F09F5790F0B92F9927B751A0F0F6
:1019A000D1F0660F771F881F991F1AF0BA95C9F7F3
:1019B00012C0B13081F057D3B1E0089554C3672FFE
:1019C000782F8827B85F39F0B93FCCF386957795A3
:1019D0006795B395D9F73EF490958095709561958C
:1019E0007F4F8F4F9F4F08956DD208F48FEF08956A
:1019F00069D2880B990B0895CF93DF9382309105BC
:101A000010F482E090E0E091AE04F091AF0420E0A9
:101A100030E0C0E0D0E0309711F1408151814817AB
:101A20005907C0F04817590761F4828193812097C4
:101A300019F09B838A832BC09093AF048093AE04EC
:101A400026C02115310519F04217530718F49A01E1
:101A5000BE01DF01EF010280F381E02DDCCF211513
:101A6000310509F1281B390B2430310590F4129609
:101A70008D919C9113976115710521F0FB01938362
:101A8000828304C09093AF048093AE04FD0132962C
:101A900044C0FD01E20FF31F81939193225031095D
:101AA0002D933C933AC02091AC043091AD04232B8C
:101AB00041F420911202309113023093AD0420932F
:101AC000AC0420911002309111022115310541F42E
:101AD0002DB73EB74091140250911502241B350BCF
:101AE000E091AC04F091AD04E217F307A0F42E1BD3
:101AF0003F0B2817390778F0AC014E5F5F4F241772
:101B0000350748F04E0F5F1F5093AD044093AC046F
:101B10008193919302C0E0E0F0E0CF01DF91CF919B
:101B200008950F931F93CF93DF93009709F48CC010
:101B3000FC013297138212820091AE041091AF041F
:101B40000115110581F420813181820F931F2091AD
:101B5000AC043091AD042817390779F5F093AD0442
:101B6000E093AC0471C0D80140E050E0AE17BF076D
:101B700050F412962D913C911397AD01211531052A
:101B800009F1D901F3CF9D01DA013383228360810A
:101B90007181860F971F8217930769F4EC012881E2
:101BA0003981260F371F2E5F3F4F318320838A8173
:101BB0009B8193838283452B29F4F093AF04E093B8
:101BC000AE0442C01396FC93EE931297ED01499137
:101BD00059919E01240F351FE217F30771F480819C
:101BE0009181840F951F029611969C938E9382810A
:101BF000938113969C938E931297E0E0F0E0D801C6
:101C000012968D919C911397009719F0F8018C0111
:101C1000F6CF8D919C9198012E5F3F4F820F931FBD
:101C20002091AC043091AD042817390769F430973E
:101C300029F41092AF041092AE0402C013821282F3
:101C40001093AD040093AC04DF91CF911F910F91DD
:101C500008956F927F928F929F92AF92BF92CF9290
:101C6000DF92EF92FF920F931F93CF93DF93EC01DC
:101C7000009781F4CB01DF91CF911F910F91FF90DD
:101C8000EF90DF90CF90BF90AF909F908F907F901C
:101C90006F90B2CEFC01E60FF71F9C012250310974
:101CA000E217F30708F4A8C0D9010D911C91119710
:101CB00006171707A8F00530110508F49BC0C801E6
:101CC00004978617970708F495C002501109061B60
:101CD000170B019311936D937C93CF0122DF8AC080
:101CE0005B01A01AB10A4C01800E911EA091AE04B6
:101CF000B091AF0440E050E0E12CF12C109709F4D2
:101D00004AC0A815B905D1F56D907C901197630173
:101D100082E0C80ED11CCA14DB0480F1A3014A1969
:101D20005B096A0182E0C80ED11C1296BC90129722
:101D30001396AC91B5E0CB16D10440F0B282A383E8
:101D400051834083D9016D937C930AC00E5F1F4F6E
:101D5000C301800F911FF90191838083EB2DFA2F2E
:101D6000E114F10431F0D7011396FC93EE9312972E
:101D700041C0F093AF04E093AE043CC08D919C91C0
:101D800011974817590708F4AC017D0112960D9080
:101D9000BC91A02DB3CF8091AC049091AD04881577
:101DA0009905E1F446175707C8F480911002909105
:101DB0001102009741F48DB79EB7409114025091E3
:101DC0001502841B950BE817F907B0F4F093AD04E6
:101DD000E093AC04F901718360830CC0CB010CDE8D
:101DE0007C01009749F0A801BE011BD0CE0199DE0D
:101DF000C70104C0CE0102C080E090E0DF91CF9126
:101E00001F910F91FF90EF90DF90CF90BF90AF9018
:101E10009F908F907F906F90089581E090E0F8946C
:101E200076C1FB01DC0102C001900D92415050408F
:101E3000D8F70895FB01DC0101900D920020E1F735
:101E4000089540D008F481E00895E89409C097FB14
:101E50003EF490958095709561957F4F8F4F9F4F81
:101E60009923A9F0F92F96E9BB279395F6958795C5
:101E700077956795B795F111F8CFFAF4BB0F11F488
:101E800060FF1BC06F5F7F4F8F4F9F4F16C088232F
:101E900011F096E911C0772321F09EE8872F762F65
:101EA00005C0662371F096E8862F70E060E02AF0A6
:101EB0009A95660F771F881FDAF7880F9695879592
:101EC00097F90895990F0008550FAA0BE0E8FEEF67
:101ED00016161706E807F907C0F012161306E407EE
:101EE000F50798F0621B730B840B950B39F40A26E7
:101EF00061F0232B242B252B21F408950A2609F4C5
:101F0000A140A6958FEF811D811D08950BD078C04B
:101F100069D028F06ED018F0952309F05AC05FC040
:101F20001124A2C07ED0A0F3959FD1F3950F50E06D
:101F3000551F629FF001729FBB27F00DB11D639F7B
:101F4000AA27F00DB11DAA1F649F6627B00DA11D21
:101F5000661F829F2227B00DA11D621F739FB00DC7
:101F6000A11D621F839FA00D611D221F749F332737
:101F7000A00D611D231F849F600D211D822F762FD0
:101F80006A2F11249F5750408AF0E1F088234AF0CD
:101F9000EE0FFF1FBB1F661F771F881F9150504019
:101FA000A9F79E3F510570F014C05EC05F3FECF38F
:101FB000983EDCF3869577956795B795F795E79505
:101FC0009F5FC1F7FE2B880F911D9695879597F916
:101FD000089597F99F6780E870E060E008959FEFAB
:101FE00080EC089500240A941616170618060906B0
:101FF000089500240A94121613061406050608957F
:10200000092E0394000C11F4882352F0BB0F40F406
:10201000BF2B11F460FF04C06F5F7F4F8F4F9F4F46
:10202000089557FD9058440F551F59F05F3F71F0C8
:102030004795880F97FB991F61F09F3F79F087952F
:102040000895121613061406551FF2CF4695F1DFB8
:1020500008C0161617061806991FF1CF8695710548
:10206000610508940895E894BB2766277727CB017C
:1020700097F90895052E97FB16F400940FD057FD9D
:1020800005D014D007FC02D046F408C05095409506
:10209000309521953F4F4F4F5F4F08959095809514
:1020A000709561957F4F8F4F9F4F0895A1E21A2E33
:1020B000AA1BBB1BFD010DC0AA1FBB1FEE1FFF1FEC
:1020C000A217B307E407F50720F0A21BB30BE40B3C
:1020D000F50B661F771F881F991F1A9469F7609583
:1020E0007095809590959B01AC01BD01CF0108953D
:1020F000A29FB001B39FC001A39F700D811D112449
:10210000911DB29F700D811D1124911D0895F894A9
:02211000FFCFFF
:102112004403440344034403440344034403440385
:102122000000B00480000100000020030800090044
:1021320000000000CA0147019401720186011002E9
:10214200000000002B074701526573657400526559
:1021520076735F6D325F6377203D20004D6F746F41
:10216200725F4374726C5F76312E3100202053749B
:10217200616E646279204D6F64650053746172749C
:1021820020427574746F6E20416374697661746560
:10219200640072756E5F737461747573203D200004
:1021A20052756E20537461747573203D20006D3238
:1021B2005F686F6D655F737461747573203D200095
:1021C20053657474696E67206D3220746F20686F76
:1021D2006D6520706F736974696F6E2E2E2E2E2EB0
:1021E20000536574204D3220746F20686F6D652036
:1021F200006D325F686F6D655F73656E736F72201D
:102202003D20006D3220696E20686F6D6520706F11
:10221200736974696F6E2E2E2E2E2E006D315F68DB
:102222006F6D655F737461747573203D2000536533
:102232007474696E67206D3120746F20686F6D65EC
:1022420020706F736974696F6E2E2E2E2E2E0053BE
:102252006574204D3120746F20686F6D65006D319B
:102262005F686F6D655F73656E736F72203D2000EE
:102272006D3120696E20686F6D6520706F736974AF
:10228200696F6E2E2E2E2E2E005365617175656E4E
:1022920063652073746172742100546F74616C20E1
:1022A2004379636C65203D20004379636C65206E41
:1022B2006F20203D20004379636C65204E6F202003
:1022C200203D2020005365617175656E6365206550
:1022D2006E64210053746F70000D0A006E616E000F
:1022E200696E66006F766600526576735F6D315F68
:0622F2006377203D20008F
:020000023000CC
:10E000000D9489F10D94B2F10D94B2F10D94B2F129
:10E010000D94B2F10D94B2F10D94B2F10D94B2F1F0
:10E020000D94B2F10D94B2F10D94B2F10D94B2F1E0
:10E030000D94B2F10D94B2F10D94B2F10D94B2F1D0
:10E040000D94B2F10D94B2F10D94B2F10D94B2F1C0
:10E050000D94B2F10D94B2F10D94B2F10D94B2F1B0
:10E060000D94B2F10D94B2F10D94B2F10D94B2F1A0
:10E070000D94B2F10D94B2F10D94B2F10D94B2F190
:10E080000D94B2F10D94B2F10D94B2F10D94B2F180
:10E090000D94B2F10D94B2F10D94B2F10D94B2F170
:10E0A0000D94B2F10D94B2F10D94B2F10D94B2F160
:10E0B0000D94B2F10D94B2F10D94B2F10D94B2F150
:10E0C0000D94B2F10D94B2F10D94B2F10D94B2F140
:10E0D0000D94B2F10D94B2F10D94B2F10D94B2F130
:10E0E0000D94B2F141546D656761323536300041AF
:10E0F000726475696E6F206578706C6F72657220DE
:10E1000073746B3530305632206279204D4C530099
:10E11000426F6F746C6F616465723E004875683F52
:10E1200000436F6D70696C6564206F6E203D200048
:10E130004350552054797065202020203D20005FF9
:10E140005F4156525F415243485F5F3D2000415658
:10E1500052204C696243205665723D20004743437C
:10E160002056657273696F6E203D20004350552024
:10E1700049442020202020203D20004C6F7720663D
:10E18000757365202020203D20004869676820665F
:10E190007573652020203D200045787420667573D6
:10E1A00065202020203D20004C6F636B2066757336
:10E1B000652020203D20004D617220203720323024
:10E1C000313300312E362E3800342E332E350056A2
:10E1D00023202020414444522020206F7020636F70
:10E1E00064652020202020696E73747275637469E1
:10E1F0006F6E2061646472202020496E74657272B3
:10E20000757074006E6F20766563746F7200726A49
:10E210006D702020006A6D70200057686174207056
:10E220006F72743A00506F7274206E6F7420737541
:10E2300070706F72746564004D7573742062652030
:10E2400061206C6574746572002000577269747483
:10E25000696E672045450052656164696E672045B7
:10E26000450045452065727220636E743D00504F35
:10E27000525400303D5A65726F2061646472003FF1
:10E280003D43505520737461747300403D454550C3
:10E29000524F4D207465737400423D426C696E6B41
:10E2A000204C454400453D44756D70204545505215
:10E2B0004F4D00463D44756D7020464C415348001B
:10E2C000483D48656C70004C3D4C69737420492F83
:10E2D0004F20506F72747300513D51756974005234
:10E2E0003D44756D702052414D00563D73686F7707
:10E2F00020696E7465727275707420566563746FF0
:10E30000727300593D506F727420626C696E6B00BD
:10E310002A0011241FBECFEFD1E2DEBFCDBF01E046
:10E320000CBF12E0A0E0B2E0EEE1FDEF03E00BBFB6
:10E3300002C007900D92A030B107D9F712E0A0E01B
:10E34000B2E001C01D92AE30B107E1F70F9460F367
:10E350000D948DFE01E20EBF0FEF0DBF11241FBE05
:10E360000D9460F30D9400F020E030E040ED57E0B4
:10E3700005C0FA013197F1F72F5F3F4F2817390792
:10E38000C0F308959C01260F311DC901A0E0B0E043
:10E390002F5F3F4FABBFFC018791882361F08093D3
:10E3A000C6008091C00086FFFCCF8091C0008064D1
:10E3B0008093C000EACF08958DE08093C6008091DD
:10E3C000C00086FFFCCF8091C00080648093C000B5
:10E3D0008AE08093C6008091C00086FFFCCF8091C8
:10E3E000C00080648093C00008950F94C2F10F9420
:10E3F000DCF10895FC019081992359F09093C600B7
:10E400008091C00086FFFCCF8091C0008064809323
:10E41000C0003196992379F70895282F982F929567
:10E420009F70892F805D8A3308F0895F8093C600D2
:10E430008091C00086FFFCCF8091C00080648093F3
:10E44000C000822F8F70982F905D9A3308F0995FEB
:10E450009093C6008091C00086FFFCCF8091C000E1
:10E4600080648093C00008959C01FB01853691056E
:10E470001CF46330710594F0C90164E670E00F94F8
:10E480002EFE605D7F4F6093C6008091C00086FFC6
:10E49000FCCF8091C00080648093C0002B30310598
:10E4A00014F43297B4F0C90164E670E00F942EFEC4
:10E4B0006AE070E00F942EFE605D7F4F6093C600AF
:10E4C0008091C00086FFFCCF8091C0008064809363
:10E4D000C000C9016AE070E00F942EFEC0968093E0
:10E4E000C6008091C00086FFFCCF8091C000806490
:10E4F0008093C00008951F93182F8EE692EE60E07F
:10E500000F94C2F11093C6008091C00086FFFCCF2B
:10E510008091C00080648093C0000F94DCF11F9153
:10E5200008952F923F924F925F926F927F928F92B7
:10E530009F92AF92BF92CF92DF92EF92FF920F9392
:10E540001F93DF93CF93CDB7DEB762970FB6F894E2
:10E55000DEBF0FBECDBF382E622ECA01DB015C01CB
:10E560006D01772420E2222E2E010894411C511CBB
:10E570008BC081E0A81680E0B80681E0C80680E084
:10E58000D80628F0C601AA27BB270F940DF2BB2797
:10E59000AD2D9C2D8B2D0F940DF28A2D0F940DF225
:10E5A0002092C6008091C00086FFFCCF8091C00001
:10E5B00080648093C0009DE29093C6008091C0006B
:10E5C00086FFFCCF8091C00080648093C0002092C1
:10E5D000C6008091C00086FFFCCF8091C00080649F
:10E5E0008093C00019828601750188249924A1E0D6
:10E5F0003A1651F03A1620F0B2E03B1661F409C029
:10E600000BBFF701779007C0C7010F9477FE782EF4
:10E6100002C0F7017080872D0F940DF22092C60082
:10E620008091C00086FFFCCF8091C0008064809301
:10E63000C000872D8052F401EF70F0708F3520F408
:10E64000E40DF51D708204C0E40DF51D8EE280839B
:10E650000894E11CF11C011D111D0894811C911CE2
:10E6600090E18916910409F0C2CF80E190E0A0E02A
:10E67000B0E0A80EB91ECA1EDB1E198AC2010F9493
:10E68000FAF10F94DCF16A94662009F072CF629679
:10E690000FB6F894DEBF0FBECDBFCF91DF911F91B3
:10E6A0000F91FF90EF90DF90CF90BF90AF909F9031
:10E6B0008F907F906F905F904F903F902F90089534
:10E6C0002F923F924F925F926F927F928F929F9282
:10E6D000AF92BF92CF92DF92EF92FF920F931F9370
:10E6E000DF93CF93CDB7DEB7CD53D1400FB6F894BB
:10E6F000DEBF0FBECDBF01E20EBF0FEF0DBF94B75F
:10E70000F894A89514BE80916000886180936000A1
:10E7100010926000789493FF05C0E0910002F091A0
:10E7200001021995279A2F9A8091C00082608093E8
:10E73000C00080E18093C40088E18093C1000000A4
:10E74000EE24FF24870144E0A42EB12CCC24DD2448
:10E7500024C0C5010197F1F70894E11CF11C011DCB
:10E76000111D21E2E2162EE4F20620E0020720E06D
:10E77000120718F031E0C32ED12CC801B70127ECE5
:10E780003BE140E050E00F9441FE611571058105C9
:10E79000910519F485B1805885B98091C00087FD35
:10E7A00003C0C114D104A9F2A6014F5F5F4FC25E3E
:10E7B000DE4F59834883CE51D140C25EDE4F8881FF
:10E7C0009981CE51D140019711F00D9410FEC05D9A
:10E7D000DE4F19821882C053D14060E0C15DDE4F28
:10E7E0001882CF52D14088249924C35DDE4F19820C
:10E7F0001882CD52D140C05EDE4F188219821A8233
:10E800001B82C052D140CE5CDE4F188219821A8220
:10E810001B82C253D140EE24FF2487010BBFF701B6
:10E8200007911691C45CDE4F19830883CC53D14005
:10E830000D940BFEC25EDE4F28813981CE51D1404E
:10E840002130310509F52091C600C25EDE4F1982E4
:10E850001882CE51D14022C02F5F3F4F4F4F5F4FA4
:10E86000213082E138078AE7480780E0580780F0C6
:10E87000C45CDE4FE881F981CC53D140EF5FFF4F9C
:10E8800019F0EE27FF27099420E030E040E050E047
:10E890008091C00087FFE0CF2091C600C35DDE4FAE
:10E8A00048815981CD52D1404F5F5F4FC35DDE4FEC
:10E8B00059834883CD52D140213209F063C64A3092
:10E8C000510508F05FC60894811C911C53E0851621
:10E8D000910409F059C600E010E018C081E280936D
:10E8E000C6008091C00086FFFCCF8091C00080648C
:10E8F0008093C0002F5F3F4F2931310579F70F9486
:10E90000DCF10F5F1F4F0530110519F020E030E0FA
:10E91000E5CF10920A0210920B0210920C02109294
:10E920000D02109206021092070210920802109235
:10E930000902109202021092030210920402109235
:10E9400005028FEE90EE60E00F94F5F180E191EE1C
:10E9500060E00F94C2F18091C00087FFFCCF9091DE
:10E96000C600903608F09F759032B8F09093C600BC
:10E970008091C00086FFFCCF8091C00080648093AE
:10E98000C000A0E2A093C6008091C00086FFFCCF2B
:10E990008091C00080648093C000983409F4D7C18E
:10E9A0009934B8F4923409F459C1933458F490333B
:10E9B00019F1903308F4E3C59F33A1F1903409F0C5
:10E9C000DEC5BDC0953409F470C1963409F0D7C5D1
:10E9D00098C1923509F42BC2933538F49C3409F46C
:10E9E000F5C1913509F0CBC518C2963509F445C279
:10E9F000993509F0C4C567C483E792EE62E00F94CD
:10EA0000F5F110920602109207021092080210927D
:10EA1000090210920A0210920B0210920C0210923C
:10EA20000D0213C18FE792EE62E00F94F5F18FEEC5
:10EA300090EE60E00F94F5F181E291EE60E00F94CA
:10EA4000C2F187EB91EE60E00F94F5F180E391EE77
:10EA500060E00F94C2F184EE90EE60E00F94F5F167
:10EA60008FE391EE60E00F94C2F186E090E061E008
:10EA700070E00F9434F20F94DCF18DE591EE60E0DC
:10EA80000F94C2F189EC91EE60E00F94F5F18EE401
:10EA900091EE60E00F94C2F183EC91EE60E00F9490
:10EAA000F5F18CE691EE60E00F94C2F18EE10F94E7
:10EAB0000DF288E90F940DF281E00F940DF20F949E
:10EAC000DCF18BE791EE60E00F94C2F119E0E0E039
:10EAD000F0E010935700E4918E2F0F940DF20F94F5
:10EAE000DCF18AE891EE60E00F94C2F1E3E0F0E03F
:10EAF00010935700E4918E2F0F940DF20F94DCF1D8
:10EB000089E991EE60E00F94C2F1E2E0F0E0109349
:10EB10005700E4918E2F0F940DF20F94DCF188EAE8
:10EB200091EE60E00F94C2F1E1E0F0E01093570045
:10EB30001491812F0F940DF20F94DCF107CF8BE825
:10EB400092EE62E00F94F5F18BE492EE60E00F94A8
:10EB5000F5F10F94DCF100E010E019C0C8016F2D51
:10EB60000F947FFEFF2031F489E492EE60E00F9471
:10EB7000C2F10BC0F092C6008091C00086FFFCCFAE
:10EB80008091C00080648093C0000F5F1F4FC80158
:10EB900081519F41A0E0B0E0ABBFFC01F790BAE229
:10EBA000FB1621F0E2E000301E07C1F60F94DCF105
:10EBB0000F94DCF187E592EE60E00F94F5F10F948D
:10EBC000DCF1CC24DD2400E010E01EC0C8010F946D
:10EBD00077FEF82E882331F489E492EE60E00F94FA
:10EBE000C2F10BC08093C6008091C00086FFFCCFAD
:10EBF0008091C00080648093C000FE1419F00894D6
:10EC0000C11CD11C0F5F1F4FC80181519F41A0E063
:10EC1000B0E0ABBFFC01E790FAE2EF1621F022E092
:10EC20000030120799F60F94DCF10F94DCF182E6C4
:10EC300092EE60E00F94C2F1C60161E070E00F94C3
:10EC400034F20F94DCF10F94DCF110920202109276
:10EC50000302109204021092050278CE89E992EE26
:10EC600062E00F94F5F1279A2F9A16C02F9880E052
:10EC700090E0E0EDF7E03197F1F7019684369105E9
:10EC8000C1F72F9A80E090E0E0EDF7E03197F1F7DF
:10EC9000019684369105C1F78091C00087FFE6CFC9
:10ECA0008091C00087FFFCCF64C485EA92EE62E0E9
:10ECB0000F94F5F140910202509103026091040219
:10ECC0007091050281E020E10F9491F2809102029F
:10ECD00090910302A0910402B091050280509F4FD1
:10ECE000AF4FBF4F8093020290930302A0930402A0
:10ECF000B093050280509041A040B04008F426CE69
:10ED0000A4CF83EB92EE62E00F94F5F140910602FE
:10ED100050910702609108027091090280E020E1A1
:10ED20000F9491F28091060290910702A09108023F
:10ED3000B091090280509F4FAF4FBF4F80930602A2
:10ED400090930702A0930802B0930902FFCD80ECD4
:10ED500092EE62E00F94F5F183E792EE60E00F949B
:10ED6000F5F18FE792EE60E00F94F5F18BE892EE0B
:10ED700060E00F94F5F189E992EE60E00F94F5F10F
:10ED800085EA92EE60E00F94F5F183EB92EE60E09D
:10ED90000F94F5F180EC92EE60E00F94F5F187ECC2
:10EDA00092EE60E00F94F5F188ED92EE60E00F9442
:10EDB000F5F18FED92EE60E00F94F5F18AEE92EEB0
:10EDC00060E00F94F5F183E093EEBDCD87EC92EE19
:10EDD00062E00F94F5F181E40F947BF282E40F94EA
:10EDE0007BF283E40F947BF284E40F947BF285E45E
:10EDF0000F947BF286E40F947BF287E40F947BF20E
:10EE000088E40F947BF28AE40F947BF28BE40F94F6
:10EE10007BF28CE40F947BF299CD88ED92EE62E068
:10EE20000F94F5F1772473948824992409C48FED05
:10EE300092EE62E00F94F5F140910A0250910B02BC
:10EE400060910C0270910D0282E020E10F9491F22A
:10EE500080910A0290910B02A0910C02B0910D02D8
:10EE600080509F4FAF4FBF4F80930A0290930B0289
:10EE7000A0930C02B0930D0269CD8AEE92EE62E08F
:10EE80000F94F5F184EE90EE60E00F94F5F18FECC5
:10EE900091EE60E00F94F5F1662477244301CC5D98
:10EEA000DE4F19821882C452D140D401C301B695F5
:10EEB000A79597958795CA5DDE4F88839983AA8326
:10EEC000BB83C652D140CC5DDE4FA881B981C4520C
:10EED000D1401196CC5DDE4FB983A883C452D14096
:10EEE000CD0162E070E00F9434F2B0E2B093C6005E
:10EEF0008091C00086FFFCCF8091C0008064809329
:10EF0000C000EDE2E093C6008091C00086FFFCCF18
:10EF10008091C00080648093C000F0E2F093C6004E
:10EF20008091C00086FFFCCF8091C00080648093F8
:10EF3000C000CA5DDE4FE880F9800A811B81C6529D
:10EF4000D140BB27A12F902F8F2D0F940DF2CA5DBA
:10EF5000DE4F8881C652D1400F940DF2B0E2FB2EF5
:10EF6000F092C6008091C00086FFFCCF8091C00067
:10EF700080648093C0000DE30093C6008091C000C0
:10EF800086FFFCCF8091C00080648093C00010E2B7
:10EF90001093C6008091C00086FFFCCF8091C00016
:10EFA00080648093C0008BBEF3012791C65DDE4F65
:10EFB0002883CA52D140A22EBB24CC24DD2408943D
:10EFC000611C711C811C911C8BBEF3018791282E42
:10EFD0003324442455240894611C711C811C911C09
:10EFE0008BBEF3013791C55DDE4F3883CB52D140E4
:10EFF0000894611C711C811C911C8BBEF30147910C
:10F00000C45DDE4F4883CC52D140ADEFEA2EAFEF66
:10F01000FA2EAFEF0A2FAFEF1A2F6E0C7F1C801E57
:10F02000911E142D032DF22CEE24EA0CFB1C0C1D5A
:10F030001D1D0F940DF220E22093C6008091C000A8
:10F0400086FFFCCF8091C00080648093C000C65DC5
:10F05000DE4F8881CA52D1400F940DF230E23093D6
:10F06000C6008091C00086FFFCCF8091C000806404
:10F070008093C000C45DDE4F8881CC52D1400F9494
:10F080000DF240E24093C6008091C00086FFFCCFA5
:10F090008091C00080648093C000C55DDE4F888190
:10F0A000CB52D1400F940DF250E25093C6008091A4
:10F0B000C00086FFFCCF8091C00080648093C000B8
:10F0C0008FEFE8168FEFF80680E0080780E018075A
:10F0D00031F484E092EE60E00F94C2F1DFC0D80119
:10F0E000C7018070907CA070B0708050904CA040A0
:10F0F000B040D1F52FEF3FE340E050E0E222F322B1
:10F1000004231523CA5DDE4FA880B980CA80DB8046
:10F11000C652D140AE0CBF1CC01ED11EAA0CBB1CD7
:10F12000CC1CDD1C8EE092EE60E00F94C2F1BB2798
:10F13000A12F902F8F2D0F940DF28E2D0F940DF285
:10F1400030E23093C6008091C00086FFFCCF8091F2
:10F15000C00080648093C0004EE34093C60080915D
:10F16000C00086FFFCCF87C08EE09EEFA0E0B0E03D
:10F17000E822F9220A231B239CE0E91694E9F90608
:10F1800090E0090790E0190709F088C0C45DDE4FE0
:10F19000A881CC52D140EA2EFF2400E010E0102FCD
:10F1A0000F2DFE2CEE24C55DDE4FB881CB52D14031
:10F1B000EB0EF11C011D111DD601C501817090706F
:10F1C000A070B070DC0199278827E80EF91E0A1F8D
:10F1D0001B1F20EF30E040E050E0A222B322C42207
:10F1E000D52241E1AA0CBB1CCC1CDD1C4A95D1F7F1
:10F1F000EA0CFB1C0C1D1D1D81E090E0A0E0B0E0BE
:10F20000282239224A225B2235E1220C331C441C7D
:10F21000551C3A95D1F7E20CF31C041D151D57013E
:10F220006801AA0CBB1CCC1CDD1C85E192EE60E0E1
:10F230000F94C2F1C801AA27BB270F940DF2BB2778
:10F24000A12F902F8F2D0F940DF28E2D0F940DF274
:10F2500090E29093C6008091C00086FFFCCF809121
:10F26000C00080648093C000AEE3A093C60080918C
:10F27000C00086FFFCCF8091C00080648093C000F6
:10F28000C601AA27BB270F940DF2BB27AD2D9C2DDD
:10F290008B2D0F940DF28A2D0F940DF20F94DCF14B
:10F2A000CC5DDE4FE881F981C452D140F99709F471
:10F2B0004DCBF4E0EF2EF12C012D112D6E0C7F1CA7
:10F2C000801E911EF2CD83E093EE62E00F94F5F183
:10F2D0008AE192EE60E00F94C2F18091C00087FF56
:10F2E000FCCF1091C6001F751093C6008091C0001E
:10F2F00086FFFCCF8091C00080648093C0000F9493
:10F30000DCF1812F81548A3108F036C1163409F4BA
:10F3100095C0173490F4133409F44EC0143430F40B
:10F320001134F1F0123409F01DC130C0143409F465
:10F3300059C0153409F016C16BC01A3409F4C4C0A1
:10F340001B3438F4173409F48FC0183409F00AC19B
:10F35000A1C01B3409F4D2C01C3409F003C1E8C0B9
:10F360008FEF81B90DC082B1809582B980E090E0C5
:10F37000E0EDF7E03197F1F70196883C9105C1F790
:10F380008091C00087FFEFCF12B8EFC08FEF84B934
:10F390000DC085B1809585B980E090E0E0EDF7E0A3
:10F3A0003197F1F70196883C9105C1F78091C00033
:10F3B00087FFEFCF15B8D9C08FEF87B90DC088B1DF
:10F3C000809588B980E090E0E0EDF7E03197F1F7C3
:10F3D0000196883C9105C1F78091C00087FFEFCF6F
:10F3E00018B8C3C08FEF8AB90DC08BB180958BB9A7
:10F3F00080E090E0E0EDF7E03197F1F70196883C8E
:10F400009105C1F78091C00087FFEFCF1BB8ADC059
:10F410008FEF8DB90DC08EB180958EB980E090E0F0
:10F42000E0EDF7E03197F1F70196883C9105C1F7DF
:10F430008091C00087FFEFCF1EB897C08FEF80BBD1
:10F440000DC081B3809581BB80E090E0E0EDF7E0F6
:10F450003197F1F70196883C9105C1F78091C00082
:10F4600087FFEFCF11BA81C08FEF83BB0DC084B38C
:10F47000809584BB80E090E0E0EDF7E03197F1F714
:10F480000196883C9105C1F78091C00087FFEFCFBE
:10F4900014BA6BC08FEF809301010FC080910201FD
:10F4A00080958093020180E090E0E0EDF7E03197F5
:10F4B000F1F70196883C9105C1F78091C00087FF64
:10F4C000EDCF1092020151C08FEF809304010FC065
:10F4D0008091050180958093050180E090E0E0ED4A
:10F4E000F7E03197F1F70196883C9105C1F78091DB
:10F4F000C00087FFEDCF1092050137C08FEF8093DA
:10F5000007010FC08091080180958093080180E079
:10F5100090E0E0EDF7E03197F1F70196883C910536
:10F52000C1F78091C00087FFEDCF109208011DC088
:10F530008FEF80930A010FC080910B01809580931B
:10F540000B0180E090E0E0EDF7E03197F1F70196F4
:10F55000883C9105C1F78091C00087FFEDCF1092E4
:10F560000B0103C085E292EEEEC98091C00087FFD7
:10F57000FCCF8091C600EAC988E392EEE4C98CE131
:10F5800091EEE1C988249924933011F1943028F444
:10F59000913089F09230B8F408C0953061F195301F
:10F5A000F0F0963009F048C043C02B3109F042C951
:10F5B00091E06BE13FC96227C15DDE4F2883CF52E6
:10F5C000D14092E037C9B22FA0E0622793E032C960
:10F5D000822F90E0A82BB92B622794E02BC92E3004
:10F5E00009F039C3622795E0C05DDE4F19821882A9
:10F5F000C053D1401FC9E1E0F0E0EC0FFD1FC05D3A
:10F60000DE4F08811981C053D140E00FF11F2083E4
:10F610000F5F1F4FC05DDE4F19830883C053D14079
:10F6200062270A171B0709F005C9D80196E002C92D
:10F63000261709F010C303C0973009F0FBC87724E0
:10F640009981933109F412C19431C8F4963009F4C8
:10F65000D8C0973050F4923009F406C1933009F4C1
:10F660006DC0913009F059C253C0913109F477C08F
:10F67000923108F0BBC0903109F04FC2F5C098310B
:10F6800009F487C0993150F4953109F4EFC09531F0
:10F6900008F4C6C1963109F040C2C2C19A3109F4DA
:10F6A0006CC09A3108F491C09B3109F45BC09D3164
:10F6B00009F033C29D81903359F48F81882311F46E
:10F6C0009EE11CC0813011F091E018C098E916C08D
:10F6D000892F807591F0903539F4E0E0F0E089E011
:10F6E0008093570094910AC0983539F4E3E0F0E034
:10F6F00089E080935700949101C090E01A821B82A8
:10F700008D818C831D829E831F8227E030E009C299
:10F710001A8288E08B8381E48C8386E58D8382E581
:10F720008E8389E48F8383E5888780E589878FE5E9
:10F730008A8782E38B872BE030E0F3C18A818139AD
:10F7400041F0823941F0803911F48FE005C080E04A
:10F7500003C082E001C08AE01A828B8344C0772410
:10F76000739482C08D81882311F48EE12CC0813086
:10F7700011F081E028C088E926C01A82E1E0F0E0BB
:10F7800089E08093570084918B831C8224E030E0D1
:10F79000C8C18B81803589F48C81883039F4E2E0EE
:10F7A000F0E089E08093570084910DC0E0E0F0E044
:10F7B00089E080935700849106C0E3E0F0E089E09F
:10F7C0008093570084911A82DFCF8D81836C99E0FA
:10F7D000E1E0F0E0082E90935700E89507B600FCB2
:10F7E000FDCF1A821B8223E030E09BC180EC8A832C
:10F7F000CE5CDE4F188219821A821B82C253D1401E
:10F800008EC18A8190E0A0E0B0E0582F44273327D2
:10F8100022278B8190E0A0E0B0E0DC0199278827C7
:10F82000282B392B4A2B5B2B8D8190E0A0E0B0E098
:10F83000282B392B4A2B5B2B8C8190E0A0E0B0E089
:10F84000BA2FA92F982F8827282B392B4A2B5B2BCF
:10F85000220F331F441F551FC05EDE4F288339839C
:10F860004A835B83C052D1401A8259C13A81C95C34
:10F87000DE4F3883C753D140CA5CDE4F1882C6536F
:10F88000D1408B81C82EDD24CA5CDE4F488159816E
:10F89000C653D140C42AD52A933109F082C0CE5C28
:10F8A000DE4F88819981AA81BB81C253D1408050AB
:10F8B000904CA340B04030F583E0CE5CDE4FE88052
:10F8C000F9800A811B81C253D140F70100935B008C
:10F8D00080935700E89507B600FCFDCFCE5CDE4F65
:10F8E000088119812A813B81C253D14000501F4FAA
:10F8F0002F4F3F4FCE5CDE4F088319832A833B8313
:10F90000C253D140C05EDE4F488159816A817B81FC
:10F91000C052D140DE011B9631E08C9111962C91A2
:10F9200011971296C75CDE4F2883C953D140C85C3B
:10F93000DE4F1882C853D14090E0C85CDE4FE881AA
:10F94000F981C853D1408E2B9F2B0C01FA01609393
:10F950005B0030935700E89511244E5F5F4F6F4F67
:10F960007F4F0EEFE02E0FEFF02ECE0CDF1CC114F8
:10F97000D10499F685E0C05EDE4F088119812A81A5
:10F980003B81C052D140F80120935B008093570027
:10F99000E89507B600FCFDCF81E180935700E8951C
:10F9A00035C0C05EDE4F88819981AA81BB81C0527B
:10F9B000D140B695A795979587957C018601ABE0D8
:10F9C000AA2EB12CAC0EBD1E0BC0D5016D915D01F0
:10F9D000C7010F947FFE0894E11CF11C01501040F8
:10F9E0000115110591F7A60160E070E0440F551F65
:10F9F000661F771FC05EDE4FE880F9800A811B8199
:10FA0000C052D1404E0D5F1D601F711F1A82C05E33
:10FA1000DE4F488359836A837B83C052D1407FC0C5
:10FA2000FA80C55CDE4FF882CB53D140C65CDE4F16
:10FA30001882CA53D1408B81C82EDD24C65CDE4FAC
:10FA400008811981CA53D140C02AD12A1A828981DA
:10FA5000BE016D5F7F4F843121F59601C05EDE4FA0
:10FA6000E880F9800A811B81C052D1400BBFF701A9
:10FA700087919691DB018C9311969C936E5F7F4FDB
:10FA8000D801C7010296A11DB11DC05EDE4F88835B
:10FA90009983AA83BB83C052D14022503040F1F6F3
:10FAA00036C0C05EDE4F288139814A815B81C052F9
:10FAB000D1400894C108D108760100E010E0089414
:10FAC000C11CD11C0894E11CF11C011D111DE20E8A
:10FAD000F31E041F151F21BDBB27A52F942F832FB5
:10FAE00082BD2F5F3F4F4F4F5F4FF89A80B5DB01CC
:10FAF0008D93BD012E153F054007510761F7C05E8C
:10FB0000DE4F288339834A835B83C052D1409601FC
:10FB10002D5F3F4FFB01108204C080EC8A8322E0FE
:10FB200030E08BE18093C6008091C00086FFFCCF5F
:10FB30008091C00080648093C000C15DDE4FF88179
:10FB4000CF52D140F093C6008091C00086FFFCCF19
:10FB50008091C00080648093C000432F3093C60022
:10FB60008091C00086FFFCCF8091C00080648093AC
:10FB7000C000922F2093C6008091C00086FFFCCF6A
:10FB80008091C00080648093C0008EE08093C600A6
:10FB90008091C00086FFFCCF8091C000806480937C
:10FBA000C00065E1C15DDE4FE880CF52D1406E25D7
:10FBB00069276427FE01319610C090819093C6009A
:10FBC0008091C00086FFFCCF31968091C000806498
:10FBD0008093C0006927215030402115310569F715
:10FBE0006093C6008091C00086FFFCCF8091C0006A
:10FBF00080648093C00085B1805885B9772081F4F6
:10FC0000C15DDE4F0881CF52D1400F5FC15DDE4F35
:10FC10000883CF52D14090E0A0E0B0E00D941AF4F8
:10FC200027982F9880E090E020ED37E0F901319798
:10FC3000F1F7019684369105C9F700008091C00064
:10FC40008D7F8093C00081E180935700E895EE2777
:10FC5000FF270994FFCF90E00D941AF497FB092E2B
:10FC600007260AD077FD04D02ED006D000201AF443
:10FC7000709561957F4F0895F6F7909581959F4F08
:10FC80000895A1E21A2EAA1BBB1BFD010DC0AA1FDD
:10FC9000BB1FEE1FFF1FA217B307E407F50720F0F5
:10FCA000A21BB30BE40BF50B661F771F881F991F70
:10FCB0001A9469F760957095809590959B01AC01B9
:10FCC000BD01CF010895AA1BBB1B51E107C0AA1FAC
:10FCD000BB1FA617B70710F0A61BB70B881F991FED
:10FCE0005A95A9F780959095BC01CD010895F99991
:10FCF000FECF92BD81BDF89A992780B50895262F31
:10FD0000F999FECF1FBA92BD81BD20BD0FB6F89400
:0EFD1000FA9AF99A0FBE01960895F894FFCF63
:040000033000E000E9
:00000001FF
