:1000000014C100009FC6000072C6000045C6000073
:1000100018C60000EBC50000BEC5000091C5000079
:1000200064C5000032C1000030C100002EC10000D4
:100030002CC100002AC1000028C1000026C1000018
:1000400024C1000022C1000020C100001EC1000028
:100050001CC100001AC1000018C10000FCC400004F
:1000600014C1000044C4000019C400000EC1000007
:100070000CC100000AC1000008C1000006C1000058
:1000800004C1000002C1000000C10000FEC0000069
:10009000FCC00000FAC00000F8C00000F6C000007C
:1000A000F4C00000F2C00000F0C00000EEC000008C
:1000B000ECC00000EAC00000E8C00000E6C000009C
:1000C000E4C00000E2C00000E0C00000DEC00000AC
:1000D000DCC00000DAC00000D8C00000D6C00000BC
:1000E000D4C0000083028602750279027F02BD023D
:1000F0008A028E02940298029C02A202A602AA021E
:10010000BD02B002B402B8020000210024002700A2
:100110002A002D0030003300010100000401070116
:100120000A0100002200250028002B002E003100CB
:10013000340002010000050108010B01000020004D
:100140002300260029002C002F00320000010000AF
:10015000030106010901050505050705080808084A
:10016000020202020A0A080804040404010101014F
:10017000010101010303030303030303040707074A
:100180000C0C0C0C0C0C0C0C0202020206060606EF
:10019000060606060B0B0B0B0B0B0B0B01021020BC
:1001A00020080810204010204080020102010804AD
:1001B0000201010204081020408080402010080441
:1001C000020180040201804020100804020108049A
:1001D00002010102040810204080010204081020DE
:1001E000408000000A0B02090C0D0E0807030401F1
:1001F00000000000000000000000000000000000FF
:1002000000000000000000000000000000001211CB
:1002100010000000000000000000000000000000CE
:100220000000000000000000030B11241FBECFEFF0
:10023000D1E2DEBFCDBF00E00CBF14E0A0E0B2E031
:10024000ECE3FBE100E00BBF02C007900D92AA3186
:10025000B107D9F724E0AAE1B4E001C01D92A43EA1
:10026000B207E1F711E0C5E1D1E000E006C0219757
:100270000109802FFE010E946F0BC431D10780E07D
:100280000807A9F773D70C949C0DBACECF92DF92D2
:10029000EF92FF920F931F93CF93DF936C017A013C
:1002A0008B01C0E0D0E0CE15DF0589F0D8016D915B
:1002B0008D01D601ED91FC910190F081E02DC601F8
:1002C0001995892B11F47E0102C02196ECCFC7014C
:1002D000DF91CF911F910F91FF90EF90DF90CF9022
:1002E0000895FC01918D828D981761F0828DDF0158
:1002F000A80FB11D5D968C91928D9F5F9F73928F19
:1003000090E008958FEF9FEF0895FC01918D828D0D
:10031000981731F0828DE80FF11D858D90E00895DA
:100320008FEF9FEF0895FC01918D228D892F90E032
:10033000805C9F4F821B91098F73992708958BE2F0
:1003400094E0F1DF21E0892B09F420E0822F089569
:10035000FC01848DDF01A80FB11DA35ABF4F2C9162
:10036000848D90E001968F739927848FA689B78931
:100370002C93A089B1898C9180648C93938D848D0A
:10038000981306C00288F389E02D80818F7D8083D9
:100390000895EF92FF920F931F93CF93DF93EC0199
:1003A00081E0888F9B8D8C8D981305C0E889F98931
:1003B000808185FD23C0F62E0B8D10E00F5F1F4F4F
:1003C0000F731127E02E8C8DE8120BC00FB607FCBF
:1003D000FACFE889F989808185FFF5CFCE01B8DFB2
:1003E000F2CF8B8DFE01E80FF11DE35AFF4FF08233
:1003F0000B8FEA89FB898081806207C0EE89FF89C3
:100400006083E889F98980818064808381E090E05D
:10041000DF91CF911F910F91FF90EF900895CF93AF
:10042000DF93EC01888D8823C1F0EA89FB89808104
:1004300085FD05C0A889B9898C9186FD0EC00FB6CF
:1004400007FCF5CF808185FFF2CFA889B9898C910F
:1004500085FFEDCFCE017CDFE8CFDF91CF9108950E
:1004600080E090E0892B19F06ADF811125C080E0DF
:1004700090E0892B41F080E090E0892B21F00E94F0
:10048000000081111CC080E090E0892B41F080E0E9
:1004900090E0892B21F00E940000811113C080E0C0
:1004A00090E0892BA1F080E090E0892B81F00E9400
:1004B000000081110AC008950E940000D8CF0E9458
:1004C0000000E1CF0E940000EACF0C9400000895E4
:1004D00090E0FC013197E231F10508F04EC0882729
:1004E000EE58FF4F8F4F0C946F0B809180008F77E9
:1004F00003C0809180008F7D80938000089580915B
:100500008000877FF9CF84B58F7702C084B58F7D57
:1005100084BD08958091B0008F7703C08091B000B2
:100520008F7D8093B0000895809190008F7707C0F1
:10053000809190008F7D03C080919000877F809391
:10054000900008958091A0008F7707C08091A0004F
:100550008F7D03C08091A000877F8093A0000895C5
:10056000809120018F7707C0809120018F7D03C08B
:1005700080912001877F809320010895CF93DF939E
:10058000282F30E0F901EE51FE4F8491F901E45635
:10059000FE4FD491F901EA5AFE4FC491CC2389F061
:1005A000811196DFEC2FF0E0EE0FFF1FE45CFE4FB1
:1005B000A591B491EC91ED2381E090E021F480E0ED
:1005C00002C080E090E0DF91CF9108953FB7F894AA
:1005D00080911F0490912004A0912104B0912204E5
:1005E00026B5A89B05C02F3F19F00196A11DB11D8E
:1005F0003FBFBA2FA92F982F8827820F911DA11DC9
:10060000B11DBC01CD0142E0660F771F881F991F05
:100610004A95D1F708958F929F92AF92BF92CF9251
:10062000DF92EF92FF926B017C01D0DF4B015C0106
:10063000C114D104E104F104E9F0C8DFDC01CB010D
:1006400088199909AA09BB09883E9340A105B105FB
:1006500078F321E0C21AD108E108F10888EE880E8B
:1006600083E0981EA11CB11CC114D104E104F10463
:1006700021F7DECFFF90EF90DF90CF90BF90AF904B
:100680009F908F900895089584E392E048D481E08C
:1006900090E0909324048093230464E670E080E06B
:1006A00090E0B9CF86E592E03AD481E090E0909373
:1006B00026048093250464E670E080E090E0ABCFF0
:1006C000CF93DF9383E05ADFEC0162E370E080E0D8
:1006D00090E0A1DF219761F488E792E020D41092A6
:1006E000280410922704E0E0F0E0DF91CF91199404
:1006F000DF91CF9108950E94880DEF92FF920F93A2
:100700001F93CF93DF93EC01198218821B821A8208
:100710001D821C8261157105A9F17B01FB0101900D
:100720000020E9F731978F01061B170BB8016F5FA7
:100730007F4F80E090E00E94A40C009759F09983CD
:1007400088831B830A832C813D81232B81F4FC0148
:1007500010820DC088819981009711F00E940C0CC5
:10076000198218821D821C821B821A820BC01D8373
:100770000C83B701DF91CF911F910F91FF90EF9004
:100780000C94950DDF91CF911F910F91FF90EF90F9
:1007900008956115710579F0FB0101900020E9F7DA
:1007A0003197AF01461B570BDC01ED91FC910280A4
:1007B000F381E02D199480E090E008954F925F92CC
:1007C0006F927F92EF92FF920F931F93CF93DF93DD
:1007D000CDB7DEB7A1970FB6F894DEBF0FBECDBF81
:1007E0007C01FA01CB0119A2223008F42AE08E0123
:1007F0000F5D1F4F422E512C612C712CBF01A301A4
:1008000092014BD7F901CA01015011096A3014F461
:10081000605D01C0695CD8016C93232B242B252BD0
:1008200069F7B801C701B5DFA1960FB6F894DEBF2E
:100830000FBECDBFDF91CF911F910F91FF90EF9031
:100840007F906F905F904F900895CF92DF92EF92DC
:10085000FF920F931F93CF93DF93EC016A017B010B
:10086000E881F9810190F081E02D6DE219958C010C
:1008700044275527BA014C195D096E097F092AE002
:10088000CE019CDF800F911FDF91CF911F910F91BF
:10089000FF90EF90DF90CF9008957BCF1F920F9243
:1008A0000FB60F9211240BB60F922F933F934F93D5
:1008B0005F936F937F938F939F93AF93BF93EF93C8
:1008C000FF938BE294E044DDFF91EF91BF91AF91F4
:1008D0009F918F917F916F915F914F913F912F9158
:1008E0000F900BBE0F900FBE0F901F9018951F9288
:1008F0000F920FB60F9211240BB60F922F938F9376
:100900009F93EF93FF93E0913B04F0913C0480812F
:10091000E0914104F091420482FD12C090818091E7
:1009200044048F5F8F7320914504821751F0E0914A
:100930004404F0E0E55DFB4F958F8093440401C0D3
:100940008081FF91EF919F918F912F910F900BBE1E
:100950000F900FBE0F901F9018951F93CF93DF93AA
:10096000282F30E0F901EE51FE4F8491F901E45651
:10097000FE4FD491F901EA5AFE4FC491CC23C1F045
:10098000162F8111A5DDEC2FF0E0EE0FFF1FEE5DBD
:10099000FE4FA591B4918FB7F894111105C09C91A9
:1009A000ED2FE095E92302C0EC91ED2BEC938FBF86
:1009B000DF91CF911F910895CF93DF93EC0160E019
:1009C0008E81CBDF61E08E81C8DF60E08E81C5DF84
:1009D0008BE891E00197F1F7DF91CF910895CF93E4
:1009E000DF9390E0FC01E456FE4F2491FC01EA5AAB
:1009F000FE4F8491882361F190E0880F991FFC01DC
:100A0000E85FFE4FC591D491FC01EE5DFE4FA591CC
:100A1000B491611109C09FB7F89488812095822311
:100A20008883EC912E230BC0623061F49FB7F89459
:100A30003881822F809583238883EC912E2B2C93F1
:100A40009FBF06C08FB7F894E8812E2B28838FBFF5
:100A5000DF91CF9108951F920F920FB60F9211243C
:100A60002F933F938F939F93AF93BF9380911B04DA
:100A700090911C04A0911D04B0911E0430911A04A1
:100A800023E0230F2D3720F40196A11DB11D05C0D1
:100A900026E8230F0296A11DB11D20931A0480930E
:100AA0001B0490931C04A0931D04B0931E0480911A
:100AB0001F0490912004A0912104B091220401967A
:100AC000A11DB11D80931F0490932004A0932104C5
:100AD000B0932204BF91AF919F918F913F912F913D
:100AE0000F900FBE0F901F9018951F920F920FB688
:100AF0000F9211240BB60F922F933F934F935F9356
:100B00006F937F938F939F93AF93BF93EF93FF93D5
:100B1000E0910E02F0910F021995FF91EF91BF91B4
:100B2000AF919F918F917F916F915F914F913F9185
:100B30002F910F900BBE0F900FBE0F901F90189526
:100B40001F920F920FB60F9211240BB60F922F9394
:100B50003F934F935F936F937F938F939F93AF9345
:100B6000BF93EF93FF93E0910C02F0910D02199562
:100B7000FF91EF91BF91AF919F918F917F916F9175
:100B80005F914F913F912F910F900BBE0F900FBE31
:100B90000F901F9018951F920F920FB60F9211246D
:100BA0000BB60F922F933F934F935F936F937F9367
:100BB0008F939F93AF93BF93EF93FF93E0910202C4
:100BC000F09103021995FF91EF91BF91AF919F9121
:100BD0008F917F916F915F914F913F912F910F90E6
:100BE0000BBE0F900FBE0F901F9018951F920F9283
:100BF0000FB60F9211240BB60F922F933F934F9382
:100C00005F936F937F938F939F93AF93BF93EF9374
:100C1000FF93E0910002F09101021995FF91EF918D
:100C2000BF91AF919F918F917F916F915F914F9104
:100C30003F912F910F900BBE0F900FBE0F901F9002
:100C400018951F920F920FB60F9211240BB60F92A8
:100C50002F933F934F935F936F937F938F939F93C4
:100C6000AF93BF93EF93FF93E0910A02F0910B02D1
:100C70001995FF91EF91BF91AF919F918F917F91C6
:100C80006F915F914F913F912F910F900BBE0F90FD
:100C90000FBE0F901F9018951F920F920FB60F92D4
:100CA00011240BB60F922F933F934F935F936F9343
:100CB0007F938F939F93AF93BF93EF93FF93E091B5
:100CC0000802F09109021995FF91EF91BF91AF9140
:100CD0009F918F917F916F915F914F913F912F9154
:100CE0000F900BBE0F900FBE0F901F9018951F9284
:100CF0000F920FB60F9211240BB60F922F933F93C2
:100D00004F935F936F937F938F939F93AF93BF9313
:100D1000EF93FF93E0910602F09107021995FF917E
:100D2000EF91BF91AF919F918F917F916F915F9163
:100D30004F913F912F910F900BBE0F900FBE0F90D0
:100D40001F9018951F920F920FB60F9211240BB699
:100D50000F922F933F934F935F936F937F938F9354
:100D60009F93AF93BF93EF93FF93E0910402F091B1
:100D700005021995FF91EF91BF91AF919F918F91CE
:100D80007F916F915F914F913F912F910F900BBE8B
:100D90000F900FBE0F901F901895CF92DF92EF9299
:100DA000FF920F931F93CF93DF937C016C0187E039
:100DB000C80ED11CC0E0D0E0062F10E0B8010C2E08
:100DC00002C0759567950A94E2F76170F60181910A
:100DD0006F01C3DD2196C430D10581F7C701DF91D2
:100DE000CF911F910F91FF90EF90DF90CF90E4CDC6
:100DF000CF92DF92EF92FF920F931F93CF93DF93E7
:100E0000EC01F62E642F8C81A8DD8D818F3F11F0CF
:100E100060E0A3DD8F850F2D10E084FF23C06E01FD
:100E200087E0C80ED11CE12CF12CB8010E2C02C0B9
:100E3000759567950A94E2F76170F60181916F01EB
:100E40008CDDFFEFEF1AFF0A88E0E816F10469F77E
:100E5000CE01DF91CF911F910F91FF90EF90DF9026
:100E6000CF90AACDB80184E0759567958A95E1F792
:100E7000CE0193DF6F2DCE01DF91CF911F910F91A6
:100E8000FF90EF90DF90CF9088CF41E0B1DF81E01D
:100E900090E0089540E0ACCF20E030E04BEC57E02C
:100EA0008217930734F0FA013197F1F72F5F3F4F24
:100EB000F7CF08950F931F93CF93DF93182FEB0174
:100EC0006EE772E08BE294E0E8DCCE01DED0612FC9
:100ED0008BE143DD80E293E0C89F8001C99F100D44
:100EE000D89F100D1124C0E0D0E00C171D0794F01E
:100EF00061E08DE132DD8091290490912A04CCDFFC
:100F000060E08DE12ADD8091290490912A04C4DFFC
:100F10002196EBCFDF91CF911F910F910895CF9341
:100F2000DF93BC018BE294E034DCEC0169E074E017
:100F30008BE294E02EDC8C0F9D1FDF91CF91089502
:100F4000EF92FF920F931F93CF93DF93EC016230E8
:100F500018F08F8588608F876B8B1C8A80E48D8B5F
:100F600080E18E8B80E58F8B61E08C8138DD8D8117
:100F70008F3F11F061E033DD61E08E8130DD7E0175
:100F800087E0E80EF11C00E010E08F8584FD03C0CF
:100F900084E090E002C088E090E00817190744F46C
:100FA00061E0F70181917F011ADD0F5F1F4FEDCFE7
:100FB0008BE39DE00197F1F760E08C81CEDC60E08F
:100FC0008E81CBDC8D818F3F11F060E0C6DC6F85B8
:100FD00064FD19C063E0CE01E0DE0BE416E4C80155
:100FE0000197F1F763E0CE01D8DEC8010197F1F770
:100FF00063E0CE01D2DE83E592E00197F1F762E093
:10100000CE01CBDE13C06062CE0144DF8BE496E4F8
:101010000197F1F76F856062CE013CDF83E592E0D6
:101020000197F1F76F856062CE0134DF6F856062F2
:10103000CE0130DF84E0888B6CE0CE012BDF61E0F5
:10104000CE0128DF8BE39FE10197F1F782E0898BE6
:1010500066E0CE01DF91CF911F910F91FF90EF904D
:1010600019CF643008F063E09091DB04691710F049
:101070006FEF690FE62FF0E0E853FB4F9489682F7C
:10108000690F606888EC94E005CFCF93DF93AC01E3
:10109000990F660B770B77FF04C08BE294E0D5DBEA
:1010A00004C02AE08BE294E089DBEC0169E074E0A3
:1010B0008BE294E06EDB8C0F9D1FDF91CF91089542
:1010C0000F931F93CF93DF93C82F6CE074E08BE2F4
:1010D00094E0E3DB81E090E0D8DF6C2F89E03DDC39
:1010E000C1E2D3E061E088E038DC0091290410918E
:1010F0002A04C801D1DE60E088E02FDCC801CCDE24
:10110000219781F7DF91CF911F910F910895FC01F5
:10111000448155816081718188EC94E0B7C8EF9279
:10112000FF920F931F93CF93C82F8B017A01682FE3
:1011300080E097DFC801EBDF6C2F8DE092DFA70125
:10114000FF0C660B770B77FF08C088EC94E0CF911B
:101150001F910F91FF90EF9078CB2AE088EC94E0FC
:10116000CF911F910F91FF90EF9028CBCF93DF93FA
:1011700000D000D0CDB7DEB7789484B5826084BD4E
:1011800084B5816084BD85B5826085BD85B581608B
:1011900085BD80916E00816080936E001092810009
:1011A00080918100826080938100809181008160C4
:1011B0008093810080918000816080938000809185
:1011C000B10084608093B1008091B0008160809311
:1011D000B000809191008260809391008091910095
:1011E0008160809391008091900081608093900055
:1011F0008091A10082608093A1008091A100816014
:101200008093A1008091A00081608093A0008091D4
:10121000210182608093210180912101816080936E
:1012200021018091200181608093200180917A00CA
:10123000846080937A0080917A00826080937A0043
:1012400080917A00816080937A0080917A00806832
:1012500080937A001092C10061E08DE0C0DB60E015
:1012600082E0BDDB60E083E0BADB60E082E1B7DB17
:1012700060E083E1B4DB80E693E090930302809327
:10128000020280916A00837F846080936A00ED9AF5
:1012900084E493E090930B0280930A0280916900AA
:1012A000806C80936900EB9A82E593E09093090249
:1012B0008093080280916900806380936900EA9AB4
:1012C00060E08DE04ADB61E088E089DB61E089E095
:1012D00086DB60E088E041DB60E089E03EDB61E0E6
:1012E0008DE17DDB61E08BE17ADB60E08DE135DB78
:1012F00060E08BE132DBE0913B04F0913C0482E062
:101300008083E0913704F09138041082E091390431
:10131000F0913A048FEC808310924304E0913F04F3
:10132000F091400486E08083E0913D04F0913E041A
:10133000808180618083E0913D04F0913E04808152
:1013400088608083E0913D04F0913E048081806854
:101350008083E0913D04F0913E0480818F7D808305
:1013600062E088EC94E0ECDD60E081E07ADE6CE83D
:1013700072E088EC94E091DA8BE3C82E8FE1D82EEE
:10138000EE24E394F12C61E080E06BDE6CE972E026
:1013900088EC94E082DA82E0F1D88C0165E070E0BC
:1013A00080E090E038D90130110531F48BEA92E009
:1013B000B6DD81E090E010C083E0E0D88C0161E010
:1013C00070E080E090E027D90130110519F08BE042
:1013D00090E002C080E090E090932804809327047E
:1013E00080912704909128048130910509F0FBC079
:1013F00061E08DE0B2DA62EC72E08BE294E04DDA0B
:10140000809127049091280440DE61E088EC94E00C
:1014100041DDC6010197F1F70091270410912804DE
:1014200060ED72E0CE01019668D9A801BE016F5F40
:101430007F4F80E090E073DE89819A81EDD16AE090
:1014400070E080E090E0E7D86EED72E08BE294E02F
:1014500024DA809125049091260417DE80912504DA
:1014600090912604892BE9F480EF92E058DD61E148
:1014700073E0CE01019641D961E080E0F2DDCE015A
:10148000019645DE89819A81C7D1F0922A04E092C3
:10149000290461E070E080E090E00CDD61E273E03F
:1014A000D5CF83E393E03BDD109226041092250410
:1014B0006AE070E080E090E0AED86CE473E08BE22C
:1014C00094E0EBD98091230490912404DEDD809197
:1014D000230490912404892BD9F48EE593E01FDD39
:1014E0006FE773E0CE01019608D961E080E0B9DDD5
:1014F000CE0101960CDE89819A818ED1F0922A0468
:10150000E092290480E090E0DBDD6EE873E0D7CF65
:1015100080EA93E004DD109224041092230468EE24
:1015200073E080E090E077D889EB93E0F8DC6AEC38
:1015300073E08BE294E0B1D983E090E0A6DD00E0B7
:1015400010E069ED73E08BE294E0A7D90F5F1F4FC5
:10155000C8019BDD66EE73E0CE010196CED8A801EE
:10156000BE016F5F7F4F81E090E0D9DD89819A8174
:1015700053D1F0922A04E092290481E090E0A0DDAA
:1015800068EE73E080E090E046D880E090E098DD7F
:1015900068EE73E080E090E03ED862E070E081E0C9
:1015A00090E088DC68EE73E080E090E034D80330AF
:1015B000110509F0C6CF109228041092270460ED9F
:1015C00072E0CE01019699D840E050E0BE016F5F15
:1015D0007F4F80E090E0A3DD89819A811DD185EF66
:1015E00093E09DDCFDCE892B59F460E08DE0B5D908
:1015F00062EC72E08BE294E050D984E094E08FDCFE
:101600000E943002C0CEEBE2F4E01382128288EE38
:1016100093E0A0E0B0E084839583A683B78380E263
:1016200092E09183808385EC90E09587848784ECB9
:1016300090E09787868780EC90E0918B808B81EC9F
:1016400090E0938B828B82EC90E0958B848B86EC80
:1016500090E0978B868B118E128E138E148EE8EC91
:10166000F4E01382128280E392E0918380838AE225
:1016700084838FEF85838CE2868384E3878382E390
:10168000808780E381878EE28287138614861586A1
:101690001686178661E0CF0153CCA1E21A2EAA1B51
:1016A000BB1BFD010DC0AA1FBB1FEE1FFF1FA21712
:1016B000B307E407F50720F0A21BB30BE40BF50B0F
:1016C000661F771F881F991F1A9469F76095709598
:1016D000809590959B01AC01BD01CF010895EE0F5F
:1016E000FF1F881F8BBF0790F691E02D1994CF93B1
:1016F000DF938230910510F482E090E0E091E20403
:10170000F091E30420E030E0C0E0D0E0309711F148
:101710004081518148175907C0F04817590761F4B3
:1017200082819381209719F09B838A832BC09093A9
:10173000E3048093E20426C02115310519F0421715
:10174000530718F49A01BE01DF01EF010280F38113
:10175000E02DDCCF2115310509F1281B390B243090
:10176000310590F412968D919C9113976115710536
:1017700021F0FB019383828304C09093E304809360
:10178000E204FD01329644C0FD01E20FF31F819394
:101790009193225031092D933C933AC02091E0045B
:1017A0003091E104232B41F4209112023091130275
:1017B0003093E1042093E004209110023091110253
:1017C0002115310541F42DB73EB7409114025091D7
:1017D0001502241B350BE091E004F091E104E217BF
:1017E000F307A0F42E1B3F0B2817390778F0AC0144
:1017F0004E5F5F4F2417350748F04E0F5F1F509321
:10180000E1044093E0048193919302C0E0E0F0E0B2
:10181000CF01DF91CF9108950F931F93CF93DF9363
:10182000009709F48CC0FC01329713821282009158
:10183000E2041091E3040115110581F42081318146
:10184000820F931F2091E0043091E104281739079B
:1018500079F5F093E104E093E00471C0D80140E031
:1018600050E0AE17BF0750F412962D913C9113979C
:10187000AD012115310509F1D901F3CF9D01DA013F
:101880003383228360817181860F971F82179307AC
:1018900069F4EC0128813981260F371F2E5F3F4FF5
:1018A000318320838A819B8193838283452B29F412
:1018B000F093E304E093E20442C01396FC93EE93AA
:1018C0001297ED01499159919E01240F351FE2179E
:1018D000F30771F480819181840F951F0296119610
:1018E0009C938E938281938113969C938E931297EF
:1018F000E0E0F0E0D80112968D919C91139700974B
:1019000019F0F8018C01F6CF8D919C9198012E5F12
:101910003F4F820F931F2091E0043091E10428177C
:10192000390769F4309729F41092E3041092E20425
:1019300002C0138212821093E1040093E004DF914D
:10194000CF911F910F9108956F927F928F929F92E6
:10195000AF92BF92CF92DF92EF92FF920F931F93BD
:10196000CF93DF93EC01009781F4CB01DF91CF910E
:101970001F910F91FF90EF90DF90CF90BF90AF90AD
:101980009F908F907F906F90B2CEFC01E60FF71F73
:101990009C0122503109E217F30708F4A8C0D901CD
:1019A0000D911C91119706171707A8F00530110526
:1019B00008F49BC0C80104978617970708F495C0E0
:1019C00002501109061B170B019311936D937C9321
:1019D000CF0122DF8AC05B01A01AB10A4C01800E40
:1019E000911EA091E204B091E30440E050E0E12CAC
:1019F000F12C109709F44AC0A815B905D1F56D90DE
:101A00007C901197630182E0C80ED11CCA14DB04DC
:101A100080F1A3014A195B096A0182E0C80ED11C5A
:101A20001296BC9012971396AC91B5E0CB16D104E8
:101A300040F0B282A38351834083D9016D937C939C
:101A40000AC00E5F1F4FC301800F911FF9019183E0
:101A50008083EB2DFA2FE114F10431F0D7011396B6
:101A6000FC93EE93129741C0F093E304E093E204F9
:101A70003CC08D919C9111974817590708F4AC010F
:101A80007D0112960D90BC91A02DB3CF8091E00402
:101A90009091E10488159905E1F446175707C8F4B9
:101AA0008091100290911102009741F48DB79EB77A
:101AB0004091140250911502841B950BE817F90709
:101AC000B0F4F093E104E093E004F90171836083E2
:101AD0000CC0CB010CDE7C01009749F0A801BE01CF
:101AE0001BD0CE0199DEC70104C0CE0102C080E048
:101AF00090E0DF91CF911F910F91FF90EF90DF90D9
:101B0000CF90BF90AF909F908F907F906F900895EF
:101B100081E090E0F89410C0FB01DC0102C001906C
:101B20000D9241505040D8F70895FB01DC0101901F
:0C1B30000D920020E1F70895F894FFCF1B
:101B3C004303430343034303430343034303430369
:101B4C000000E404800020030800090000000000ED
:101B5C00C90146019301710185010F0200000000CB
:101B6C004507460149535220666F72206D315F68FC
:101B7C006F6D655F73656E736F72206163746976E8
:101B8C0061746564210049535220666F72206D3276
:101B9C005F686F6D655F73656E736F7220616374E0
:101BAC0069766174656421005265736574005265D1
:101BBC0076735F6D325F6377203D20004D6F746FDD
:101BCC00725F4374726C5F76312E31002020537437
:101BDC00616E646279204D6F646500537461727438
:101BEC0020427574746F6E204163746976617465FC
:101BFC00640072756E5F737461747573203D2000A0
:101C0C0052756E20537461747573203D20006D32D3
:101C1C005F686F6D655F737461747573203D200030
:101C2C0053657474696E67206D3220746F20686F11
:101C3C006D6520706F736974696F6E2E2E2E2E2E4B
:101C4C0000536574204D3220746F20686F6D6520D1
:101C5C00006D325F686F6D655F73656E736F7220B8
:101C6C003D20006D3220696E20686F6D6520706FAD
:101C7C00736974696F6E2E2E2E2E2E006D315F6877
:101C8C006F6D655F737461747573203D20005365CF
:101C9C007474696E67206D3120746F20686F6D6588
:101CAC0020706F736974696F6E2E2E2E2E2E00535A
:101CBC006574204D3120746F20686F6D65006D3137
:101CCC005F686F6D655F73656E736F72203D20008A
:101CDC006D3120696E20686F6D6520706F7369744B
:101CEC00696F6E2E2E2E2E2E005365617175656EEA
:101CFC0063652073746172742100546F74616C207D
:101D0C004379636C65203D20004379636C65206EDC
:101D1C006F20203D20004379636C65204E6F20209E
:101D2C00203D2020005365617175656E63652065EB
:101D3C006E64210053746F70000D0A005265767347
:0A1D4C005F6D315F6377203D2000DA
:00000001FF
