:1000000014C100009BC700006EC7000041C700007C
:1000100014C70000E7C60000BAC600008DC6000085
:1000200060C6000032C1000030C100002EC10000D7
:100030002CC100002AC1000028C1000026C1000018
:1000400024C1000022C1000020C100001EC1000028
:100050001CC100001AC1000018C10000F8C5000052
:1000600014C10000C4C4000099C400000EC1000007
:100070000CC100000AC1000008C1000006C1000058
:1000800004C1000002C1000000C10000FEC0000069
:10009000FCC00000FAC00000F8C00000F6C000007C
:1000A000F4C00000F2C00000F0C00000EEC000008C
:1000B000ECC00000EAC00000E8C00000E6C000009C
:1000C000E4C00000E2C00000E0C00000DEC00000AC
:1000D000DCC00000DAC00000D8C00000D6C00000BC
:1000E000D4C000009A039D038C0390039603D403AD
:1000F000A103A503AB03AF03B303B903BD03C1035E
:10010000D403C703CB03CF03000021002400270042
:100110002A002D0030003300010100000401070116
:100120000A0100002200250028002B002E003100CB
:10013000340002010000050108010B01000020004D
:100140002300260029002C002F00320000010000AF
:10015000030106010901050505050705080808084A
:10016000020202020A0A080804040404010101014F
:10017000010101010303030303030303040707074A
:100180000C0C0C0C0C0C0C0C0202020206060606EF
:10019000060606060B0B0B0B0B0B0B0B01021020BC
:1001A00020080810204010204080020102010804AD
:1001B0000201010204081020408080402010080441
:1001C000020180040201804020100804020108049A
:1001D00002010102040810204080010204081020DE
:1001E000408000000A0B02090C0D0E0807030401F1
:1001F00000000000000000000000000000000000FF
:1002000000000000000000000000000000001211CB
:1002100010000000000000000000000000000000CE
:100220000000000000000000BC0811241FBECFEF3A
:10023000D1E2DEBFCDBF00E00CBF14E0A0E0B2E031
:10024000E0EBFBE100E00BBF02C007900D92AE3186
:10025000B107D9F724E0AEE1B4E001C01D92A63E9B
:10026000B207E1F711E0C5E1D1E000E006C0219757
:100270000109802FFE010E94560BC431D10780E096
:100280000807A9F7C3D70C94D60DBACEFC01448158
:1002900055816081718181EC94E010C1643008F077
:1002A00063E09091D404691710F06FEF690FE62FA7
:1002B000F0E0EF53FB4F9489682F690F606881EC81
:1002C00094E0E4C6EF92FF920F931F93CF93DF93D6
:1002D000EC01623018F08F8588608F876B8B1C8AE9
:1002E00080E48D8B80E18E8B80E58F8B61E08C814B
:1002F0001ED48D818F3F11F061E019D461E08E81B1
:1003000016D47E0187E0E80EF11C00E010E08F8536
:1003100084FD03C084E090E002C088E090E008170C
:10032000190744F461E0F70181917F0100D40F5F68
:100330001F4FEDCF8BE39DE00197F1F760E08C81DB
:10034000B4D360E08E81B1D38D818F3F11F060E036
:10035000ACD36F8564FD19C063E0CE011AD60BE4FF
:1003600016E4C8010197F1F763E0CE0112D6C80187
:100370000197F1F763E0CE010CD683E592E0019797
:10038000F1F762E0CE0105D613C06062CE017ED6E1
:100390008BE496E40197F1F76F856062CE0176D623
:1003A00083E592E00197F1F76F856062CE016ED62A
:1003B0006F856062CE016AD684E0888B6CE0CE01E6
:1003C00065D6CE0165D682E0898B66E0CE01DF91ED
:1003D000CF911F910F91FF90EF9058C6EF92FF922F
:1003E0000F931F93CF93C82F8B017A01682F80E062
:1003F00055DFC8014BDF6C2F8DE050DFA701FF0CEC
:10040000660B770B77FF08C081EC94E0CF911F91CA
:100410000F91FF90EF9099C22AE081EC94E0CF9188
:100420001F910F91FF90EF9048C2CF93DF93BC01D3
:1004300084E294E02DD2EC0168E372E084E294E07F
:1004400027D28C0F9D1FDF91CF910895CF93DF931B
:10045000AC01990F660B770B77FF04C084E294E040
:1004600074D204C02AE084E294E027D2EC0168E36D
:1004700072E084E294E00CD28C0F9D1FDF91CF914B
:100480000895CF93DF93C82F6BE372E084E294E08A
:1004900084D281E090E0DADF6C2F89E006D3C1E2FC
:1004A000D3E061E088E001D318D660E088E0FDD2B7
:1004B00014D62197B1F7DF91CF910895CF92DF92B3
:1004C000EF92FF920F931F93CF93DF936C017A010A
:1004D0008B01C0E0D0E0CE15DF0589F0D8016D9129
:1004E0008D01D601ED91FC910190F081E02DC601C6
:1004F0001995892B11F47E0102C02196ECCFC7011A
:10050000DF91CF911F910F91FF90EF90DF90CF90EF
:100510000895FC01918D828D981761F0828DDF0125
:10052000A80FB11D5D968C91928D9F5F9F73928FE6
:1005300090E008958FEF9FEF0895FC01918D828DDB
:10054000981731F0828DE80FF11D858D90E00895A8
:100550008FEF9FEF0895FC01918D228D892F90E000
:10056000805C9F4F821B91098F739927089584E2C5
:1005700094E0F1DF21E0892B09F420E0822F089537
:10058000FC01848DDF01A80FB11DA35ABF4F2C9130
:10059000848D90E001968F739927848FA689B789FF
:1005A0002C93A089B1898C9180648C93938D848DD8
:1005B000981306C00288F389E02D80818F7D8083A7
:1005C0000895EF92FF920F931F93CF93DF93EC0167
:1005D00081E0888F9B8D8C8D981305C0E889F989FF
:1005E000808185FD23C0F62E0B8D10E00F5F1F4F1D
:1005F0000F731127E02E8C8DE8120BC00FB607FC8D
:10060000FACFE889F989808185FFF5CFCE01B8DF7F
:10061000F2CF8B8DFE01E80FF11DE35AFF4FF08200
:100620000B8FEA89FB898081806207C0EE89FF8990
:100630006083E889F98980818064808381E090E02B
:10064000DF91CF911F910F91FF90EF900895CF937D
:10065000DF93EC01888D8823C1F0EA89FB898081D2
:1006600085FD05C0A889B9898C9186FD0EC00FB69D
:1006700007FCF5CF808185FFF2CFA889B9898C91DD
:1006800085FFEDCFCE017CDFE8CFDF91CF910895DC
:1006900080E090E0892B19F06ADF811125C080E0AD
:1006A00090E0892B41F080E090E0892B21F00E94BE
:1006B000000081111CC080E090E0892B41F080E0B7
:1006C00090E0892B21F00E940000811113C080E08E
:1006D00090E0892BA1F080E090E0892B81F00E94CE
:1006E000000081110AC008950E940000D8CF0E9426
:1006F0000000E1CF0E940000EACF0C9400000895B2
:1007000090E0FC013197E231F10508F04DC08827F7
:10071000EE58FF4F8F4FCAC7809180008F7703C07C
:10072000809180008F7D809380000895809180006B
:10073000877FF9CF84B58F7702C084B58F7D84BD64
:1007400008958091B0008F7703C08091B0008F7DB5
:100750008093B0000895809190008F7707C08091BA
:1007600090008F7D03C080919000877F80939000E0
:1007700008958091A0008F7707C08091A0008F7DA1
:1007800003C08091A000877F8093A000089580918E
:1007900020018F7707C0809120018F7D03C0809159
:1007A0002001877F8093200108953FB7F8948091BE
:1007B000DE049091DF04A091E004B091E10426B53D
:1007C000A89B05C02F3F19F00196A11DB11D3FBF89
:1007D000BA2FA92F982F8827820F911DA11DB11D17
:1007E000BC01CD0142E0660F771F881F991F4A9513
:1007F000D1F7089508950E94750DEF92FF920F931F
:100800001F93CF93DF93EC01198218821B821A8207
:100810001D821C8261157105A1F17B01FB01019014
:100820000020E9F731978F01061B170BB8016F5FA6
:100830007F4F80E090E00E94910C009759F09983DF
:1008400088831B830A832C813D81232B79F4FC014F
:1008500010820CC088819981009709F0CAD719824B
:1008600018821D821C821B821A820BC01D830C837E
:10087000B701DF91CF911F910F91FF90EF900C94F2
:10088000820DDF91CF911F910F91FF90EF9008950E
:100890006115710579F0FB0101900020E9F73197AE
:1008A000AF01461B570BDC01ED91FC910280F381F7
:1008B000E02D199480E090E008954F925F926F923E
:1008C0007F92EF92FF920F931F93CF93DF93CDB759
:1008D000DEB7A1970FB6F894DEBF0FBECDBF7C0187
:1008E000FA01CB0119A2223008F42AE08E010F5D33
:1008F0001F4F422E512C612C712CBF01A30192017C
:100900000E94A50DF901CA01015011096A3014F4C1
:10091000605D01C0695CD8016C93232B242B252BCF
:1009200061F7B801C701B4DFA1960FB6F894DEBF36
:100930000FBECDBFDF91CF911F910F91FF90EF9030
:100940007F906F905F904F900895CF92DF92EF92DB
:10095000FF920F931F93CF93DF93EC016A017B010A
:10096000E881F9810190F081E02D6DE219958C010B
:1009700044275527BA014C195D096E097F092AE001
:10098000CE019BDF800F911FDF91CF911F910F91BF
:10099000FF90EF90DF90CF9008957ACF1F920F9243
:1009A0000FB60F9211240BB60F922F933F934F93D4
:1009B0005F936F937F938F939F93AF93BF93EF93C7
:1009C000FF9384E294E0DCDDFF91EF91BF91AF9162
:1009D0009F918F917F916F915F914F913F912F9157
:1009E0000F900BBE0F900FBE0F901F9018951F9287
:1009F0000F920FB60F9211240BB60F922F938F9375
:100A00009F93EF93FF93E0913404F091350480813C
:100A1000E0913A04F0913B0482FD12C090818091F4
:100A20003D048F5F8F7320913E04821751F0E09157
:100A30003D04F0E0EC5DFB4F958F80933D0401C0D9
:100A40008081FF91EF919F918F912F910F900BBE1D
:100A50000F900FBE0F901F901895CF93DF93282F04
:100A600030E0F901EE51FE4F8491F901E456FE4F5A
:100A7000D491F901EA5AFE4FC491CC2389F0811137
:100A80003FDEEC2FF0E0EE0FFF1FE45CFE4FA59180
:100A9000B491EC91ED2381E090E021F480E002C07C
:100AA00080E090E0DF91CF9108951F93CF93DF9383
:100AB000282F30E0F901EE51FE4F8491F901E45600
:100AC000FE4FD491F901EA5AFE4FC491CC23C1F0F4
:100AD000162F811115DEEC2FF0E0EE0FFF1FEE5DFB
:100AE000FE4FA591B4918FB7F894111105C09C9158
:100AF000ED2FE095E92302C0EC91ED2BEC938FBF35
:100B0000DF91CF911F910895CF93DF93EC0160E0C7
:100B10008E81CBDF61E08E81C8DF60E08E81C5DF32
:100B20008BE891E00197F1F7DF91CF910895CF9392
:100B3000DF9390E0FC01E456FE4F2491FC01EA5A59
:100B4000FE4F8491882361F190E0880F991FFC018A
:100B5000E85FFE4FC591D491FC01EE5DFE4FA5917B
:100B6000B491611109C09FB7F894888120958223C0
:100B70008883EC912E230BC0623061F49FB7F89408
:100B80003881822F809583238883EC912E2B2C93A0
:100B90009FBF06C08FB7F894E8812E2B28838FBFA4
:100BA000DF91CF9108958F929F92AF92BF92CF9293
:100BB000DF92EF92FF926B017C01F7DD4B015C014C
:100BC000C114D104E104F104E9F0EFDDDC01CB0153
:100BD00088199909AA09BB09883E9340A105B10566
:100BE00078F321E0C21AD108E108F10888EE880EF6
:100BF00083E0981EA11CB11CC114D104E104F104CE
:100C000021F7DECFFF90EF90DF90CF90BF90AF90B5
:100C10009F908F90089586EC93E007DC81E090E050
:100C2000909321048093200464E670E080E090E0DB
:100C3000BACF88EE93E0F9DB81E090E090931F0457
:100C400080931E0464E670E080E090E0ACCF1F92D9
:100C50000F920FB60F9211242F933F938F939F9370
:100C6000AF93BF938091DA049091DB04A091DC04F0
:100C7000B091DD043091D90423E0230F2D3720F407
:100C80000196A11DB11D05C026E8230F0296A11DE6
:100C9000B11D2093D9048093DA049093DB04A093D0
:100CA000DC04B093DD048091DE049091DF04A09118
:100CB000E004B091E1040196A11DB11D8093DE0412
:100CC0009093DF04A093E004B093E104BF91AF914F
:100CD0009F918F913F912F910F900FBE0F901F907A
:100CE00018951F920F920FB60F9211240BB60F9208
:100CF0002F933F934F935F936F937F938F939F9324
:100D0000AF93BF93EF93FF93E0910E02F0910F0228
:100D10001995FF91EF91BF91AF919F918F917F9125
:100D20006F915F914F913F912F910F900BBE0F905C
:100D30000FBE0F901F9018951F920F920FB60F9233
:100D400011240BB60F922F933F934F935F936F93A2
:100D50007F938F939F93AF93BF93EF93FF93E09114
:100D60000C02F0910D021995FF91EF91BF91AF9197
:100D70009F918F917F916F915F914F913F912F91B3
:100D80000F900BBE0F900FBE0F901F9018951F92E3
:100D90000F920FB60F9211240BB60F922F933F9321
:100DA0004F935F936F937F938F939F93AF93BF9373
:100DB000EF93FF93E0910202F09103021995FF91E6
:100DC000EF91BF91AF919F918F917F916F915F91C3
:100DD0004F913F912F910F900BBE0F900FBE0F9030
:100DE0001F9018951F920F920FB60F9211240BB6F9
:100DF0000F922F933F934F935F936F937F938F93B4
:100E00009F93AF93BF93EF93FF93E0910002F09114
:100E100001021995FF91EF91BF91AF919F918F9131
:100E20007F916F915F914F913F912F910F900BBEEA
:100E30000F900FBE0F901F9018951F920F920FB634
:100E40000F9211240BB60F922F933F934F935F9302
:100E50006F937F938F939F93AF93BF93EF93FF9382
:100E6000E0910A02F0910B021995FF91EF91BF9169
:100E7000AF919F918F917F916F915F914F913F9132
:100E80002F910F900BBE0F900FBE0F901F901895D3
:100E90001F920F920FB60F9211240BB60F922F9341
:100EA0003F934F935F936F937F938F939F93AF93F2
:100EB000BF93EF93FF93E0910802F0910902199517
:100EC000FF91EF91BF91AF919F918F917F916F9122
:100ED0005F914F913F912F910F900BBE0F900FBEDE
:100EE0000F901F9018951F920F920FB60F9211241A
:100EF0000BB60F922F933F934F935F936F937F9314
:100F00008F939F93AF93BF93EF93FF93E09106026C
:100F1000F09107021995FF91EF91BF91AF919F91C9
:100F20008F917F916F915F914F913F912F910F9092
:100F30000BBE0F900FBE0F901F9018951F920F922F
:100F40000FB60F9211240BB60F922F933F934F932E
:100F50005F936F937F938F939F93AF93BF93EF9321
:100F6000FF93E0910402F09105021995FF91EF9132
:100F7000BF91AF919F918F917F916F915F914F91B1
:100F80003F912F910F900BBE0F900FBE0F901F90AF
:100F90001895CF92DF92EF92FF920F931F93CF930A
:100FA000DF937C016C0187E0C80ED11CC0E0D0E06B
:100FB000062F10E0B8010C2E02C0759567950A94B3
:100FC000E2F76170F60181916F016FDD2196C43007
:100FD000D10581F7C701DF91CF911F910F91FF904C
:100FE000EF90DF90CF9090CDCF92DF92EF92FF9273
:100FF0000F931F93CF93DF93EC01F62E642F8C8118
:1010000054DD8D818F3F11F060E04FDD8F850F2D16
:1010100010E084FF23C06E0187E0C80ED11CE12CD4
:10102000F12CB8010E2C02C0759567950A94E2F771
:101030006170F60181916F0138DDFFEFEF1AFF0A51
:1010400088E0E816F10469F7CE01DF91CF911F9196
:101050000F91FF90EF90DF90CF9056CDB80184E0D4
:10106000759567958A95E1F7CE0193DF6F2DCE01D7
:10107000DF91CF911F910F91FF90EF90DF90CF9074
:1010800088CF41E0B1DF81E090E0089540E0ACCF4F
:1010900061E0FCDF8BE39FE10197F1F70895CF93C7
:1010A000DF9383E0DADCEC0162E370E080E090E063
:1010B0007ADD219779F48AE094E0B7D9109223047D
:1010C0001092220481EC94E0E3DFE0E0F0E0DF91B5
:1010D000CF911994DF91CF91089580917B00877F04
:1010E00080937B0080E480937C0080917A00806410
:1010F00080937A0080917A0086FDFCCFA0917800E1
:1011000080917900B0E0B82B2AE030E0D7D22FEF01
:1011100033E040E050E0FDD4CA01B90144CD0F9363
:101120001F93CF93DF93182FEB0160E174E084E20B
:1011300094E033DCCE018AD9612F8BE1B6DC80E20A
:1011400093E0C89F8001C99F100DD89F100D1124F6
:10115000C0E0D0E00C171D0754F061E08DE1A5DC84
:10116000BCDF60E08DE1A1DCB8DF2196F3CFDF9139
:10117000CF911F910F910895E4E2F4E0138212825F
:1011800088EE93E0A0E0B0E084839583A683B783E4
:1011900084E292E09183808385EC90E09587848758
:1011A00084EC90E09787868780EC90E0918B808B31
:1011B00081EC90E0938B828B82EC90E0958B848B1A
:1011C00086EC90E0978B868B118E128E138E148E88
:1011D000E1ECF4E01382128284E392E09183808355
:1011E0008AE284838FEF85838CE2868384E387831E
:1011F00082E3808780E381878EE28287138614866C
:1012000015861686178661E0CF015CC8CF93DF9301
:1012100000D000D0CDB7DEB7789484B5826084BDAD
:1012200084B5816084BD85B5826085BD85B58160EA
:1012300085BD80916E00816080936E001092810068
:101240008091810082608093810080918100816023
:1012500080938100809180008160809380008091E4
:10126000B10084608093B1008091B0008160809370
:10127000B0008091910082608093910080919100F4
:1012800081608093910080919000816080939000B4
:101290008091A10082608093A1008091A100816073
:1012A0008093A1008091A00081608093A000809134
:1012B00021018260809321018091210181608093CE
:1012C00021018091200181608093200180917A002A
:1012D000846080937A0080917A00826080937A00A3
:1012E00080917A00816080937A0080917A00806892
:1012F00080937A001092C10061E08DE018DC60E01C
:1013000082E015DC60E083E012DC60E082E10FDC6B
:1013100060E083E10CDC8FE498E09093030280931B
:10132000020280916A00837F846080936A00ED9A54
:1013300089E196E090930B0280930A028091690004
:10134000806C80936900EB9A8BE096E090930902A1
:101350008093080280916900806380936900EA9A13
:1013600060E08DE0A2DB61E088E0E1DB61E089E044
:10137000DEDB60E088E099DB60E089E096DB61E03D
:101380008DE1D5DB61E08BE1D2DB60E08DE18DDBCF
:1013900060E08BE18ADBE0913404F091350482E077
:1013A0008083E0913004F09131041082E0913204A6
:1013B000F09133048FEC808310923C04E091380468
:1013C000F091390486E08083E0913604F09137048F
:1013D000808180618083E0913604F09137048081C0
:1013E00088608083E0913604F091370480818068C2
:1013F0008083E0913604F091370480818F7D808373
:1014000062E081EC94E00E94620160E081E00E9471
:101410004E0169E472E081EC94E0BFDA61E080E0C3
:101420000E944E0169E572E081EC94E0B6DA82E058
:1014300014DB8C0165E070E080E090E0B4DB01300B
:10144000110539F488E692E00E94150281E090E0EF
:1014500010C083E002DB8C0161E070E080E090E08E
:10146000A2DB0130110519F08BE090E002C080E0B2
:1014700090E0909323048093220480912204909121
:1014800023048130910509F000C161E08DE00DDB9E
:101490006FE772E084E294E080DA80912204909118
:1014A00023040E94260281EC94E0F2DD00912204E4
:1014B000109123046DE872E0CE0101969ED9A80137
:1014C000BE016F5F7F4F80E090E00E94EE01898156
:1014D0009A818FD16AE070E080E090E064DB6BE994
:1014E00072E084E294E059DA809120049091210422
:1014F0000E9426028091200490912104892BE1F41E
:101500008DEA92E00E9415026EEC72E0CE01019627
:1015100074D961E080E00E944E01CE0101960E94E4
:10152000460189819A8165D161E070E080E090E0B8
:10153000F6DD6EED72E0D5CF80EF92E00E941502ED
:1015400010922104109220046AE070E080E090E0A4
:101550002ADB69E073E084E294E01FDA80911E04E4
:1015600090911F040E94260280911E0490911F04F6
:10157000892BD9F48BE193E00E9415026CE373E0B0
:10158000CE0101963AD961E080E00E944E01CE0181
:1015900001960E94460189819A812BD180E090E0DA
:1015A0000E9441026BE473E0D6CF8DE593E00E9488
:1015B000150210921F0410921E0468EE73E080E082
:1015C00090E0F1DA86E793E00E94150267E873E0A5
:1015D00084E294E0E2D983E090E00E94260200E0F9
:1015E00010E066E973E084E294E0D7D90F5F1F4F03
:1015F000C8010E94260263EA73E0CE010196FDD87D
:10160000A801BE016F5F7F4F81E090E00E94EE0174
:1016100089819A81EED081E090E00E94410268EEDB
:1016200073E080E090E0BFDA80E090E00E94410249
:1016300068EE73E080E090E0B6DA62E070E081E0AE
:1016400090E06DDD68EE73E080E090E0ACDA0330AE
:10165000110509F0C6CF10922304109222046DE800
:1016600072E0CE010196C9D840E050E0BE016F5F44
:101670007F4F80E090E00E94EE0189819A81B9D08D
:1016800082EB93E00E941502F8CE892B61F460E0B2
:101690008DE00BDA6FE772E084E294E07ED981ECB2
:1016A00093E00E9415020E944803B8CEEE0FFF1F80
:1016B000881F8BBF0790F691E02D199468D2B7FF71
:1016C0000895821B930B0895CF93DF938230910589
:1016D00010F482E090E0E091E404F091E50420E071
:1016E00030E0C0E0D0E0309711F1408151814817DF
:1016F0005907C0F04817590761F4828193812097F8
:1017000019F09B838A832BC09093E5048093E404B3
:1017100026C02115310519F04217530718F49A0114
:10172000BE01DF01EF010280F381E02DDCCF211546
:10173000310509F1281B390B2430310590F412963C
:101740008D919C9113976115710521F0FB01938395
:10175000828304C09093E5048093E404FD013296F3
:1017600044C0FD01E20FF31F819391932250310990
:101770002D933C933AC02091E2043091E304232B53
:1017800041F420911202309113023093E30420932C
:10179000E20420911002309111022115310541F42B
:1017A0002DB73EB74091140250911502241B350B02
:1017B000E091E204F091E304E217F307A0F42E1B9A
:1017C0003F0B2817390778F0AC014E5F5F4F2417A5
:1017D000350748F04E0F5F1F5093E3044093E20437
:1017E0008193919302C0E0E0F0E0CF01DF91CF91CF
:1017F00008950F931F93CF93DF93009709F48CC044
:10180000FC013297138212820091E4041091E504E6
:101810000115110581F420813181820F931F2091E0
:10182000E2043091E3042817390779F5F093E304D3
:10183000E093E20471C0D80140E050E0AE17BF076A
:1018400050F412962D913C911397AD01211531055D
:1018500009F1D901F3CF9D01DA013383228360813D
:101860007181860F971F8217930769F4EC01288115
:101870003981260F371F2E5F3F4F318320838A81A6
:101880009B8193838283452B29F4F093E504E093B5
:10189000E40442C01396FC93EE931297ED01499134
:1018A00059919E01240F351FE217F30771F48081CF
:1018B0009181840F951F029611969C938E9382813D
:1018C000938113969C938E931297E0E0F0E0D801F9
:1018D00012968D919C911397009719F0F8018C0145
:1018E000F6CF8D919C9198012E5F3F4F820F931FF1
:1018F0002091E2043091E3042817390769F4309706
:1019000029F41092E5041092E40402C013821282BA
:101910001093E3040093E204DF91CF911F910F91A4
:1019200008956F927F928F929F92AF92BF92CF92C3
:10193000DF92EF92FF920F931F93CF93DF93EC010F
:10194000009781F4CB01DF91CF911F910F91FF9010
:10195000EF90DF90CF90BF90AF909F908F907F904F
:101960006F90B2CEFC01E60FF71F9C0122503109A7
:10197000E217F30708F4A8C0D9010D911C91119743
:1019800006171707A8F00530110508F49BC0C80119
:1019900004978617970708F495C002501109061B93
:1019A000170B019311936D937C93CF0122DF8AC0B3
:1019B0005B01A01AB10A4C01800E911EA091E404B3
:1019C000B091E50440E050E0E12CF12C109709F4CF
:1019D0004AC0A815B905D1F56D907C9011976301A7
:1019E00082E0C80ED11CCA14DB0480F1A3014A199D
:1019F0005B096A0182E0C80ED11C1296BC90129756
:101A00001396AC91B5E0CB16D10440F0B282A3831B
:101A100051834083D9016D937C930AC00E5F1F4FA1
:101A2000C301800F911FF90191838083EB2DFA2F61
:101A3000E114F10431F0D7011396FC93EE93129761
:101A400041C0F093E504E093E4043CC08D919C9187
:101A500011974817590708F4AC017D0112960D90B3
:101A6000BC91A02DB3CF8091E2049091E30488153E
:101A70009905E1F446175707C8F480911002909138
:101A80001102009741F48DB79EB740911402509116
:101A90001502841B950BE817F907B0F4F093E304E3
:101AA000E093E204F901718360830CC0CB010CDE8A
:101AB0007C01009749F0A801BE011BD0CE0199DE40
:101AC000C70104C0CE0102C080E090E0DF91CF9159
:101AD0001F910F91FF90EF90DF90CF90BF90AF904C
:101AE0009F908F907F906F90089581E090E0F894A0
:101AF0005DC0FB01DC0102C001900D9241505040DD
:101B0000D8F70895FB01DC0101900D920020E1F768
:101B10000895052E97FB16F400940FD057FD05D0BD
:101B200014D007FC02D046F408C05095409530957B
:101B300021953F4F4F4F5F4F089590958095709539
:101B400061957F4F8F4F9F4F0895A1E21A2EAA1BD8
:101B5000BB1BFD010DC0AA1FBB1FEE1FFF1FA2175D
:101B6000B307E407F50720F0A21BB30BE40BF50B5A
:101B7000661F771F881F991F1A9469F760957095E3
:101B8000809590959B01AC01BD01CF010895A29F66
:101B9000B001B39FC001A39F700D811D1124911D41
:101BA000B29F700D811D1124911D0895F894FFCFEF
:101BB000FA03FA03FA03FA03FA03FA03FA03FA033D
:101BC0000000E6048000010000001B001D0020034F
:101BD00000000000E1025E02AB0289029D022703C1
:101BE0000000000041085E020D0A00526576735F36
:101BF0006D315F6377203D20004D6F746F725F43DE
:101C000074726C5F76312E310020205374616E64E3
:101C10006279204D6F64650053746172742042755F
:101C200074746F6E204163746976617465640072C8
:101C3000756E5F737461747573203D200052756E0C
:101C400020537461747573203D20006D325F686F9E
:101C50006D655F737461747573203D200053657406
:101C600074696E67206D3220746F20686F6D652017
:101C7000706F736974696F6E2E2E2E2E2E00536551
:101C800074204D3220746F20686F6D6520006D32B6
:101C90005F686F6D655F73656E736F72203D2000C6
:101CA0006D3220696E20686F6D6520706F73697486
:101CB000696F6E2E2E2E2E2E006D315F686F6D6552
:101CC0005F737461747573203D200053657474698B
:101CD0006E67206D3120746F20686F6D6520706FA6
:101CE000736974696F6E2E2E2E2E2E00536574202C
:101CF0004D3120746F20686F6D65006D315F686FC6
:101D00006D655F73656E736F72203D20006D3120CD
:101D1000696E20686F6D6520706F736974696F6E8E
:101D20002E2E2E2E2E005365617175656E63652013
:101D300073746172742100546F74616C2043796311
:101D40006C65203D20004379636C65206E6F202018
:101D50003D20004379636C65204E6F2020203D209C
:101D600020005365617175656E636520656E642141
:101D70000053746F700049535220666F72206D32A9
:101D80005F686F6D655F73656E736F7220616374FA
:101D9000697661746564210049535220666F722030
:101DA0006D315F686F6D655F73656E736F72206113
:101DB00063746976617465642100526573657400AB
:0E1DC000526576735F6D325F6377203D2000C1
:00000001FF
